:020000040002F8
:1060000070650020C1630200C9630200CB63020017
:10601000CD630200CF630200D163020000000000E4
:10602000000000000000000000000000D363020038
:10603000D563020000000000D7630200D9630200AC
:1060400015660200DB630200096A0200DB630200DE
:10605000DB630200DB63020071650200DB630200A8
:10606000DB630200DB630200DB630200DB63020030
:10607000DB630200DB630200DB630200DB63020020
:10608000DB6302006D660200DB630200DB6302007B
:10609000DB630200DB630200DD660200DB630200FB
:1060A000DB630200DB630200DB630200DB630200F0
:1060B000DB630200DB630200000000000000000060
:1060C000DB630200DB630200DB630200DB630200D0
:1060D000DB630200DB630200DB6302000000000000
:1060E00000000000000000000000000000000000B0
:1060F00000000000000000000000000000000000A0
:10610000000000000000000000000000000000008F
:10611000000000000000000000000000000000007F
:10612000000000000000000000000000000000006F
:10613000000000000000000000000000000000005F
:10614000000000000000000000000000000000004F
:10615000000000000000000000000000000000003F
:10616000000000000000000000000000000000002F
:10617000000000000000000000000000000000001F
:10618000000000000000000000000000000000000F
:1061900000000000000000000000000000000000FF
:1061A00000000000000000000000000000000000EF
:1061B00000000000000000000000000000000000DF
:1061C00000000000000000000000000000000000CF
:1061D00000000000000000000000000000000000BF
:1061E00000000000000000000000000000000000AF
:1061F000000000000000000000000000000000009F
:10620000DFF80CD000F076F900480047698F0200F3
:106210007065002030B450E8012F93B2C489234444
:106220008489A34228BF1B1B0489A34202BFBFF37A
:106230002F8F002007E0C3EA020340E80134002C5E
:10624000E9D14FF001000A6030BC704750E8012FDF
:10625000C2EA024240E801210029F7D1704730B478
:1062600050E8022F1FFAA2F3C488A34202BFBFF373
:106270002F8F00200DE0C48923448489A34228BFC6
:106280001B1BC2EA034340E80234002CE8D14FF064
:1062900001000A6030BC704750E8022FC2EA224277
:1062A00040E802210029F7D17047034653E8022F46
:1062B000D988B2EB324F4FF0000017BF92B241EADB
:1062C000014142EA014104E05A68B2EB324F08BF93
:1062D000012043E80212002AE8D1704730B4044696
:1062E00054E8000F0D4644E80053002BF8D1156028
:1062F00030BC704730B4044654E8000F40EA010552
:1063000044E80053002BF7D1156030BC704730B41F
:10631000044654E8000F00EA010544E80053002B4E
:10632000F7D1156030BC704730B4044654E8000F14
:1063300080EA010544E80053002BF7D1156030BC1A
:10634000704730B4044654E8000F00EB010544E800
:106350000053002BF7D1156030BC704730B40446B1
:1063600054E8000FA0EB010544E80053002BF7D1DF
:10637000156030BC704770B404464FF0000054E81C
:10638000006F0D68AE4207BF44E80023012044E8D7
:1063900000630E60002B1CBF0020F0E770BC70474C
:1063A00030B4044654E8000F88422CBF451A054615
:1063B00044E80053002BF5D1156030BC7047000055
:1063C0000648804706480047FEE7FEE7FEE7FEE78F
:1063D000FEE7FEE7FEE7FEE7FEE7FEE7E166020016
:1063E000016202002DE9F05F0546002092469B46BF
:1063F00088460646814640241BE0284641464746DB
:10640000224600F067F853465A46C01A914110D30D
:1064100011461846224600F016F82D1A67EB0108BF
:106420004F4622460120002100F00DF817EB00092D
:106430004E41201EA4F10104DFDC484631462A46C5
:106440004346BDE8F09F202A04DB203A00FA02F11F
:10645000002070479140C2F1200320FA03F3194352
:1064600090407047004870473CC7020040EA010373
:106470009B0703D009E008C9121F08C0042AFAD2FA
:1064800003E011F8013B00F8013B521EF9D27047BE
:10649000D2B201E000F8012B491EFBD27047002266
:1064A000F6E710B513460A4604461946FFF7F0FF13
:1064B000204610BD421C10F8011B0029FBD1801A98
:1064C0007047034611F8012B00F8012B002AF9D17F
:1064D00018467047202A04DB203A21FA02F00021F6
:1064E000704721FA02F3D040C2F1200291400843E4
:1064F00019467047064C074D06E0E06840F001037E
:1065000094E8070098471034AC42F6D3FFF77CFEBE
:10651000B0CE0200D0CE020070B58C1810F8015B2E
:1065200015F0070301D110F8013B2A1106D110F82C
:10653000012B03E010F8016B01F8016B5B1EF9D130
:106540002B0705D40023521E0DD401F8013BFAE7B6
:1065500010F8013BCB1A921C03E013F8015B01F821
:10656000015B521EF9D5A142D8D3002070BD0000B6
:106570002DE9F8430025DFF894804FF4807601245C
:106580002F460095304603F0FDFB38B1D8F80403E0
:10659000204203D0304603F0EBFB2543361D640058
:1065A0007F1CB6B2082FEDD34FF4BE74204603F023
:1065B000E9FB48B1204603F0DBFB45F000456A46A5
:1065C0000121002003F0A4FB15F0FF0F16D00126D7
:1065D00000242E420ED008EB8401D1F81005D1F82A
:1065E0001015C0F304200A4AC1F3014152F82420D7
:1065F00002B190477600641C082CEAD3002D02DA21
:10660000684604F081FFBDE8F883000000600040A8
:10661000B03B002070B54FF48076304603F054F95B
:10662000114CB50560B1304603F055F90120C5F8AD
:106630000803607920B90120607121680020884733
:106640004FF48276304603F03FF900280AD03046F6
:1066500003F041F90220C5F808032168BDE8704045
:106660000120084770BD0000382B00200249024875
:10667000091F096800680847A42B002000F0CAB968
:1066800070B50E46144900EB400001EBC0051446FE
:10669000E86A183520B101280FD0022805D113E08F
:1066A000284600F0EBF9A04201D2002411E0224676
:1066B0003146284600F01AFA0BE0284600F0DEF9D1
:1066C000A042F4D20446F2E73146284600F0E1F950
:1066D0000446204670BD0000E842002004F0A4B843
:1066E000F0B5B74AB7494FF080541368D4F8300179
:1066F0000978D4F83421451CC1F3031106D084462F
:1067000001270025BCF1060F03D00AE003F0FF0CBF
:10671000F6E7B4F82463DFF8B0C2C6F30426CCF879
:106720000060DEB2062E06D1032904D1DFF8A0C234
:10673000A64ECCF87460461C04D08446BCF1060F0B
:1067400003D00AE003F0FF0CF8E7D4F84462DFF866
:1067500084C2C6F34236CCF80060DEB2062E08D101
:10676000032906D19C4ED6F800C02CF0807CC6F8D8
:1067700000C0461C04D08446BCF1060F03D00BE0D9
:1067800003F0FF0CF8E74FF08046C6F80C51C6F84E
:106790001051904E361F3560DEB2062E08D1032907
:1067A00006D1DFF830C203260CF1640CCCF800608F
:1067B000DEB2062E11D103290FD1DFF820C2052643
:1067C000CCF80060854E78363760844E08363560E8
:1067D0000CF1040C3F26CCF80060461C06D0844621
:1067E0004FEA0206BCF1060F04D081E003F0FF0C73
:1067F0000E46F7E7032E7BD0042E79D0784E36680C
:10680000DFF8E0C1CCF80060754E361D36680CF13B
:10681000040CCCF80060724E083636680CF1040C9B
:10682000CCF800606E4E0C3636680CF1040CCCF8D7
:1068300000606B4E103636680CF1040CCCF800602A
:10684000674E143636680CF1040CCCF80060644EC8
:1068500018363668DFF88CC10CF1200CCCF80060DB
:106860005F4E1C3636680CF1040CCCF800605C4EB0
:10687000203636680CF1040CCCF80060584E2436F3
:1068800036680CF1040CCCF80060554E283636689A
:106890000CF1040CCCF80060514E2C3636680CF12B
:1068A000040CCCF800604E4E30363668DFF834C148
:1068B0000CF1400CCCF80060494E343636680CF1CF
:1068C000040CCCF80060464E383636680CF1040CE7
:1068D000CCF80060424E3C3636680CF1040CCCF823
:1068E00000603F4E403636680CF1040CCCF8006076
:1068F000461C05D04FEA000CBCF1060F03D008E09F
:1069000003F0FF0CF8E7D4F85842374E04F04F0478
:106910003460441C03D00346062B02D008E0DBB2EF
:10692000FAE732490B68DB0702D06FF001030B6016
:1069300006280AD1032A08D0042A06D0052A04D042
:106940002B48016841F48061016023487438016874
:1069500041F470010160BFF34F8FBFF36F8F4FF0B1
:106960001021D1F80002002803DBD1F8040200282E
:1069700022DA204A176020480368002BFCD0152338
:10698000C1F800320468002CFCD0C1F80432016860
:106990000029FCD0156001680029FCD0BFF34F8F9F
:1069A0000D48F0380168154A01F4E06111430160B7
:1069B000BFF34F8F00BFFDE7124911480860F0BDDB
:1069C000E00F00F0E80F00F0403501400DF0ADBAE7
:1069D00000C007403C050040FCED00E010560040C0
:1069E0000404001020C50040E40E004000040040F4
:1069F0003C17004004E5014000E401400400FA05B2
:106A00000090D0031C2C00200148006800470000C3
:106A1000402B002010B5124C02202061606111A0B3
:106A2000A06104F17800E0614FF400702062002062
:106A3000A06260620BA1A164E06204F51E71E164D2
:106A40001021A065C4E91410E06509A1E01DFFF75D
:106A500038FD08A12046FFF734FD2020A07110BDAD
:106A6000E84200205465726D696E616C00000000A0
:106A70005254540053454747455200000269C168CB
:106A80008A4203D88068401A104400E0501A401E21
:106A900070472DE9F047C4681746894606464FF00F
:106AA00000083069A04201D9051B02E0B168201A34
:106AB0000D1AB0686D1E001BA84200D80546BD42E5
:106AC00000D33D4670682A4620444946FFF7CEFC75
:106AD000B0687F1B2C44A844A944A04200D10024E4
:106AE000F460002FDDD14046BDE8F0872DE9F0418C
:106AF00004468846D4E90207C51BE168606816466B
:106B00000844B54206D94146FFF7B0FCB819E06029
:106B1000BDE8F0812A464146FFF7A8FC761B08EB4A
:106B2000050132466068FFF7A1FCE660F0E700006F
:106B3000014A024900F026B8A18B0200B42B0020C4
:106B400002E008C8121F08C1002AFAD17047704736
:106B5000002001E001C1121F002AFBD17047000094
:106B60000121202803DA81400548014003E0402844
:106B700002DA2038814009B10120704700207047B7
:106B8000FC06FFBD2DE9F04116460F4604460025E0
:106B900003E03946B047641C6D1C20780028F8D10A
:106BA0002846BDE8F08190F82400012801D01F207C
:106BB0007047EE20704710B501220221002001F03D
:106BC000D9F908B1072810D107220221012001F0CC
:106BD000D1F908B1072808D100210A22084601F09E
:106BE000C9F908B1072800D1002010BD022001F02A
:106BF000CBB8000070B50024064D06E0686801219E
:106C000010F8340003F028FF641C28788442F5D380
:106C1000002070BD482B0020F8B516460C460546EE
:106C20000A2A01D20720F8BD04F010F818B903F0C1
:106C3000D3FF0028F7D1134F102113487D603C701B
:106C4000BE60FFF72CFC0020C7E904000F4E0DE0EA
:106C500005EBC4003168009181788DF8011000784F
:106C60000B4A694603F048FF0028DCD1641EE4B2F9
:106C7000EED2BDE8F84005480021064A001D00F0AC
:106C800087B80000482B0020803C00202CC4020064
:106C9000718C02007587020072B603F0F7FA00BF2C
:106CA00003F040F90028FBD111481249401AC408EA
:106CB000012000EB044010A103F050FA11480068D5
:106CC000C00700D000BE022000EB04400EA103F07C
:106CD00045FABFF34F8F0B48E43801680E4A01F4C0
:106CE000E06111430160BFF34F8F00BFFDE700007B
:106CF00040CF0200E0CE0200466174616C206572F4
:106D0000726F7200F0ED00E053797374656D20725C
:106D100065736574000000000400FA050EB50021DB
:106D20000091CDE901106A4644F20100FFF7B4FF7B
:106D30000EBD10B58268C368934203D001F004FF12
:106D4000002010BD052010BD29B112B1531E134201
:106D500003D0092070470E20704701608380002116
:106D60008160C1600846704710B58268C3689A1A8E
:106D700083889A4203D801F0F1FE002010BD042060
:106D800010BD0000014801F05CBD0000682B002030
:106D90003AB100680129426100D000210161002060
:106DA000704707207047000038B511480823582263
:106DB000416800910F49006802F067FB002815D177
:106DC0000D4A69460D4801F041FD04000ED1012134
:106DD0000A4801F0B6FD0123094A1946074801F0A7
:106DE00008FD0649012008390870204638BD00001A
:106DF00034C40200A03C0020B9B60200682B002079
:106E0000FFFF7F0070B50446007F0D4608B10020EB
:106E100070BDA26101F012FF401941F10001C4E907
:106E20000201206900B125612146BDE870400020C3
:106E300004F01EBF014600200877012004F018BFAF
:106E400070B50A4E01460A48B578FFF772FF04464E
:106E50004DB10020B070711C0122C81D02F0B2FDBE
:106E600008B1FFF75BFF204670BD0000842B0020B7
:106E7000F83C0020F0B5244E89B01F460D000446B2
:106E800072603FD0A888296882B22048FFF75CFF73
:106E9000002835D1A889A96882B21C481030FFF7B4
:106EA00053FF00282CD1202219496846FFF7DEFA4B
:106EB00060690690207C00B101208DF814008DF8E7
:106EC0001C70607C00B10E208DF81500E068029007
:106ED000A068039020680190606800900A480D4AFD
:106EE0006946083002F03AFD002809D1B0702068E8
:106EF000401C05D004490122491CC81D02F062FD56
:106F000009B0F0BD0720FBE7842B0020F83C0020EF
:106F100048C402008DBD020010B501461048FFF7BD
:106F200023FF040019D10F480F4A0178515C19B1B1
:106F3000001D04F01DF902E00C3003F0F3FF60B90E
:106F4000084907480839FFF7F4FE30B9054901221E
:106F50000839044802F046FD0446204610BD0000F2
:106F6000083D00208C2B00202C2B002030B5EFF3A7
:106F7000108172B60D4A9468012324B10370002970
:106F800000D162B630BD93604FF0E023D3F880515A
:106F9000074C25401560C3F88041D3F88441546004
:106FA0005A17C3F8842100220270E8E7183D002038
:106FB000FC06FFBD0B498A68002A11D000280FD1BA
:106FC000EFF3108072B60B684FF0E022C2F8003188
:106FD0004B68C2F8043100228A60002800D162B6F2
:106FE00070470000183D00202DE9F0410646086872
:106FF0000C46411C4FF0A0474FF0010506D005FAA2
:1070000000F1C7F80815206802F05CFE6068411CBA
:1070100002D0002102F044FE3168A069C1F82405C5
:10702000607D227D31681043C1F86C05D4E90012FF
:107030003068C0F81425C0F80C15207D012815D142
:10704000A068411C02D0002102F02AFEE068411C29
:1070500005D08540C7F80855E06802F033FED4E952
:1070600002123068C0F80825C0F81015BDE8F0819C
:107070002DE9F041064608680C46411C4FF0A04738
:107080004FF0010506D005FA00F1C7F80815206891
:1070900002F022FE6068411C02D0002102F009FECD
:1070A0003168A069C1F82405607D217D32680843FC
:1070B000C2F86C05D4E900123068C0F80C15C0F8AD
:1070C0001425207D012815D1A068411C02D0002183
:1070D00002F0EFFDE068411C05D08540C7F8085577
:1070E000E06802F0F9FDD4E902123068C0F8082522
:1070F000C0F81015BDE8F08170B51500044609D040
:107100000020286034B1206820B1A079800703D026
:10711000072070BD0E2070BD084600F023FBC0B2F2
:10712000142804D02179814203D8042070BD0520A1
:1071300070BDE288216800FB02102860002070BD4D
:107140002DE9FC47002517880646158090F82D008C
:107150001446894630B13A462146484600F016FBAF
:10716000051E09D1B0784FF00C0A18B32088C84624
:10717000001DB84202D95046BDE8FC87684679DF59
:107180000028F9D12088032108F80010208819214F
:10719000401C80B2208008F800102088401C80B27B
:1071A000208000EB0801BDF8000004F090FF21886A
:1071B00008442080F0780222C8B1218896F9033073
:1071C00001F1030C4846BC45D5D8425421884FF004
:1071D000010C491C89B2218000F801C02188491C9A
:1071E00089B2218009F801302088401C2080706815
:1071F000B8B1218890F9003001F1030C4846BC4534
:10720000B9D8425421880A22491C89B221804254AB
:107210002188491C89B2218009F801302088401C4E
:107220002080308950B1CDE900474B46062202212B
:1072300006F1080005F00CF8051E9DD1308A50B10A
:10724000CDE900474B460722032106F1100004F068
:10725000FFFF051E90D1308B50B1CDE900474B4662
:107260001522142106F1180004F0F2FF051E83D147
:10727000306A30B13B462246494601F0B0F9051E5E
:10728000DBD1706A30B13B462246494602F020F815
:10729000051ED2D196F82C0038B13B46224649460D
:1072A000304604F06DFB051EC7D1307838B13B463F
:1072B00022464946304602F095F8051EBDD12846C3
:1072C0005AE718B504460020ADF8000013466A4698
:1072D000204600F006F8002802D0BDF80000204447
:1072E00018BD70B5E0B1DAB1002402E0045D2C44B1
:1072F000A4B2651C8D4206D21688A642F6D806199D
:1073000076789E42F2D18C420AD2A31C005D9BB2D9
:1073100000B1401E0004000C02D01C188C4201D9A0
:10732000002070BD138070BD80F8301070472DE9CB
:10733000F0410D00044606D02CB195F87A000026E5
:10734000012803D006E00E20BDE8F08195F89800F2
:10735000012829D0D5F8A000042825D0D5F89C0014
:10736000042821D04FF00108A6702C2205F17801E5
:10737000201DFFF77BF884F83060D5F8A400606327
:10738000D5F8A800A0634FF6FF70A4F8240404F514
:107390008260C4F82004C4F82664A4F82A6484F83F
:1073A0002C64207810B104E00720CDE7FF2084F89A
:1073B000540004F155072046C4F81074FFF7F3FB9E
:1073C000A4F8140404F2144239462846FFF7B8FE24
:1073D0000028B9D104F23120C4F818042046FFF780
:1073E000E2FBA4F81C0404F21C4205F13C00D4F8B2
:1073F0001814FFF7A5FE0028A6D184F85180208B31
:10740000A4F8480084F83C80266484F850606069E1
:1074100000216064454604F13C02781E72DF0028BA
:1074200092D1257090E710B50288102A1BD0112A3E
:1074300020D0262A1DD1007A0C46012801D002282E
:1074400017D1A0780521401CB0FBF1F201FB12011D
:10745000204600F03AF800280BD0A16B002908D094
:10746000BDE810400847C27B012A02D18088A1F8FC
:10747000240410BD0C46002184F82E148088B4F832
:1074800024148842F5D120790028F2D10121DFE7C8
:1074900010B5044690F8540074DF012084F82E04DF
:1074A000002084F8300484F850000621204601F0C2
:1074B00063FB002808D1A178204600F006F810B13F
:1074C000A16B01B18847002010BD2DE9F05F044693
:1074D00000780F4698B1A7700025C4F82654A4F888
:1074E0002A5484F82C54A079012608B1012F09D020
:1074F000E07980B1012F05D0022F03D00BE00820E6
:10750000BDE8F09F616B21B184F82D6408208847A5
:1075100001E084F82D5404F2274100200A5C0AB1EE
:10752000304603E0401C0628F8D300204FF0020844
:107530004FF0030B012F06D0022F0CD0032F0FD0DA
:10754000042F15D110E0A17929B194F8241011B9B4
:1075500008B130460DE0E17911B108B1404608E0CC
:10756000207A08B1584604E0607A08B1042000E0AF
:107570002846A070616B41B1032801D0042804D1D2
:10758000607910B194F82E0498B184F82F5404F166
:107590003C0018210746FEF782FF84F83C6004F1A6
:1075A0002C0003F081FF58B194F82C0084F85100AE
:1075B00008E084F8305484F82F6407208847E6E711
:1075C00084F8516094F8240058B104F1280003F0C5
:1075D0006BFF20B194F8280084F8520001E084F891
:1075E000526084F85050A27804F2264104F5826972
:1075F0004FF0060A052A64D2DFE802F07C030F226E
:10760000420084F83160C4F82054C4E9101584F8AD
:107610003C808020A4F8480055E084F8318094F83C
:107620002420384612B10722027001E080F800B031
:10763000228A8281C4F820544160E168B96042E046
:107640006069B860208BB88194F824003D4600281A
:10765000204602D084F83CA001E084F83C6004F0AD
:10766000C9FD50B185F814800421204601F084FA48
:1076700038BB052184F8311021E084F831B01EE0D8
:10768000E069B860208CB88194F824003D46002859
:10769000204602D084F83CA001E084F83C6004F06D
:1076A000A9FD48B185F814800421204601F064FA50
:1076B00038B984F831A002E0042084F83100C4F81D
:1076C0002094A07878B13A4604F15400D4F82014FC
:1076D00072DF00287FF414AF94F8301094F854004F
:1076E00073DF0028F6D1616B11B194F8310088473F
:1076F000002005E784F83150F5E7000070B504007C
:1077000012D001461C221448FEF7B0FE1248134D59
:107710000560206850B17ADF002806D12068016832
:1077200029604068686005E00E2070BD0B487BDF73
:107730000028FAD108484FF6FF711438084A20F89B
:10774000041B0549343901600021FFF721FB0028A3
:10775000EBD0032070BD0000043B0020242B002050
:107760008DC1020010B5044600F006F808B12046AD
:1077700010BD142010BD0000142801D30020704754
:107780000146014801F0CBBE243B00207CB50546F4
:1077900008880C460930904201D90C207CBD68460F
:1077A0006DDF0028FAD121880820685420881B2129
:1077B000401C80B2208029542088401C80B2208048
:1077C0002844DDF801100160BDF805108180208893
:1077D000801D80B220809DF80010490800D0012152
:1077E00029542088401C208000207CBDF8B52B4DFA
:1077F000018804466E8821293BD015DC2848294A97
:107800001029A0EB02004FEAD0004FF0030202EB78
:10781000004013D0112925D0132929D100231A465D
:10782000852130467FDF17E03B2932D052292AD00C
:1078300056291DD18088132176DF0DE01AA102F0B0
:107840008DFC072000F0B8FB08B1FFF767FAA188AC
:107850006980184801F0C0FF002809D0BDE8F84051
:10786000FFF75CBA14A102F079FC4FF6FF70688054
:10787000F8BD00200090A08869468FDF0028F7D06F
:10788000FFF74CFAF8BD00231A4619463046B1DF1F
:10789000E2E78088132176DFDEE70000E02A00209F
:1078A00040CF0200E0CE0200436F6E6E65637465E8
:1078B000640000001C360020446973636F6E6E65BF
:1078C000637465640000000010B51A4C018860689C
:1078D00010290ED011292BD1401E606028D1FFF74E
:1078E0006AF9002824D02168002921D0BDE8104081
:1078F0000847D0B900210122084600F03BFB08B13F
:1079000007280FD107220221012000F033FB08B124
:10791000072807D104220221002000F02BFB20B110
:10792000072802D0216801B188476068401C606068
:1079300010BD00001C2B00202DE9F04701883B4EB4
:1079400040F2F3194FF6FF7510291BD011293ED0D4
:10795000122954D0502946D1C188F289841D914200
:1079600041D1618902293ED18688304601F09EF9D5
:10797000050038D004F10C0000F0C1F9A8B3294685
:1079800030464EE0C17B8788044601292BD1A846AA
:10799000284601F08BF9050017D02F8000202872AF
:1079A000234843464A460168C5F80A104068C5F8AE
:1079B0000E0004F1100105F10A0001F033FA6872BB
:1079C000F08900280FD129462AE0042013E080889E
:1079D00001F06CF9040006D06068FFF72BFA08B1DB
:1079E00003F09EFF2580BDE8F087FFE76868FFF79A
:1079F00021FA0028F7D0BDE8F04703F091BF87884F
:107A00000646384601F052F90400ECD02B464A46AF
:107A100006F1080104F10A0001F004FA607221463F
:107A20003846BDE8F04700F021BE0000043B0020CE
:107A3000242B00202DE9F04F044686880188424817
:107A400097B0834610290CD0112950D01030192935
:107A50006AD01A2974D1217A0C09042C4DD3012241
:107A60004CE0394D083DA868C0430B9069680BA8ED
:107A700001F076FD0B990CA800F092FD2C220CA9C8
:107A80006846FEF7F3FC0027E946A84610E000BF71
:107A900009EB47005FF00005B0F804A008EB850093
:107AA0005146001D01F030FD6D1C1E2DF6D37F1CCC
:107AB0000098B842ECD8142E05D317B00420BDE8C6
:107AC000F04FFFF72BB93146584601F033FD3146F0
:107AD00008F1040001F02EFDE07B022830D117B040
:107AE0003146BDE8F04F1848001D01F023BD17B026
:107AF0003146BDE8F04F01F007BD0022314601F0EC
:107B000036F8032C01D3012200E000220E48314652
:107B10000C3001F02CF8022C01D3012200E00022ED
:107B200009483146083006E0217A002908D1617AF7
:107B3000C1F3C002314617B0BDE8F04F01F017B8ED
:107B400017B0BDE8F08F0000283B0020F0B585B0ED
:107B500016460F4604001D4614D004AA1946606953
:107B6000FFF7CAFA00280BD1A5F57F40FF380BD0EC
:107B7000049848B1007848B13088F42808D9072023
:107B800005B0F0BD0E20FBE70520F9E70820F7E778
:107B900000200090019002900390A088ADF80000B2
:107BA00001208DF80200CDE9026769462846AEDF64
:107BB000E6E7000070B5334D04008EB02DCD08AE61
:107BC00086E82D005BD0E9B30868A061214608A8CB
:107BD00062DF002851D1207801258DF83200ADF800
:107BE0003050A21C0CA92846A8DF002845D120212E
:107BF0006846FEF754FC0220ADF8000020788DF8AE
:107C000002008DF80C509DF80D00F426ADF80460CC
:107C100040F00C008DF81150ADF806508DF80D00B5
:107C20008DF81250608804F10C02694600F0C2FB26
:107C3000002822D120216846FEF731FC0320ADF850
:107C4000000000E01BE020788DF802008DF80C5059
:107C50009DF80D008DF81150ADF8046040F0100053
:107C60008DF81250ADF806508DF80D008DF81350B8
:107C70006088221D694600F09DFB0EB070BD0E208D
:107C8000FBE7000010C4020070B588B0044600296C
:107C900027D0002C25D008462188102923D0502930
:107CA00027D057291DD10546A188406906AAFFF7AC
:107CB00023FA002815D1069E3078002811D0A86933
:107CC00000280ED018216846FEF7E9FB01208DF848
:107CD00000000195A088ADF808000396A9696846E0
:107CE000884708B070BD08B02146BDE8704003F079
:107CF000B9BA08B02146BDE8704003F093BB0078E4
:107D000000F00100704700000149085C7047000066
:107D1000C6C302000649095C4FF0A040D0F8100528
:107D2000C84010F0010000D0012080F00100704731
:107D3000C6C302002DE9FC410646C0074FF000050E
:107D40000ED0104F00240122385D0095002311460B
:107D5000019501F05DFF641C042CF4D300F046F89B
:107D6000B0070DD5074E0024361D0022305D0323D9
:107D700000951146019501F04BFF641C042CF4D3CF
:107D8000BDE8FC81C2C3020007490B5C4FF0A04173
:107D9000D1F804250120984020EA0203C1F80835F3
:107DA0001040C1F80C057047C2C302000249085CCC
:107DB000012101F0D2BF0000C2C302000249085CE9
:107DC000002101F0CABF0000C2C302000649095CDD
:107DD0004FF0A040D0F80405C84010F0010000D0DA
:107DE000012080F001007047C2C3020010B50024DA
:107DF0002046FFF7DBFF641C042CF9D310BD10B53F
:107E000000242046FFF7DAFF641C042CF9D310BDD0
:107E100010B50246064B4FF0FF3000215C5C9442E7
:107E200001D1084610BD491C0429F7D310BD00003C
:107E3000C6C3020070B50C4E0C004FF00005306058
:107E40000BD0012000F06AF808B1022004E0002005
:107E500000F064F800B10B202070706810B9FEF7D4
:107E6000AAFE0546284670BD1C2B002010B5002038
:107E700000F0DCF908B1062806D1012000F0D6F99F
:107E800008B1062800D1002010BD00002DE9F04700
:107E90000D468146FFF7BCFF0446042836D2DFF8C2
:107EA00074801B481C4EA8F10C0725B3012D0ED081
:107EB000022D2BD104EB440030444578002D25D011
:107EC000B968002922D02846BDE8F047084704EBEE
:107ED0004401755C0E44717849B10E4A4FF48041FB
:107EE000093A8068FEF78EFF08B987F80390B178E9
:107EF00008F80410E2E78068FEF79CFF04EB4401F9
:107F0000314418F804008D78A842D7D0BDE8F08736
:107F1000CCC30200182B0020A03A0020042801D274
:107F2000FFF7F8BE002070470146104810B54088A2
:107F3000042907D007290ED00A2915D1BDE8104021
:107F400003F07ABD132176DF0CE000280CD0BDE8E9
:107F50001040FEF7E3BEA0F57F41FF3904D104488D
:107F6000FFF796FA0828F0D110BD0000E02A0020A3
:107F70002836002070B50023042810D20D4D00EBE8
:107F80004004012A02D101290CD00022094E00EB45
:107F90004000304461B1012906D0022906D00723F0
:107FA000184670BD0E30C2B22A55F9E74270F7E7A5
:107FB0008270F5E7A03A0020044A014600201279B9
:107FC000D20702D0084600F04DB870470C2B0020B5
:107FD00070B506461E480024C0E90161B00720D5EF
:107FE0000025012211462846FFF7C4FF6D1C0446F8
:107FF000042D02D2002CF4D013E094B940F23332B5
:1080000004211448FEF708FE04000AD1FEF7F2FD31
:10801000040006D10F48104A0021001FFEF7B8FEE9
:108020000446F00712D00120FFF784FE74B9094816
:108030000A4A00210C38FEF7ABFE040006D10548C1
:10804000074A01210838FEF7A3FE0446204670BD0A
:108050000C2B0020D8C3020039830200998E020045
:10806000ED6B02002DE9F05F6E4C0546002660784E
:10807000B34618B184F801B000F0F6FE6A4F4FF431
:108080007A694FF4C87A4FF00108182D69D2DFE8F9
:1080900005F00C1313384754696E727B727BC584EC
:1080A00084848484B3B6B9BCC5C500F0DDFE3868ED
:1080B000FEF7C0FE06465CE00020FFF787FE0028C2
:1080C0004FF0000008D0FFF771FE022D02D14FF4EF
:1080D000E16008E0484606E0FFF770FE022D01D19E
:1080E000C82000E05046410CC0034FF47A7280185B
:1080F00041F10001257052000023FEF773F901469B
:108100002AE00020FFF762FE00284FF0000004D0B4
:10811000FFF74CFE4FF44870E5E7FFF74FFEDFE74F
:108120000020FFF753FE00284FF0000002D0FFF7B9
:108130003DFECFE7FFF742FED4E70020FFF746FE03
:1081400000284FF0000002D0FFF730FE01E0FFF7FB
:1081500035FE257040F6CD4100223868FEF752FE0C
:10816000064646E00020FFF70FFE257008E00020DD
:1081700051E025703DE084F801800120FFF704FE06
:10818000002240F26661E8E784F801800120FFF7F1
:10819000FBFD00224FF40051DFE77868FEF74AFE4E
:1081A0000646D5F1110000D02EB10220FFF7FEFDEA
:1081B00084F802B01DE0012816D980B2C8214843D6
:1081C000C117C90341EA5041C0034FF47A728018C5
:1081D00041F1000152000023FEF704F9014600229C
:1081E0007868FEF70FFE06460220FFF7E7FD84F8E9
:1081F00002803046BDE8F09F00F036FEB9E700F09F
:1082000033FEB4E700F030FE04E000F02DFE002065
:10821000FFF7D4FD0120FFF7D1FDAAE7FFF7EFFD3F
:10822000A7E700000C2B0020CCC30200012104F0C2
:1082300076B800002DE9F84F0546861C00208DF821
:10824000000091460F464FF0010A6846FEF78EFE89
:108250001B4C04F21C4860683860D4E90101194FD6
:10826000401A3968081A0EE00121404601F072F9FF
:1082700000F028FE0146404601F06CF9D4E9010106
:10828000401A3968081A401C8642EDD8B9F1000F2F
:1082900003D0052065F3891002E0062065F39F50A6
:1082A00061683A68114004EB8101C860606830443D
:1082B00060609DF80000FEF77DFE5046BDE8F88F37
:1082C000C83E0020C42B002070B50D4604460A2984
:1082D00002D10D21FFF7F8FFA0682268411CA160C0
:1082E0001554D4E90101814204D32046BDE8704011
:1082F00001F095BB70BD0000044881684068814270
:1083000001D101207047002070470000C83E0020C6
:10831000034630B5074800210478426806E000BFF4
:1083200002EBC10005789D4203D0491CA142F7DB56
:10833000002030BD482B002000780221FFF7A6BDA9
:1083400005494FF0FF32082841F8202002D30844A5
:1083500080F8482070470000B03B0020F0B54FF097
:10836000FF3512B10023082601E008230C260C4C2F
:1083700005E000BF54F823707F1C04D05B1CB3429F
:10838000F8D32846F0BD26185DB286F8305044F880
:108390002310002AF5D1E11881F84800F1E7000028
:1083A000B03B00200249084490F9300070470000BB
:1083B000B03B00202DE9F0438146887891B090468B
:1083C0000C4600B901208DF83E002088ADF83C0035
:1083D00000250095607C694603F016FB6E46A07C84
:1083E000711C03F011FBE07B00289DF8020002D015
:1083F00040F0080001E020F008008DF80200217C28
:1084000011B140F0100001E020F010008DF80200E2
:10841000217B11B140F0010001E020F001008DF856
:108420000200217D09B1022100E0012161F3420037
:108430008DF802001C2102A8FEF731F8607BC1060E
:1084400001D4800617D50E950EAFE07C791C03F0A1
:10845000DBFA9DF83800079720F00F00401C20F051
:10846000F00010308DF838009DF83A0020F006003A
:10847000801C8DF83A00607B8DF80800A07B8DF899
:108480000900142109A8FEF70AF80FA8CDE909068A
:10849000A088ADF83000A06820B1E088ADF82C00CD
:1084A000A0680D90A06998B301950088ADF8100000
:1084B000A06901AD01A94088ADF81200A06940682B
:1084C00006950390A069007B03F09EFAA069691CE1
:1084D000407B03F099FAA069807A00289DF8060095
:1084E00002D040F0080001E020F008008DF80600FE
:1084F000A169C97A11B140F0100001E020F010002C
:108500008DF80600A169097A19B140F0010002E076
:108510000DE020F001008DF80600A169897B09B10A
:10852000022100E0012161F342008DF80600E069BC
:1085300000B10590434609AA02A94846AADF11B036
:10854000BDE8F08370B5084C050009D010342168EF
:10855000002907D008682060496828468847F6E760
:108560000834F4E770BD00009C3B0020054A01215F
:1085700020B1012805D19170FFF7E4BF51700020B0
:10858000FAE770479C3B002010B5D0E90234D1E9EE
:108590000220D11AA04101D3012010BD002010BD3E
:1085A00073B58CB00646002000900D9880B1002471
:1085B0006D4621460DA800F0B2FF30B1009805EBE2
:1085C000400084800098401C0090641C142CF0D360
:1085D0002C2269463046FDF749FF0EB070BD2DE9EB
:1085E000F04117880646B81D14460D46984202D938
:1085F0000C20BDE8F0813188072206290AD34FF408
:10860000486C4FF6FF73614501D9994202D17088D9
:10861000062801D21046ECE7604501D99842F9D10D
:10862000994203D0984201D08142F3D80520E85501
:1086300020881221401C80B2208029542088401CB0
:1086400080B220804119308803F041FD2188084420
:1086500080B220804119708803F039FD21880844D8
:1086600020800020C5E7FEF759BB000038B54A7AE4
:108670000F4B62B100220A725969002906D001220B
:108680008DF80020ADF802006846884738BD0A7AA8
:1086900062B19B684C68024619462046FEF7B2FB61
:1086A0000028F3D0BDE8384003F03AB95B68F1E741
:1086B000043B002070B588B0064600200590069067
:1086C000ADF81410ADF816100190029001AA05A99A
:1086D000304690DF050021D002F04AF903461148E8
:1086E00011493246401AC108012000EB01400446FE
:1086F0000E4901F03EFDBDF8042012B9BDF8060098
:1087000028B1BDF80630204609A101F032FDBDF8C0
:1087100008201AB12046164901F024FD08B0284669
:1087200070BD0000E0CE0200E0CE020040C70200B3
:10873000546865207265717565737465642054585A
:108740002F5258207061636B6574206C656E67747E
:108750006820697320746F6F206C6F6E6720627978
:108760002025752F2575206F63746574732E0000A6
:108770008CC7020070B500240F4D10E0686800EB54
:10878000C406307802F01EFA7178012901D0012167
:1087900000E000214140307800F05CF9641C28784A
:1087A0008442EBDBD5E90401084303D0BDE8704007
:1087B00003F07ABA70BD0000482B002010B50021EC
:1087C000024800F0D8FE80F3100010BDE442002003
:1087D0004FF480328A400168C1F848230068C0F82D
:1087E000082370474FF4A07202EB810189B200F0B8
:1087F000A1B92DE9F04105460E464FF4A07000EBFB
:10880000860081B228684FF48034B440984622F044
:108810007F47C0F808432868C0F84843286801F03B
:1088200059FE286800EB8600C0F840752868C0F83B
:108830004443B8F1000F02D02868C0F80443BDE8F3
:10884000F0810068D0F804057047000070B54379E6
:10885000234C44F823204279231D03EBC202224C0F
:108860001579204A121BD4082DB10825022000EBEF
:1088700004401EA130E005680A88C5F8082590F973
:1088800004208978002A4FEA411104DB02F1E0223A
:1088900082F8001405E002F00F0202F1E02282F8F3
:1088A000141D90F904100122002909DB01F01F05B5
:1088B00002FA05F54909890001F1E021C1F80051EA
:1088C0004179002503EBC1010A71417943F8310078
:1088D000032000EB04400EA101F040FC284670BDCF
:1088E000A02B002028CF0200E0CE020052544320EB
:1088F000696E7374616E636520616C726561647921
:1089000020696E697469616C697A65642E00000083
:108910005254433A20696E697469616C697A65647E
:108920002E00000090F90400002809DB00F01F026F
:10893000012191404009800000F1E020C0F80012C0
:1089400070470A46022100F07BB84FF4827100F0B4
:10895000F1B80068012101607047006801214160A1
:1089600070472DE9F05F07460C464FF4A07000EB0E
:1089700084001FFA80FA38684FF48036A6409B4680
:1089800022F07F45C0F848633868C0F8086338684B
:10899000D0F8048500EB8402D2F84095C2F84085F7
:1089A0005146386801F096FDA9EB080020F07F40A1
:1089B000012806D1102002F047F85146386801F02E
:1089C00089FD3868D0F80485C0F84463A5EB080138
:1089D00021F07F413868012900EB840010D0C0F8F5
:1089E00040553868D0F804156FF07F4C6A1A521E53
:1089F00022F07F42ACEB0B03934217D362B118E035
:108A00006D1CC0F84055102002F01EF83868D0F8F0
:108A1000040540450AD10CE000EB84006D1CC0F851
:108A200040553868D0F80405884202D00D20BDE8D2
:108A3000F09F01223146384600F002F80020F6E7A8
:108A40000368C3F84413002A02D00068C0F8041376
:108A5000704700002DE9F84F0E463449804601EB7F
:108A60005001C007097801D00F0901E001F00F079C
:108A70004FF00009424601204946FDF7E4FCDFF8CB
:108A8000B0A004460D46052F4ED2DFE807F00316CE
:108A90001B282C00002E47D00121404603F01EF871
:108AA0008DF800906846FEF761FA5046D0E904124E
:108AB0000C431543CAE9044532E00EB1022114E02B
:108AC000002112E04EB10321404603F007F8404672
:108AD000BDE8F84F012103F0ABBB012105E0002EFA
:108AE00022D1042101E02EB103214046BDE8F84F18
:108AF00002F0F4BF0021404602F0F0FF00214046A2
:108B000003F096FB8DF800906846FEF72FFA50466A
:108B1000E243D0E904341A4024EA0501CAE90421F9
:108B20009DF80000FEF746FABDE8F88F803C002073
:108B3000482B002010B5006842581AB101F0CAFC59
:108B4000012010BD002010BD826883881A40036890
:108B50009A5C0A708168491C81607047C26883888A
:108B60001A4003689954C168491CC16070470AB132
:108B700000F0E0BC00F0C8BC70B50D460446B0F88B
:108B80001414D0F810040122FEF79BFB00B105700D
:108B900004F13C0204F5826104F1540072DF70BDFF
:108BA00010B50446C0B2FEF7B7F9204610BD00006C
:108BB0000C484A8843889A4213D10A88A2F5206358
:108BC000773B0ED18988C91E8AB282800648074940
:108BD0001346401AC008032101EB004004A101F034
:108BE000C8BA7047E02A002040CF0200E0CE020061
:108BF00044617461206C656E206973207365742014
:108C0000746F2030782558282564290010B509494B
:108C1000094800F027FD08B1FEF780F8F721064863
:108C200000F014FD002803D0BDE81040FEF776B830
:108C300010BD0000B18B02000836002010B50B48B3
:108C4000FFF7FFFD094A083AD2E90434C018D2E917
:108C5000063244F10001C31A71EB020204D24FF054
:108C60008072801841F1000110BD0000682B0020C7
:108C700010B5C0B2FFF74CFB0446007801F0A2FF2C
:108C800001466078012801D0012000E0002090EA30
:108C9000010F08D00449D1E90401084303D1BDE81C
:108CA000104003F001B810BD482B002001460348D6
:108CB00002888A4200D0002070470000F03A00206D
:108CC0002DE9FC5F0E008346DDE90C47C6F100008C
:108CD00098469246814600D40846012503E000BF2D
:108CE00090FBFAF06D1C5045FADAA84500D94546CC
:108CF00024B1002E01DB780700D5641EB80702D529
:108D0000B8F1000F0AD0F80708D13CB1A54205D24E
:108D100020215846641EFFF7D7FAF6E7002E02DA44
:108D20004E462D2102E0780703D52B215846FFF748
:108D3000CBFA07F0030002280BD1B8F1000F08D1DD
:108D40003CB1A54205D230215846641EFFF7BCFA5B
:108D5000F6E7CDE90047434652463146584603F010
:108D6000BBF9BDE8FC9F000070B50D4604460068E5
:108D70004FF4887101F01CFE4FF49071206801F0EF
:108D800017FE4FF49271206801F012FE4FF4A271A9
:108D9000206801F00DFE4FF4AC71206801F008FE70
:108DA00020681249C0F804132068690740F30730AF
:108DB000090E002804DB00F1E02080F8001405E033
:108DC00000F00F0000F1E02080F8141D206840F34F
:108DD0000730002809DB00F01F0201219140400903
:108DE000800000F1E020C0F8001170BD10034200C7
:108DF000024600201268530713D502F00300012831
:108E000002D002280CD105E0C2F383100B68801C4D
:108E1000184404E00223086803EB925210440860EF
:108E200001207047F0B58488A518944200D82246E6
:108E3000A41AC288D6189A4200D81346D21A4B8870
:108E40000788BB420CD34088834209D88888A04257
:108E500006D3A84204D8C888904201D3B04201D9B1
:108E60000020F0BD0120F0BD0A4810B5807860B147
:108E7000002401E0022C06D02046FEF797FF641C78
:108E8000042CF7D310BD0324F6E7BDE81040FEF72D
:108E9000ADBF00000C2B002003480179C90702D0A8
:108EA0000078FFF7DFB870470C2B0020F721018016
:108EB00017214180002101714171FB2181711B212A
:108EC000C17170472DE9FF410026244800F03FFBA7
:108ED0002248001F074600F03AFB214C2149A068B8
:108EE00000900D6800E000986946284004EB80007F
:108EF0000C30FFF77DFF0028F5D101AA009901EAA7
:108F0000050304EB8303491CDB6842F82030401C56
:108F100000910228F2D3019800F0030001280BD041
:108F2000022810D10198032101EB90500099BDF85F
:108F30000A6001EB900005E00198BDF80A60C0F3FB
:108F4000831008440090384600F0FEFA08B10098FB
:108F5000A06004B03046BDE8F0810000E04200208F
:108F6000C83E0020C42B0020F8B018228049684673
:108F7000FDF77CFA7F4806907F494FF48060CDE989
:108F80000701099007237D4A06A96846FDF772FF8D
:108F900008B1FDF7C3FE4FF48041002001F04AF90B
:108FA00008B1FDF7BBFE00F0AFFFFDF7FDFE08B115
:108FB000FDF7B4FE72490320FFF70AF808B1FDF788
:108FC000ADFE69460020FEF735FF08B1FDF7A6FEAD
:108FD00001F03AFA08B1FDF7A1FE01F0EBFB08B190
:108FE000FDF79CFE002469460120009401F082FAFE
:108FF00008B1FDF793FE684601F014FB08B1FDF7D8
:109000008DFE9DF808005FA120F00F00401C20F0AD
:10901000F00010308DF808000A2202A87CDF08B1A9
:10902000FDF77CFE00941020ADF800003C20019478
:10903000ADF80200ADF804404FF4C870ADF806007A
:1090400068467ADF08B1FDF769FEFFF7DFFD50489B
:10905000019001A94F4800F0CAFB08B1FDF75EFE80
:109060004D48009069464D48FEF7A4FD08B1FDF754
:1090700055FEAC216846FDF712FA02208DF800007B
:109080008DF8024005208DF803000120ADF84C005A
:1090900042498DF87C004020091F2290149144F22F
:1090A000506023903E4829903A4869460C30FEF7BC
:1090B0003EF908B1FDF732FE364801210C30FEF7CB
:1090C00033F91C216846FDF7EAF94FF4A030CDE9E9
:1090D00000404FF4F02002903248059003253248BA
:1090E0008DF80C500690ADF80E408DF81040684693
:1090F000FEF704FB08B1FDF711FE2CA0FDF718FDEB
:109100002F483049401AC00805EB00402EA101F05D
:1091100025F8204803210C30FEF7D7F908B1FDF7F8
:10912000FDFD2C2233A140A8FDF7A0F92C223CA183
:109130004BA8FDF79BF92C2244A156A8FDF796F900
:109140002C224DA161A8FDF791F92C2255A16CA804
:10915000FDF78CF90649542218312BA8FDF786F942
:1091600000F0E0FE0028FBD101F082F9F8E70000F2
:1091700058C30200142D00201431002015BD020038
:10918000297F02006E524635325F4A6F6E610000E1
:10919000B5A402001C3600208DB10200EC2A00208C
:1091A00025B2020049B20200678602000D0A55414D
:1091B000525420737461727465642E0D0A000000AD
:1091C00040CF0200E0CE02004465627567206C6FFC
:1091D0006767696E6720666F722055415254206F31
:1091E0007665722052545420737461727465642ED3
:1091F00000000000616161616161616161616161E3
:10920000616161616161616161616161616161614E
:109210006161616161616161616161610A000000B8
:10922000626262626262626262626262626262621E
:10923000626262626262626262626262626262620E
:1092400062626262626262620A0000006363636378
:1092500063636363636363636363636363636363DE
:1092600063636363636363636363636363636363CE
:10927000636363630A000000646464646464646438
:10928000646464646464646464646464646464649E
:10929000646464646464646464646464646464648E
:1092A0000A000000656565656565656565656565F8
:1092B000656565656565656565656565656565655E
:1092C0006565656565656565656565650A000000D8
:1092D00070B5144682880E4605462088111D01444B
:1092E000921C994201D8FE2A01D90C2070BD521C53
:1092F00032542088FF21401C80B2208031542088C5
:10930000401C80B220808119288802F0E0FE21886C
:10931000084480B22080AA8842B1A96841B1304493
:10932000FDF7A4F82088A98808442080002070BD9B
:10933000072070BD2DE9F047C5881E1DB6FBF5F767
:109340008946B6FBF5F1044605FB176C40791668B3
:109350006843DDF820A0F718001F874200D9C61A1D
:10936000166001E02468491E0029FBD1A5EB0C071B
:109370008846B74216D818E004EB0C00001D09EB34
:109380000803BAF1000F3A4602D00146184600E041
:109390001946FDF76BF82468F61B4FF0000CB84433
:1093A000B54201D9374600E02F46002EE4D1BDE892
:1093B000F087000030B5024651B100F04FFF0021A8
:1093C000074C08E034F821301568AB4202D1116037
:1093D000002030BD491C8142F4D3052030BD00007F
:1093E00000000000F8B50F46017814460546012933
:1093F00001D1687830B12088821C9A4232D8012984
:1094000002D006E00720F8BD69780144891C994222
:1094100028D8181A801E86B2ADF800602188B81CC2
:10942000084469467DDF0028EDD12978022904D05F
:109430006878BDF80020904205D3BDF80000B04226
:1094400001D809200AE00820012905D16978B14234
:1094500002D8ADF8001001E0ADF80060BDF80010D2
:10946000FE2901D90C20F8BD2288491CB954218855
:10947000491C89B2218078542088401C2080BDF886
:109480000010084420800020F8BD10B531B1B2FBB7
:10949000F3F403FB14241CB1092010BD0E2010BDF1
:1094A00001600021416081608281C381084610BD56
:1094B00070B50C460546FCF7ADFE002802D02188A9
:1094C0002868084470BD10B50A8849888A4203D1CB
:1094D000FCF7E2FE012010BD002010BD70B50C4667
:1094E0000546FCF7BCFE002802D0618828680844C5
:1094F00070BD10B50A8849888A4203D1FCF7A6FEE0
:10950000012010BD002010BD01F01F0301229A4070
:10951000D243490900EB8100114600F021B84A0905
:1095200050F8220001F01F0201219140084000D0B4
:109530000120704701F01F0301229A40490900EB06
:109540008100114600F01CB8002100F00FB8012185
:1095500000F016B808B56A46FCF7F3FE009808BD9F
:1095600008B56A46FCF7D3FE009808BD08B56A4600
:10957000FCF7CDFE08BD08B56A46FCF7AFFE08BD96
:1095800008B56A46FCF7B6FE009808BD08B56A46FD
:10959000FCF7E4FE009808BD38B5044600258DF8B8
:1095A00000506846FDF7E2FC216862680868904256
:1095B0000ED9401E08600178238AE26801FB03256A
:1095C000227A2168101AC0B20A79824200D2087148
:1095D0009DF80000FDF7EEFC284638BD38B505467D
:1095E00000208DF800000C466846FDF7BFFCE868D7
:1095F000298A201AB0FBF1F12A681068431C136015
:1096000001709DF80000FDF7D5FC38BD10B530B1F4
:10961000017A42680368891AC9B21A6006E00E200E
:1096200010BD03681A68541C1C601170491EC9B231
:10963000F7D2006800210171084610BDC20800F091
:1096400007030120895C98400840704728B1A1F1C8
:109650001702E12A03D3072070470E2070470180CC
:109660000020704710B560B10161F72120F8021B9E
:1096700020F8021BFB2100F8021BFFF717FC00205B
:1096800010BD0E2010BD0000F0B5858893B00C46CB
:10969000002D39D1018800263F4F24293BD006DC1C
:1096A000102909D011290CD0232958D14FE03A298B
:1096B0000BD0552953D129E00146204601F008FE80
:1096C0004DE0A01DFFF7F2FB49E02246408934F847
:1096D000061F814200D808466080172800D2172054
:1096E0006080106970B1607960B1D7E90001CDE99F
:1096F0000301ADF80E506088ADF81000136903A99E
:10970000104698476671267113B0F0BD0146204699
:1097100001F032FE23E0011D2C2206A8FCF7A6FE74
:10972000BDF81800BDF81C2004EBC0014A73226983
:10973000AAB1D7E90423CDE90423ADF81200487B90
:109740008DF814002269204604A9904707E0017AA9
:10975000207B884200D201462846FEF7ABFFA07A64
:109760000028D1D0E1882846A5DF012580B1112845
:10977000CAD001F0FDF802460848094913B0401A62
:10978000C00805EB0040BDE8F04006A100F0EABCCF
:10979000A672E572B8E70000F8C30200E0CE02004E
:1097A000E0CE020073645F626C655F67617474632E
:1097B0005F65786368616E67655F6D74755F72651C
:1097C000717565737428292072657475726E65648D
:1097D0002025732E0000000020B10278DE2A03D07D
:1097E000082070470E20704741800020704760B10C
:1097F00059B10278DE2A0AD009684160DE21017081
:109800004FF6FF714180002070470E2070470820FE
:1098100070477FB5054600294DD0002D4BD0087804
:109820000C46DE2847D1A8886188884202D12046AC
:1098300002F0ECFC2888012825D002283BD0112812
:109840003AD0512837D135F8040F6188884232D197
:10985000A978A81C02292ED1017A042903D006294F
:1098600001D0052927D10021009102228DF8002086
:1098700001914FF4C07202910391ADF80420007A77
:1098800005280FD010E0297A2046012913D1A98894
:10989000428891420FD10121017204B0BDE87040AD
:1098A00002F0B4BCADF8041028886946B0DF002887
:1098B00001D0616888477FBDA88861888842FAD155
:1098C0004FF6FF7060807FBD00F180400068002887
:1098D00000D00120704708B500F1804000210160F0
:1098E0000068009008BD000070B50D4C012520787F
:1098F00008B185260EE00020A06060602061E06075
:10990000084801F079F8064600F0A0FF08B901F018
:109910005DF8257001F052F800B1A570304670BDB9
:109920009C3B00206D85020038B500258DF8005065
:109930006846FDF71BFB084CE068401EE060E068ED
:1099400028B901F03BF810B901F066F8A5709DF850
:109950000000FDF72FFB38BD9C3B0020F0B505460D
:109960000478154889B0164640F82420124A086940
:10997000121DA2F1080742F82400487F3855202222
:109980006846FCF773FD04942878385C48B10EB142
:109990000A4A00E000226946281D01F0DBFA09B0FE
:1099A000F0BD0EB1064A00E00022694605F10C0048
:1099B00001F084F9F3E70000302B00208DBF020096
:1099C00031BE020030B40378054CE35C1BB130BCFF
:1099D000001D01F0F5BA30BC0C3001F0D9B900001F
:1099E0002C2B002030B40378054CE35C1BB130BC59
:1099F000001D01F067BB30BC0C3001F03FBA000025
:109A00002C2B00200FB408B50399002904D004AA18
:109A100000926A4600F00FF801B05DF814FB10B533
:109A200082680446002A05D0D4E9040321689847D7
:109A30000020A06010BD2DE9FC4791460C00804637
:109A400076D014F8011B39B125290ED04046FEF717
:109A50003BFC20780028F4D198F80C00002867D04F
:109A60004046BDE8FC47FFF7DABF0020012221781D
:109A70002B291BD02D2902D0302908D102E040F03B
:109A8000010001E040F00200641C002AEFD1002533
:109A90002A290ED02178A1F130020A2A11D205EB31
:109AA000850201EB4205641C303DF1E740F0040003
:109AB000EAE7D9F800100B1DC9F800300968641CEA
:109AC0000D44217800232E290BD114F8011FA1F198
:109AD00030020A2A05D203EB830201EB4203303B3A
:109AE000F3E76C290DD068290BD0692921D00BDC54
:109AF000252918D0582931D063290ED0642915D1D1
:109B000017E014F8011FECE7702969D0732932D0EF
:109B100075291BD0782909D120E0D9F80000011D52
:109B2000C9F8001001784046FEF7CEFB641C90E7B0
:109B30006CE0D9F800100A1DC9F800200968CDE9C9
:109B400000500A224046FFF7BBF8EFE7D9F80010B3
:109B50000A1DC9F8002009680A2206E0D9F8001099
:109B60000A1DC9F8002009681022CDE900504046BE
:109B700002F0B2FADAE7D9F8001000270A1DC9F896
:109B800000200E68C00705D112E04046761C7F1CFD
:109B9000FEF79AFB31780029F7D104E020214046F6
:109BA0006D1EFEF791FBBD42C0D9002DF6D1BDE779
:109BB0004EB13046FCF77EFC074604E020214046CB
:109BC0006D1EFEF781FBBD4206D9002DF6D103E0E4
:109BD0004046761CFEF778FB31780029F8D1A5E7DE
:109BE000D9F80000011DC9F8001005683021404671
:109BF000FEF76AFB78214046FEF766FB082000214D
:109C0000CDE90001034610222946B0E7BDE8FC87F4
:109C100070B541EA4201DDE904564FF0A04441EA43
:109C2000830141EA052104EB800041EA0641C0F8C6
:109C3000001770BD70B541EA4201DDE904564FF0EE
:109C4000A04441EA830141EA052104EB800041EA96
:109C50000641C0F8001770BD70B541EA4201DDE968
:109C600004564FF0A04441EA830141EA052104EB88
:109C7000800041EA0641C0F8001770BD70B541EAA6
:109C80004201DDE904564FF0A04441EA830141EA74
:109C9000052104EB800041EA0641C0F8001770BDC1
:109CA0001CB500220B46009211460192FFF7D4FF2B
:109CB0001CBD1CB500220B46009211460192FFF715
:109CC000DDFF1CBD1CB5002100910B460122019156
:109CD0001146FFF7C1FF1CBD1CB5002100910B46CA
:109CE000012201911146FFF7C9FF1CBD4FF0A042B0
:109CF00002EB8000D0F8002722F44032C0F80027A1
:109D0000D0F8002742EA0141C0F800177047000070
:109D100038B5094B44181B6800936B4608E000BF38
:109D200053F82010D1F8205520C2C1F82055401C0E
:109D30008442F5D838BD000020C4020042094FF02B
:109D4000000100D1491E00F01F00012282400A429A
:109D500001D0012070470020704701224FF0A0433E
:109D6000824011B1C3F808257047C3F80C2570472D
:109D7000034908B50844002101600068009008BD4F
:109D80000060004002494058012800D00020704780
:109D90000060004030B5154A01460020D2F810445A
:109DA00023460AE0DB681D79854205D1401C0A285C
:109DB000F6DB4FF0FF3030BD1B68002BF2D1431CA7
:109DC000F9D0CB681871D2F8103443B1DB68CC6895
:109DD0001B682360D2F81024D268116030BDC2F82D
:109DE0001014C96800220A6030BD0000C83E00207F
:109DF0007047FCF743BC704708B5034A0092402304
:109E0000024A00F005F808BD31B90200303D0020DB
:109E1000F0B595B01C4615460F4608461A9E00F050
:109E2000EDFA182109A8FCF73AFB0E96CDE9095482
:109E30000023082203A9384600F0F5FA0598069099
:109E4000BDF81000ADF81C00BDF81200ADF81E0002
:109E500000208DF821000398082600F00300012857
:109E600002D0022818D032E003983346850AC0F3A6
:109E7000C2008DF8200003980FA9C0F38314A2003C
:109E8000384600F0D0FA09A8009006AB22460FA988
:109E9000284600F00FFA1AE00398840DC0F3C200C0
:109EA0008DF82000082C01D2254600E00825334615
:109EB0002A460FA9384600F0B6FA2E44641B09ABB7
:109EC00006AA29460FA800F05DF9002CEAD1384611
:109ED00000F09AFA15B0F0BD0A4A012902EBC00061
:109EE00007D0022907D0032907D0042907D0002072
:109EF000704702207047042070470079704740790E
:109F000070470000E0CE020010B5FFF772FF042199
:109F10000348FFF73FFF02490120C968487110BD9F
:109F2000D0CE02002DE9F04F8DB0FEF7E5F918B163
:109F300000200DB0BDE8F08F7E4C4FF0000BC4F850
:109F400018B4BFF34F8F7C49A06802900D68D846C3
:109F5000284004EB80000BE0D4F8180470B9616865
:109F60000298814201D8A160E2E7284004EB80001A
:109F70000C3002A9FEF73CFF0028EDD1002005AA15
:109F8000029901EA050304EB8303491CDB6842F8EC
:109F90002030401C02910228F2D3059800F0030003
:109FA000022802D001284DD0AAE005985022810D48
:109FB0008946B2EB905F00D850210E4666F39F5061
:109FC000059008315D4800F0D0F9070078D000F026
:109FD00015FA4346082205A9384600F02CFA0299E2
:109FE00008F1080A2940681A8000001D864222D91B
:109FF000504D0C3530B1C2B204EB8101301A90469D
:10A000000C3104E02946F2B2002590462846C6B23B
:10A010005346384600F00FFA0AEB080325B13246E2
:10A020002946384600F007FA029909F1030001EBCE
:10A03000900002903BE004EB8101534632463846E3
:10A040000C31EFE70598C0F38310062800D30620F3
:10A05000059960F38911C1F38310801C059181007B
:10A06000364800F082F907004AD000F0C7F94346AD
:10A07000082205A9384600F0DEF908F10808002694
:10A080000FE00298434600EA0501401C04EB810101
:10A090000290042238460C3100F0CDF908F1040892
:10A0A000761C0598C0F38310B042EAD847B1D4F8C3
:10A0B0001054D4F8180478B1384600F0A5F934E00B
:10A0C0001EE0E8684079012804D12A68284639460C
:10A0D00012689047E8680568002DF2D1384600F014
:10A0E00093F98DF800B06846FCF740FFD4F81804E7
:10A0F00008B90298A0609DF80000FCF75BFF14E02F
:10A10000D4F8104405E02168204689688847E06853
:10A110000468002CF7D10A480A49401AC0080221F5
:10A1200001EB004008A100F019F8FEF7E5F880F017
:10A130000100FEE6C83E0020C42B002060CF0200D4
:10A1400040CF0200E0CE02004261636B656E647333
:10A1500020666C75736865640000000000231A4671
:10A1600001F0D4BC08B5012300926A4601F0CEFC90
:10A1700008BD1CB5CDE9002302236A4601F0C6FCE8
:10A180001CBD00002DE9F0470E4680461C46924655
:10A19000082940D894F80C900020207319461046E6
:10A1A00001F032FA0025B54206D218F805201BA1AD
:10A1B0002046FFF727FC03E01AA12046FFF722FC08
:10A1C0006D1C082DEFD318A12046FFF71BFC0025BE
:10A1D000B54212D218F805707E2F08D8FCF742F964
:10A1E0000068C05D10F03E0F01D03A4600E02E221C
:10A1F0000EA12046FFF706FC03E00DA12046FFF765
:10A2000001FC6D1C082DE3D301222146504601F0CC
:10A21000DDF984F80C90BDE8F0870000202530328D
:10A2200078000000202020007C0000002563000052
:10A2300020000000064910B500200870054800F015
:10A24000E1F8002803D1044800F036F9002010BDE1
:10A25000C83E002060CF020008C602000248034941
:10A26000401AC0087047000060CF0200E0CE020034
:10A2700013B56846FFF79EF808B100201CBD0248E0
:10A28000009950F831001CBDE0CE020070B50848BE
:10A290000125D0F81044057007E0E0684571216899
:10A2A000204649688847E0680468002CF5D170BDF5
:10A2B000C83E00202DE9FF4781460C9D00200C463A
:10A2C0002F7B2873984616462946184601F09CF9BC
:10A2D000072E42D2DFE806F004090F161F2A3600C7
:10A2E00049462846FFF78EFB37E049462846226854
:10A2F000FFF788FB31E0D4E9002349462846FFF701
:10A3000081FB2AE0A0680090D4E900234946284652
:10A31000FFF778FB21E0D4E90201CDE90001D4E99F
:10A32000002349462846FFF76DFB16E004F10800BC
:10A3300007C88DE80700D4E9002349462846FFF7FF
:10A3400061FB0AE004F108000FC88DE80F00D4E9B2
:10A35000002349462846FFF755FB00222946404680
:10A3600001F034F92F73BDE8FF872DE9F041058A2C
:10A3700080462D1F4819C01CB0FBF5F0C6B2404600
:10A38000FFF70AF9041E19D0002020710120607126
:10A39000E58000272546761EC4F800800BE0404685
:10A3A000FFF7FAF860B16179491C617128600546D0
:10A3B0007F1CC0F80080B742F1D32046BDE8F08191
:10A3C000204600F002F80020F8E72DE9F041457939
:10A3D00001466B1E002201E00968521C9A42FBD321
:10A3E0000F680146002605E038460C68FFF7F6F8CE
:10A3F0002146761CAE42F7D3BDE8F0810121001D55
:10A40000FFF7A8B8FFF702B910B504460121001DF7
:10A41000FFF7BCF810F0FF0F04D12046BDE8104054
:10A42000FFF7D3BF10BD1CB501920122009201AA13
:10A43000FEF780FF1CBD1CB501920022009201AA0C
:10A44000FEF778FF1CBD0000064910B500204870DB
:10A45000091D0860BFF35F8F0349044800F01AFA32
:10A46000002010BDAC2B0020A0C40200243D002021
:10A4700008B500208DF800006846FCF777FDF1EE86
:10A48000100A20F09F00E1EE100ABFF35F8F084929
:10A490004020C1F880029DF80000FCF78BFD00F021
:10A4A000D5F908B141DF08BD20BF40BF20BF08BDBE
:10A4B00004E000E0FCF732BC826800219160826811
:10A4C0001161826851618268D160826851608068E0
:10A4D0000160704708B5002242504058009008BD06
:10A4E00020B1034909680160002070470E207047C1
:10A4F0008CC602002DE9FE4307460E460846FFF7CC
:10A50000EFFF00287CD100240094019406208DF8F0
:10A5100000704FF00108ADF8040002948DF802803D
:10A5200069462020326869DF3649374A891AC908E6
:10A53000012202EB014530B100F01AFA024628462A
:10A540003249FFF70FFE00948DF801808DF802402C
:10A55000019402948DF8034069464020326869DF17
:10A5600030B100F005FA024628462949FFF7FAFD06
:10A5700000948DF80070F720ADF802000194029469
:10A5800069462320326869DF30B100F0F1F90246F4
:10A5900028462049FFF7E6FD0094019402948DF8C7
:10A5A000008069460120326869DF30B100F0E0F9CF
:10A5B000024628461849FFF7D5FD4FF4B0600090D9
:10A5C000019402946946A120326869DF30B100F03D
:10A5D000CFF9024628461149FFF7C4FD00940194C3
:10A5E00002948DF800406946A020326869DF30B1DE
:10A5F00000F0BEF9024628460949FFF7B3FD0020E6
:10A60000BDE8FE8350CF0200E0CE02002CCD020058
:10A6100074CD0200C0CD02008CCC0200D8CC020068
:10A6200038CC02002DE9F0410546076860DF80461E
:10A6300019491A482A68081AC608BA4219D90220C4
:10A6400000EB064416A12046FFF788FD20463A4657
:10A650001FA12B68FFF78DFD4FF08050D0F80C0143
:10A660002968800200F10050421A204625A1FFF718
:10A6700079FDB8F100004FF001040AD000F078F93C
:10A68000024604EB06402AA1FFF76CFD4046BDE8F8
:10A69000F0812F480470F9E750CF0200E0CE0200AD
:10A6A000496E73756666696369656E742052414DC3
:10A6B00020616C6C6F636174656420666F722074D6
:10A6C000686520536F66744465766963652E000083
:10A6D0004368616E6765207468652052414D207340
:10A6E00074617274206C6F636174696F6E2066723E
:10A6F0006F6D203078257820746F20307825782E83
:10A70000000000004D6178696D756D2052414D204B
:10A7100073697A6520666F72206170706C6963611D
:10A7200074696F6E20697320307825782E000000E0
:10A7300073645F626C655F656E61626C6528292079
:10A7400072657475726E65642025732E00000000BA
:10A750001B2C002030B51548ADF5017D0078002890
:10A7600021D04FF4FA7500BFADF8005280A96846B9
:10A7700061DF38B1052816D00DF5017DBDE8304008
:10A78000FCF7CCBA6C460A497DA800F083F806E0D5
:10A79000D0E90021204690477DA800F092F87F98EC
:10A7A0000028E1D0F4E70DF5017D30BD1B2C002021
:10A7B00090C602007CB5194C207808B108207CBDF9
:10A7C0000120A070002001F07DF8112819D0002090
:10A7D00001F090F812480026006801908DF80060A2
:10A7E0006846FCF7C3FB0F4901A810DF05000AD03B
:10A7F000002020709DF80000FCF7DCFB2DB12846FE
:10A800007CBD00207CBD0120F3E7A670667001F0DE
:10A8100033F9012001F06EF8F3E70000182C002056
:10A8200024C60200996C02000EB50749684600F084
:10A8300031F805E0D0E900108847684600F041F89B
:10A8400002980028F6D10EBD40C6020001480078EB
:10A8500070470000182C00201FB568464BDF30B150
:10A86000052814D004B0BDE81040FCF757BA0849D9
:10A8700001A800F00FF806E0D0E900210098904709
:10A8800001A800F01EF803980028E6D0F4E71FBDE9
:10A89000ACC60200016009684160AFF3008010B5EA
:10A8A000D0E900215368994201D1002104E0D1E9A7
:10A8B0000034A34202D01946816010BD08314160C6
:10A8C000F0E7816800290BD0026892680A44826030
:10A8D00041684B689A4203D108314160FFF7DFBFFE
:10A8E000704770B50D460646446804E0B2682946D4
:10A8F000904718B1246820680028F7D120682860A4
:10A90000256070BD4068006870474168086800288D
:10A9100001D002680A60704702460020526806E0D3
:10A920008B4203D108681060012070471A461368F3
:10A93000002BF5D1704700000C4A10B502F5947356
:10A940000EE0991AC91001EBD171491002EBC10157
:10A950000C68844201D90B4602E005D201F10802DD
:10A960009A42EED3002010BD486810BDC0C402005A
:10A9700000B5FFF7E1FF002800D1014800BD00004D
:10A98000ACC402004058002800D00120704708B530
:10A99000002242504058009008BDD0F804030840FF
:10A9A00000D0012070474058002800D00120704797
:10A9B00008B5002242504058009008BD0248006887
:10A9C000002800D0012070470004014008480068BA
:10A9D000012110F0010F06D14FF0E020C02280F8D5
:10A9E00000248430C16703490120086070470000DB
:10A9F00000E100E0180500400649024600200B79FE
:10AA00000BB1852070470A6001220A7100224A7149
:10AA100070470000382B0020022010B54107C1F814
:10AA200008034FF48270FEF756FF054901200860C5
:10AA300004480168C1F300410029FAD110BD0000AB
:10AA40000C00004018040040002802D00149800199
:10AA50000847704771C402002DE9F0410E460546D3
:10AA600000F03AFD0028284619D0FDF79BFC083875
:10AA700000F0A4FD032802D001280ED007E04FF01B
:10AA8000A040D0F81005E84010F0010F05D00321D8
:10AA90002846BDE8F041FFF729B90221F8E700F0A8
:10AAA00027FD002822D02846FDF77CFC04464FF401
:10AAB000807000EB84000E4F81B207EB8400D0F869
:10AAC000102542F00102C0F810250846FFF750F9A2
:10AAD000002E0BD02846FDF765FC064951F82000F2
:10AAE000002803D00120A040C7F80403BDE8F0818E
:10AAF00000600040B03B00202DE9FC41DFF8B88049
:10AB0000044608EB0400002790F930001346C017F4
:10AB10000E46401C01D008274AE0B0781946C0F321
:10AB200040022046FDF71AFC0546401C3FD0B07895
:10AB3000410717D4C0070AD04FF0A04000EB8400B3
:10AB4000D0F8001721F00201C0F8001707E000213B
:10AB50007378204600910A460191FFF76BF8204672
:10AB600000F0ACFCB078800718D51448317800EBC1
:10AB70008500D0F81025124B1A40C0F810254FF46C
:10AB8000F8524FF4403302EA042203EA01410A4337
:10AB9000D0F810150A43C0F8102509E008EB0500AD
:10ABA000327810F8481F41EA8211017000E0042752
:10ABB0003846BDE8FC810000B03B0020006000404A
:10ABC000FFE0FCFF4FF0A041D1F81015C14011F09B
:10ABD000010000D00120704770B5194D95F858005C
:10ABE00008B1082070BD0024661E2046FFF7A6F8B5
:10ABF00010B1281980F83060641CE4B2202CF4D322
:10AC000000242046FDF79CFB641CE4B20C2CF8D316
:10AC100000200D4968650B4CC02081F80004012616
:10AC20004020891FC1F800014FF4BE70FFF7A0F863
:10AC3000A004C4F8040385F85860002070BD00002B
:10AC4000B03B00200060004006E000E0034890F8C0
:10AC50005800002800D0012070470000B03B0020C1
:10AC60000121B1EB507F01D10120704700207047D6
:10AC700038B50D4600F014FD040014D000208DF806
:10AC800000006846FCF772F9207928B19DF80000B1
:10AC9000FCF790F9112038BD0120256020719DF846
:10ACA0000000FCF787F9002038BD00000149024888
:10ACB00001F0D6B80C3C0020002000402DE9F04106
:10ACC0000546007916460F4600EB40012D4A01EB80
:10ACD000C00102EB810494F82A1011B10820BDE8EC
:10ACE000F081294951F820102868FFF7C1FF08B109
:10ACF0001120F4E739462846FCF776F96660386992
:10AD0000206030004FF001062FD03F7F4FF48E714E
:10AD10002868FFF73CFE4FF4A2712868FFF737FE62
:10AD200028681A49C0F8041328684FEA471140F30D
:10AD30000730002804DB00F1E02080F8001405E073
:10AD400000F00F0000F1E02080F8141D286840F3A7
:10AD50000730002809DB00F01F0106FA01F1400965
:10AD6000800000F1E020C0F8001128680421C0F83C
:10AD700000150020A061E06184F8290044F8140F58
:10AD8000A675ACE70C3C002024C402008000020041
:10AD90002DE9F05F054600794FF4017600EB4003A2
:10ADA00003EBC000344B03EB80040020636813B155
:10ADB0002B68C3F80863A3694FF000096BB1E06921
:10ADC00038B1606810B12868C0F804631120BDE88C
:10ADD000F09FE2610120216105E0C4F82490A261A6
:10ADE000E160C4F81C9094F82910014302D1284670
:10ADF00000F02BFD60680028286803D0C0F80463C9
:10AE00000020E4E74FF4A2763146FFF7C0FDB246DA
:10AE10004FF4927B59462868FFF7B4FD06464FF47D
:10AE200084712868FFF7AEFD804651462868FFF719
:10AE3000A9FD074648EA07003043EBD056EA070071
:10AE400007D12146286800F0D1FCA169606A8142DF
:10AE5000E0D8C4F818900EB10320B8E70FB10F2066
:10AE6000B5E794F8291001200029296801D008606D
:10AE7000C6E74860C4E700000C3C00202DE9F05F05
:10AE8000054600790B4600EB400101EBC000244968
:10AE900001EB8004284600F045F810B11120BDE810
:10AEA000F09F62614FF00009C4F82090A36084F81D
:10AEB00028904FF48E784E4641462868FFF767FD8C
:10AEC00028684FF0010AC0F808A02146286800F061
:10AED000F7FE606808BBD5F800B067690FE000BFF7
:10AEE00094F8280008B10F2615E041465846FFF7B0
:10AEF00049FD0028F4D02146584600F0E1FE206AC2
:10AF0000B842F2D3574641462868FFF73BFD002878
:10AF1000F9D02868C760C4F814903046BFE7000035
:10AF20000C3C0020007900EB400101EBC00004491B
:10AF300001EB80004069002800D00120704700002C
:10AF40000C3C00200149024801F038B8383C002090
:10AF5000002000402DE9F0410546164600790F46D5
:10AF6000154A00EBC00102EB810494F8201011B1E6
:10AF70000820BDE8F081114951F820102868FFF73A
:10AF800077FE08B11120F4E739462846FCF770F83F
:10AF90006660386920601EB1397F2846FDF7E4FEFF
:10AFA00028680821C0F800150020A061E0616061F8
:10AFB000012184F82010DCE7383C002028C402007E
:10AFC0002DE9F05F044600790E4600EBC001DFF882
:10AFD000F0A017460AEB81053046FFF741FEB0B1FD
:10AFE00068684FF000084FF4047910B12168C1F887
:10AFF0000893A8694FF0000B80B1E86948B1686810
:10B0000010B12068C0F804931120BDE8F09F102013
:10B01000FBE7EF614FF001082E6102E0EE60C5E949
:10B02000067B00254FF488712068FFF7C1FC4FF4C0
:10B03000A2712068FFF7BCFC2068C0F83465C0F836
:10B0400038752068B8F1000F12D0D0F8001241F026
:10B050002001C0F800122079D04600EBC0010AEBB5
:10B060008100406838B12068C0F804932846CCE7D6
:10B0700001210160EFE74FF4887A4FF4A27951463D
:10B080002068FFF790FC074649462068FFF78BFCD5
:10B0900006464FF492712068FFF785FC014647EAA7
:10B0A00006000843EBD0227902EBC20308EB8302CF
:10B0B000C2F818B001B10325002ED7D00F25D5E76F
:10B0C000383C00202DE9F04704460E460079274918
:10B0D00000EBC00001EB800517463046FFF7C0FDCE
:10B0E00030B1204600F044F820B11120BDE8F087CF
:10B0F0001020FBE76F61AE604FF490774FF00008CF
:10B1000039462068FFF754FC4FF4AC76314620688E
:10B11000FFF74EFC2068AA686969C0F84425C0F8AA
:10B12000481520684FF00109C0F808906868D0B948
:10B13000BA4651462068FFF736FC0746314620687C
:10B14000FFF731FC0743F4D010B14FF00F0808E0CF
:10B150002068C0F80C9031462068FFF724FC0028D6
:10B16000F9D0002068614046C0E70000383C00206C
:10B170000079054900EBC00001EB80004069002820
:10B1800000D0012070470000383C00202DE9F0413C
:10B1900005460078002828D1154816490026401A8F
:10B1A000C008012101EB004710E02869805DFBF732
:10B1B000B3FE040009D0112CF7D0384622460EA168
:10B1C000FEF7D0FF2046FBF7A9FD761CA88AB04207
:10B1D000EBD8A98A2869084410F8010C0D2804D17D
:10B1E0000A20FBF799FE1128FAD0BDE8F081000093
:10B1F00040CF0200E0CE02004661696C65642072B7
:10B200006563656976696E67204E5553206D657379
:10B21000736167652E204572726F722030782578D1
:10B220002E20000010B550B103280CD10220FCF7ED
:10B23000C3FE002807D0BDE81040FBF76FBDBDE896
:10B24000104000F0F9BB10BD0078002807D1044879
:10B250003B21408876DF002801D0FBF75FBD7047B7
:10B26000E02A0020F0B58BB0002601960D4604467A
:10B270008988406901AAFBF73FFF0AA8CDE9086069
:10B280000227ADF82070ADF822602189A88808AAAD
:10B29000ADDF002819D1A069002816D00998FCF765
:10B2A0002EFD002811D0019E0EB101203070182112
:10B2B00002A8FBF7F4F88DF808700394A888ADF89D
:10B2C00010000596A16902A888470BB0F0BD0000E8
:10B2D00070B58D88027900EBC5042273C97BA41D6B
:10B2E000012902D0022904D101E0008800E0408851
:10B2F000208021886088814211D92846A5DF012657
:10B30000B0B1112816D0FFF733FB02460B480C49A9
:10B31000401AC00806EB00400AA1FEF723FFA179FE
:10B32000E079814208D92846BDE87040FDF7C2B9EE
:10B330006671F4E72671F2E770BD0000E0CE02000E
:10B34000E0CE020073645F626C655F676174746372
:10B350005F65786368616E67655F6D74755F726560
:10B36000717565737428292072657475726E6564D1
:10B370002025732E000000007CB506468D88C88805
:10B3800006EBC504A41D172800D21720218881428E
:10B3900000D8084660800020207121882846B5DF4B
:10B3A00060B1FFF7E5FA02460F481049401AC0089D
:10B3B000012101EB00400EA1FEF7D4FE60790028C8
:10B3C00010D1306900280DD01549D1E90201CDE92D
:10B3D0000001ADF802506088ADF80400326969469A
:10B3E000304690477CBD0000E0CE0200E0CE020077
:10B3F00073645F626C655F67617474735F657863C3
:10B4000068616E67655F6D74755F7265706C7928D1
:10B41000292072657475726E65642025732E000094
:10B42000F8C30200F0B587B00C4605468E1D89882A
:10B43000406906AAFBF760FE18216846FBF72FF863
:10B440000195A088069AADF80800039231882B89EF
:10B45000002704F11200994202D17389022B0DD00A
:10B46000AA8991421ED1A96900291BD08DF80070CC
:10B4700004907089ADF81400A96911E0002A11D078
:10B48000FCF73DFC20B1069901200870022002E083
:10B490000698077003208DF80000A969002901D0E3
:10B4A0006846884707B0F0BD0068012803D002282D
:10B4B00001D00020704701207047000010B50549F9
:10B4C000C20800F00703885C01249C402043885494
:10B4D00010BD0000043C00200449084490F93000ED
:10B4E000082801DB0120704700207047B03B002096
:10B4F0000449084490F93000082801D2012070471F
:10B5000000207047B03B00202DE9F05F2A4F06462F
:10B510004FF0A04A4FF0010B0024381990F9501059
:10B52000491C3CD090F85000314620F0C005284618
:10B53000FEF784F820B3204600F040F881460AEB7D
:10B540008500D0F80007C0F30148B8F1020F18D009
:10B5500002212846FEF7CAFB0BFA05F1CAF82015AE
:10B560002846FCF71FFF57F820204AB14846B9F19A
:10B57000030F11D0B8F1020F05D0B8F1030F07D0B7
:10B580000DE00321E5E74846B9F1010F04D006E0DC
:10B590004846B9F1020F02D1014628469047641C83
:10B5A000042CBAD3324601210020FEF7B1FB3068EB
:10B5B0000028B1D1BDE8F09FB03B0020024908440B
:10B5C00090F8500080097047B03B002010B50C4641
:10B5D000017A052908D0407A38B1084808A10268E4
:10B5E0002046FEF70FFA00E01AB106A12046FEF74A
:10B5F00009FA2046BDE81040FEF711BAF42B0020EE
:10B60000257300000D0A000038B5C3880D460446B6
:10B6100033B114A0009015A216A12846FEF7F2F946
:10B62000217A05291CD0607A48B1A088FEF754FC25
:10B63000164951F8202016A12846FEF7E3F9A08804
:10B640000021FEF715FE03461049207A143951F8FF
:10B65000202001B02846BDE830400EA1FEF7D2B947
:10B6600038BD00001B5B306D000000001B5B313BF0
:10B6700033316D0025734C6F67732064726F707087
:10B680006564202825642925730D0A00F42B002009
:10B69000257300003C25733E2025733A20000000EE
:10B6A0000349884201D103487047002070470000D9
:10B6B00000200040402B002070B50546FDF745F9FD
:10B6C000134C40B1D4E904024FF08071411842F1AB
:10B6D0000000C4E9041000212846FDF783F830B1CA
:10B6E000606820B1606800F05BFA002060600121B2
:10B6F0002846FDF777F818B1FDF7A0FAC4E906016E
:10B70000284600F079FA2846BDE8704000F034B8C9
:10B71000602B002070B5054600200C460870FDF730
:10B720008DFAD5E90223101A63EB01030026314696
:10B73000361A994112DAB0F5350F03D3FBF722FB25
:10B740000B4942184FF4960300210A48FDF709F906
:10B7500010B10D2806D009E0012070BD0021054878
:10B76000FDF736F8284600F01BFA2070002070BD67
:10B77000FFFFB400682B0020F8B51A4C07460026DE
:10B780001948FFF7BFF8D0B1616871B1D0E9021074
:10B790006268D2E90232C91A904120D26068007F03
:10B7A00018B161681048FFF79CF800F091F9054660
:10B7B0006946FFF7AFFF98B1606840B10AE0606882
:10B7C00000280CD13846BDE8F840FDF7C6B8384629
:10B7D000FDF7BFF865609DF800000028D0D1F8BDE6
:10B7E0006660CDE7602B00203CC4020070B50546C2
:10B7F00088690C4600284FF4847128460AD0FFF768
:10B80000C6F8D5F81805626AE1688854606A401C79
:10B81000606270BDFFF7BBF8D5F8180570BD1FB5A5
:10B8200001238DF80030CDE90121D0E900126846EE
:10B8300090471FBD1FB501238DF80030CDE90121D0
:10B84000D0E90012684690471FBD10B50446006855
:10B850004FF49271FFF79BF84FF484712068FFF763
:10B8600096F820680121016010BD000038B5002164
:10B87000012548B1012810D003280DD1FFF7A6F803
:10B88000BDE83840FEF750B84FF0E020C0F88051D6
:10B89000BFF34F8FBFF36F8F38BD8DF80010684630
:10B8A000FBF764FB064C207808B9FEF71DF8E0684A
:10B8B000401CE060A5709DF80000FBF77BFB38BDE5
:10B8C0009C3B00203EB5044609496846FEF7E2FF6E
:10B8D00008E000BFD0E900212046904730B168461B
:10B8E000FEF7EFFF02980028F4D13EBD11203EBDC7
:10B8F00028C602003EB5044608496846FEF7CAFF5E
:10B9000007E000BFD0E90021204690476846FEF7D7
:10B91000D8FF02980028F5D13EBD000034C60200D1
:10B9200002498969002900D008477047043B00207C
:10B930002DE9F0411400884618D000250E4F03264B
:10B9400008EB050122460020FAF79AFE0544241A66
:10B9500040B93878002809D008494FF47A40884720
:10B96000761E05D001203870002CE9D1BDE8F081A9
:10B9700000203870FAE70000B82B002001C6020052
:10B980002DE9F0410746806A14468846C8B3002571
:10B9900031E000BFB96A05EB450001EB8006B088D5
:10B9A000801CFE2802D90C20BDE8F0812288401CB2
:10B9B00008F8020020881622401C80B2208008F877
:10B9C00000202088401C80B2208000EB08013088D5
:10B9D00000F07DFB2188084480B22080B28842B10B
:10B9E000B16871B14044FAF741FD2088B18808443C
:10B9F00020806D1CEDB297F82C00A842CAD8002018
:10BA0000D2E7FFE70720CFE70A78062822F0FF02F7
:10BA10000A7010D2DFE800F0030507090B0D0020C3
:10BA200008E0112006E0212004E0312002E012208D
:10BA300000E022200870704710B50020FCF7BCFA27
:10BA400008B1FBF76BF9FCF711FA08B1FBF766F9DF
:10BA500033DF002803D0BDE81040FBF75FB910BD0D
:10BA6000002805D10349012048700020FCF76ABD79
:10BA7000704700009C3B002010B51620FBF770F8C3
:10BA8000A0B1114890F800044009082811D2012102
:10BA9000814011F0EC0F0CD00C4882684FF480010B
:10BAA0006AB1016841F48001016010BD42F20100F9
:10BAB00001E042F20200BDE81040FBF72FB94FF061
:10BAC000E020C0F8001110BD16E000E0183D002095
:10BAD0000148FEF71ABF00003CC40200C207002A5A
