:020000040002F8
:1060000030D30020DD630200E5630200E763020095
:10601000E9630200EB630200ED6302000000000090
:10602000000000000000000000000000EF6302001C
:10603000F163020000000000F3630200F563020058
:10604000D96B0200316C02001D710200356D020037
:10605000F7630200F76302008D6A0200F763020033
:10606000E1700200F5700200F7630200F7630200BE
:10607000F7630200F7630200F7630200F7630200B0
:10608000F7630200C56C0200F7630200F7630200C9
:10609000F7630200F7630200456D0200496D0200DC
:1060A000F7630200F7630200F76302000971020060
:1060B000F7630200F7630200000000000000000028
:1060C000F7630200F7630200F7630200F763020060
:1060D000F7630200F7630200F763020000000000AC
:1060E00000000000000000000000000000000000B0
:1060F00000000000000000000000000000000000A0
:10610000000000000000000000000000000000008F
:10611000000000000000000000000000000000007F
:10612000000000000000000000000000000000006F
:10613000000000000000000000000000000000005F
:10614000000000000000000000000000000000004F
:10615000000000000000000000000000000000003F
:10616000000000000000000000000000000000002F
:10617000000000000000000000000000000000001F
:10618000000000000000000000000000000000000F
:1061900000000000000000000000000000000000FF
:1061A00000000000000000000000000000000000EF
:1061B00000000000000000000000000000000000DF
:1061C00000000000000000000000000000000000CF
:1061D00000000000000000000000000000000000BF
:1061E00000000000000000000000000000000000AF
:1061F000000000000000000000000000000000009F
:10620000DFF80CD000F080FB00480047D10E0300FF
:1062100030D3002000B583B002900091019244F287
:10622000010071466A4602F015F803B000BD000097
:1062300030B450E8012F93B2C48923448489A34227
:1062400028BF1B1B0489A34202BFBFF32F8F00206E
:1062500007E0C3EA020340E80134002CE9D14FF023
:1062600001000A6030BC704750E8012FC2EA0242C8
:1062700040E801210029F7D1704730B450E8022FDF
:106280001FFAA2F3C488A34202BFBFF32F8F0020DE
:106290000DE0C48923448489A34228BF1B1BC2EAA2
:1062A000034340E80234002CE8D14FF001000A60BB
:1062B00030BC704750E8022FC2EA224240E8022177
:1062C0000029F7D17047034653E8022FD988B2EB73
:1062D000324F4FF0000017BF92B241EA014142EA4B
:1062E000014104E05A68B2EB324F08BF012043E895
:1062F0000212002AE8D1704730B4044654E8000F77
:106300000D4644E80053002BF8D1156030BC7047AF
:1063100030B4044654E8000F40EA010544E8005355
:10632000002BF7D1156030BC704730B4044654E8F8
:10633000000F00EA010544E80053002BF7D1156077
:1063400030BC704730B4044654E8000F80EA0105C1
:1063500044E80053002BF7D1156030BC704730B4CF
:10636000044654E8000F00EB010544E80053002BFD
:10637000F7D1156030BC704730B4044654E8000FC4
:10638000A0EB010544E80053002BF7D1156030BCA9
:10639000704770B404464FF0000054E8006F0D6879
:1063A000AE4207BF44E80023012044E800630E60CA
:1063B000002B1CBF0020F0E770BC704730B40446CF
:1063C00054E8000F88422CBF451A054644E80053A4
:1063D000002BF5D1156030BC70470000064880479F
:1063E00006480047FEE7FEE7FEE7FEE7FEE7FEE7BA
:1063F000FEE7FEE7FEE7FEE7A56D02000162020090
:106400002DE9F05F0546002092469B4688460646E9
:10641000814640241BE0284641464746224600F07C
:106420002FF853465A46C01A914110D311461846C8
:10643000224600F016F82D1A67EB01084F46224657
:106440000120002100F00DF817EB00094E41201E3D
:10645000A4F10104DFDC484631462A464346BDE844
:10646000F09F202A04DB203A00FA02F10020704756
:106470009140C2F1200320FA03F319439040704782
:10648000202A04DB203A21FA02F00021704721FA89
:1064900002F3D040C2F120029140084319467047F0
:1064A000202A06DBCB17203A41FA02F043EAE073D8
:1064B00006E041FA02F3D040C2F1200291400843C5
:1064C0001946704700487047906E030010B5431A94
:1064D000934209D28318881803E010F8011D03F8CD
:1064E000011D521EF9D210BD40EA01039B0703D0E3
:1064F00009E008C9121F08C0042AFAD203E011F803
:10650000013B00F8013B521EF9D210BDD2B201E0AE
:1065100000F8012B491EFBD270470022F6E710B5A8
:1065200013460A4604461946FFF7F0FF204610BD01
:10653000421C10F8011B0029FBD1801A704730B5AE
:1065400004460020034600E05B1C934203D2E05C5B
:10655000CD5C401BF8D030BD034611F8012B00F88C
:10656000012B002AF9D11846704730B50B46014679
:1065700000202022012409E021FA02F59D4205D3E2
:1065800003FA02F5491B04FA02F52844151EA2F18C
:106590000102F1DC30BD2DE9FE4F804681EA0300A7
:1065A000C00F0C46009021F0004123F00045B8EBED
:1065B0000200A94105D24046214690461C460B46A2
:1065C000024623F00040104347D0270DC7F30A00CE
:1065D000C3F30A510290401A019040286BDAC3F3CA
:1065E000130040F4801B0098924620B10023D2EBA8
:1065F000030A63EB0B0B01985946C0F14002504669
:10660000FFF72FFF06460D4650465946019AFFF701
:1066100047FF10EB08006141002487EA115284EA29
:10662000E7731A4340D0009A62B3019A012A4FEAF5
:10663000075215DC001B61EB02014FF0004202EA39
:106640000752CDE90042001C41F5801132462B462D
:1066500000F07BF903B0BDE8F08F40462146F9E732
:10666000001B61EB0201001C41F5801300185B4127
:106670002018A2F5001747EB030140EAD570B619C0
:106680006D4111E06D084FEA360645EAC0754FEAE4
:106690000752001B61EB0201001C41F58011490803
:1066A0004FEA30000019514132462B4603B0BDE895
:1066B000F04F00F03BB90098012240000023D0EBDE
:1066C000020263EBE073009821464FEAE074B8EBF6
:1066D000000061EB0401E9E783F000435BE781F030
:1066E000004158E72DE9FE4F81EA030404F000441D
:1066F00021F0004100944FF0000B23F0004350EADA
:1067000001045ED052EA03045BD0C3F30A54C1F320
:106710000A552C44A4F2F3340194A0FB0254C1F3B3
:10672000130141F48011C3F3130343F4801301FBFD
:10673000024400FB034E840A970A44EA815447EA64
:106740008357A4FB076802958D0A05FB07854FEA6E
:10675000932C04FB0C542705029D4FEA065847EA88
:106760001637B5EB08056EEB070C870E920E47EA5D
:10677000811742EA8312A7FB0201B6EB0B0164EB1F
:1067800000042B0D43EA0C335E1844EB1C50DA4630
:106790005146E7FB0201C5F313044FEA0B3343EA0A
:1067A00014534FEA0432019C43EA0603A4F10C049B
:1067B0000294009CCDE900B400F0C7F803B0BDE836
:1067C000F08F00200146F9E72DE9F04D81EA03043E
:1067D00004F0004B21F0004514464FF0000A23F06E
:1067E000004150EA050220D054EA01021DD0C5F351
:1067F0000A570246C5F31303C1F31300C1F30A5647
:1068000040F4801543F48013A7EB0608101BD6460E
:1068100008F2FD3873EB050002D308F1010801E02E
:1068200092185B41B8F1000F03DA00200146BDE881
:10683000F08D00204FF48011064684460EE0171BB1
:1068400073EB050705D3121B63EB050306434CEA04
:10685000010C49084FEA300092185B4150EA0107E9
:10686000EDD152EA030012D082EA040083EA050166
:10687000084305D0101BAB4106D20122002306E0DD
:1068800000224FF0004302E06FF0010253101AEBB8
:1068900006004CEB085110EB0A0041EB0B01BDE880
:1068A000F04D00F043B8C1F30A52C1F3130140F2B6
:1068B000FF3341F480119A4202DA0020014670470A
:1068C00040F233439A42A2F2334202DC5242FFF7D3
:1068D000D7BDFFF7C6BD000030B5041E71F100043E
:1068E00004DB4FF00044404264EB0101141E73F1DD
:1068F000000405DB1C464FF00043524263EB0403E7
:10690000994208BF904230BD064C074D06E0E06852
:1069100040F0010394E8070098471034AC42F6D3E6
:10692000FFF772FCD4810300F481030010B5141E3C
:1069300073F1000408DA401C41F1000192185B4138
:106940001A4301D120F0010010BD2DE9F04D92460F
:106950009B4611B1B1FA81F202E0B0FA80F2203226
:106960009046FFF77EFD04460F4640EA0A0041EAE2
:106970000B0153465A46084313D0114653EA01000F
:1069800019D0C8F140025046FFF77AFD05460E4681
:10699000504659464246FFF764FD084305D00120A2
:1069A00004E020463946BDE8F08D0020054346EA64
:1069B000E0762C4337430A986305E40AA0EB08000D
:1069C0000022FD0A44EA47540A3002D5002001465D
:1069D000E9E7010510196941DDE908450019694138
:1069E000BDE8F04DA2E770B58C1810F8015B15F00A
:1069F000070301D110F8013B2A1106D110F8012B31
:106A000003E010F8016B01F8016B5B1EF9D12B0755
:106A100005D40023521E0DD401F8013BFAE710F80B
:106A2000013BCB1A921C03E013F8015B01F8015BF8
:106A3000521EF9D5A142D8D3002070BD30B404460F
:106A40000020A1F57F45FF3D13D040F26540414352
:106A50004FF47A705043B1FBF0F0424304EB430132
:106A6000401EA1F8BC2002B2204630BC194603F0FB
:106A7000BDBF30BC7047002251F822309B178354B1
:106A8000521CD2B2092AF7D3704700002DE9F8430F
:106A90000025DFF894804FF4807701242E4600957E
:106AA00038460BF0E1F838B1D8F80403204203D09F
:106AB00038460BF0CFF825433F1D6400761CBFB26B
:106AC000082EEDD34FF4BE7420460BF0CDF848B13C
:106AD00020460BF0BFF845F000456A460121002032
:106AE0000BF074F815F0FF0F16D0012600242E428B
:106AF0000ED008EB8401D1F81005D1F81015C0F3C1
:106B000004200A4AC1F3014152F8242002B19047FF
:106B10007600641C082CEAD3002D02DA68460DF0DA
:106B2000C9F9BDE8F883000000600040586D0020FE
:106B300038B5044612481449028812481346401AD0
:106B4000C008032101EB004010A100920BF0E3FA12
:106B50000098800880000AF067FA054601466A46F8
:106B60000F480BF09BFC08B101F0B4FB294620460E
:106B7000009AFFF7ABFC284604F0CEF938BD0000C0
:106B8000182D002074820300048203006C656E5F80
:106B90006F75743A202564202020256400000000D1
:106BA000386A0300F0B515460B4607464FF6FF76E8
:106BB0000DE01978384606F0BBFD38B1587807EB80
:106BC0004000B0F80641A64200D926469B1C6D1E27
:106BD000EFD23046F0BD000070B54FF480763046FD
:106BE0000AF076FD114CB50560B130460AF077FD2C
:106BF0000120C5F80803607920B90120607121687F
:106C0000002088474FF4827630460AF061FD002864
:106C10000AD030460AF063FD0220C5F80803216857
:106C2000BDE870400120084770BD0000102C002016
:106C30002DE9F041154DD5F80C01002823D0002096
:106C4000C5F80C01D5F80C01114EB078012818D107
:106C500010480068C00714D00F4F38680EF0D6F8FF
:106C600060B10E480AF0CAFB041E00D0012020B912
:106C70000BA2CA210020FFF7CDFA3C603069401C0E
:106C800030610120A860BDE8F081000000100040E4
:106C90003C6700200014004004150040B08203004F
:106CA0002E2E5C2E2E5C2E2E5C2E2E5C2E2E5C63E9
:106CB0006F6D6D6F6E5C74696D655F73796E632E59
:106CC0006300000002490248091F0968006808477C
:106CD0009C2C002000F028BA70B50E46144900EB39
:106CE000400001EBC0051446E86A183520B10128C0
:106CF0000FD0022805D113E0284600F049FAA0423F
:106D000001D2002411E022463146284600F085FADF
:106D10000BE0284600F03CFAA042F4D20446F2E729
:106D20003146284600F04CFA0446204670BD00006B
:106D3000E8740020014902480EF05ABD046E00209C
:106D4000003000400BF0DCBD0B48D0F800110029EA
:106D500011D00022C0F800210849094B0120897A8E
:106D600003EBC10148600748C1698B68C36042708A
:106D700005480AF065BB704700700140E0830020C1
:106D800000F001403C670020B0820300C82800D911
:106D9000C82040F2654148434FF47A71B0FBF1F0EE
:106DA00080B27047F0B5BD494FF08057BA4AD7F866
:106DB000300109781268D7F83431441CC1F303114B
:106DC00006D0844601260025BCF1060F03D00AE058
:106DD00002F0FF0CF6E7B7F82443DFF8C4C2C4F3AF
:106DE0000424CCF8004002F0FF0C0C46BCF1060F66
:106DF00006D1032C04D1DFF8B0C2AA4CCCF8744001
:106E0000441C04D08446BCF1060F03D00AE002F013
:106E1000FF0CF8E7D7F84442DFF890C2C4F34234DD
:106E2000CCF8004002F0FF0C0C46BCF1060F08D174
:106E3000032C06D19E4CD4F800C02CF0807CC4F802
:106E400000C0441C04D08446BCF1060F03D00BE004
:106E500002F0FF0CF8E74FF08044C4F80C51C4F87E
:106E60001051924C241F256002F0FF0C0C46BCF11F
:106E7000060F07D1032C05D1DFF830C20CF1640CEA
:106E8000CCF8004002F0FF0C0C46BCF1060F11D10B
:106E9000032C0FD1DFF81CC20524CCF80040854C30
:106EA00078342660834C083425600CF1040C3F24B0
:106EB000CCF80040441C05D084461C46BCF1060FAB
:106EC00004D081E002F0FF0C0C46F7E7032C7BD0E6
:106ED000042C79D0784C2468DFF8E0C1CCF800406D
:106EE000754C241D24680CF1040CCCF80040724C45
:106EF000083424680CF1040CCCF800406E4C0C34BF
:106F000024680CF1040CCCF800406B4C103424685D
:106F10000CF1040CCCF80040674C143424680CF1DC
:106F2000040CCCF80040644C18342468DFF88CC1A1
:106F30000CF1200CCCF800405F4C1C3424680CF1A0
:106F4000040CCCF800405C4C203424680CF1040C98
:106F5000CCF80040584C243424680CF1040CCCF8D4
:106F60000040554C283424680CF1040CCCF8004047
:106F7000514C2C3424680CF1040CCCF800404E4CDD
:106F800030342468DFF834C10CF1400CCCF80040F8
:106F9000494C343424680CF1040CCCF80040464CC5
:106FA000383424680CF1040CCCF80040424C3C34DA
:106FB00024680CF1040CCCF800403F4C40342468A9
:106FC0000CF1040CCCF80040441C04D08446BCF105
:106FD000060F03D008E002F0FF0CF8E7D7F858429C
:106FE000374F04F04F043C60441C03D00246062A8D
:106FF00002D008E0D2B2FAE732490A68D20702D0DA
:107000006FF001020A6006280AD1032B08D0042B76
:1070100006D0052B04D02C48016841F48061016042
:1070200023487438016841F470010160BFF34F8F49
:10703000BFF36F8F4FF01023D3F80002002803DB5B
:10704000D3F80402002822DA204A1660204801689A
:107050000029FCD01524C3F8004201680029FCD0A7
:10706000C3F8044201680029FCD0156001680029BA
:10707000FCD0BFF34F8F0E48F0380168154A01F479
:10708000E06111430160BFF34F8F00BFFDE713497B
:1070900011480860F0BD0000E00F00F0E80F00F0BC
:1070A000403501400DF0ADBA00C007403C0500403E
:1070B000FCED00E0105600400404001020C5004024
:1070C000E40E0040000400403C17004004E501408D
:1070D00000E401400400FA050090D003E4670020BA
:1070E00004220249024809F031BE00003C6E002033
:1070F0000080004004220249024809F027BE000037
:10710000486E00200090004006220249024809F023
:107110001DBE0000546E002000B001400148006810
:1071200000470000182C002010B5124C022000214E
:107130002061606110A0A06104F17800E0614FF46B
:107140000070A162206261620BA0E162A06404F59C
:107150001E70E0641020A165C4E91401E16509A175
:10716000E01DFFF7F9F908A12046FFF7F5F9202007
:10717000A07110BDE87400205465726D696E616C79
:107180000000000052545400534547474552000048
:107190000269C1688A4203D88068401A104400E03E
:1071A000501A401E7047002809DB00F01F02012121
:1071B00091404009800000F1E020C0F88012704743
:1071C0002DE9F047C4681746894605464FF0000888
:1071D0002869A04201D9061B02E0A968201A0E1AEC
:1071E000A868761E001BB04200D80646BE4200D3F7
:1071F0003E466868324620444946FFF767F9A8686A
:10720000BF1B3444B044B144A04200D10024EC6020
:10721000002FDDD14046BDE8F0872DE9F04104465E
:107220008846D4E90207C51BE16860681646084431
:10723000B54206D94146FFF749F9B819E060BDE803
:10724000F0812A464146FFF741F9761B08EB05011C
:1072500032466068FFF73AF9E660F0E70FB4054B95
:1072600010B503A9044A029800F05CFB10BC5DF85D
:1072700014FB000009AF0200AC2C00204100080202
:1072800018BF04200A0E18BF40F001004FF07F42E3
:1072900032EA010108BF40F00200012808BF0520C2
:1072A0007047002809DB00F01F02012191404009CE
:1072B000800000F1E020C0F80011704710EE101AB5
:1072C00008B5444A6846B2EB410F28D94FF0E64072
:1072D000B0EB410F94BF00204FF0FF3000900098BA
:1072E000002861DB60EE000A10F0010F45D010F0BD
:1072F000020FDFED391A9FED391A00EEE11ADFEDCA
:10730000381A40EE811A21EEA01AF0EE400A40EE43
:10731000010A08BFF1EE600AB0EE600A08BD314B09
:1073200021F0004293423CD911F0004FDFED2E0ACC
:1073300020EE201ADFED2D0A19BF31EE601A71EE32
:10734000200A31EE201A71EE600ABDEEE01A11EE4D
:10735000100A9FED271A00F0030000EEC10A9FED0E
:10736000251A009000EEC10A9FED231A00EEC10A13
:107370009FED221A00EEC10AB1E79FED211A9FEDA1
:10738000210A10F0020F00EE810A9FED1F1A00EE95
:10739000801AB7EE000A00EE810A18BFB1EE400A6B
:1073A00008BD00F02BF99AE710EE100A4000B0F18A
:1073B0007F4F3CBFB7EE000A08BD07D14FF0010078
:1073C00000F0E8F9BDE8084000F008B9BDE8084061
:1073D00000F001B9B61F927E336D4C39DA82083C59
:1073E000A0AA2ABE490E494683F9223F0000004B5D
:1073F0000000C93F00A0FD390020A2331A61342CDF
:10740000B93AB2BACA9F2A3DDDFFFFBE00B510EE01
:10741000101A2DED028B81B0524A6846B2EB410F33
:107420002ED94FF0E640B0EB410F94BF00204FF053
:10743000FF3000900098B0EE408A00286ADB10F020
:10744000010F4BD068EE080A9FED471A9FED470ADF
:1074500000EE810A9FED461A10F0020F00EE801A2E
:10746000B7EE000A00EE810A02BF01B0BDEC028B4C
:1074700000BD00BF01B0B1EE400ABDEC028B00BD03
:107480003C4B21F00042934241D911F0004FDFED17
:107490003A0A20EE201ADFED390A19BF31EE601AE0
:1074A00071EE200A31EE201A71EE600ABDEEE01A8C
:1074B00011EE100A9FED321A00F0030000EEC10A2F
:1074C0009FED301A009000EEC10A9FED2F1A00EEDA
:1074D000C10A9FED2E1A00EEC10AABE728EE080A9A
:1074E0009FED2B1ADFED2B0A10F0020F40EE410A40
:1074F0009FED291A00EE201A61EE000AB0EE480A4C
:1075000008EE200AB6D101B0BDEC028B00BD00F040
:1075100075F88FE718EE100A4000B0F17F4F0DD2DA
:1075200018EE100AFFF7AAFE042808BF00F05EF864
:10753000B0EE480A01B0BDEC028B00BD09D10120BC
:1075400000F028F901B0BDEC028B5DF804EB00F00F
:1075500045B801B0B0EE480ABDEC028B5DF804EB13
:1075600000F039B8B61F927EB93AB2BACA9F2A3D26
:10757000DDFFFFBE490E494683F9223F0000004B64
:107580000000C93F00A0FD390020A2331A61342C4D
:10759000336D4C39DA82083CA0AA2ABE10B52DED15
:1075A000028BB1EEC08A18EE100A20F00040C0F144
:1075B000FF40C00F0AD010EE100A20F00040C0F1CA
:1075C000FF40C00F04BF012000F0E4F8B0EE480A0D
:1075D000BDEC028B10BD30EE000A7047DFED020AF1
:1075E00080EEA00A70470000000000009FED020A34
:1075F00020EE000A70470000000000102DE9F001A5
:107600004FF07F42B2EB410F9FBF4FF0FF3101605F
:10761000BDE8F00170474FF0004242EA0123C1F398
:10762000C752783A551112F01F0C434CCCF120068A
:107630007C44C1F3C752A2F178024FEA621204EB14
:10764000820254F8254008BFD2E9015612D055688D
:1076500004FA0CF425FA06F73C43976805FA0CF592
:1076600027FA06F8D26807FA0CFCF24045EA08054A
:107670004CEA0206A4FB034CA5FB0352A6FB0363E2
:107680001D449D4234BF012600261319334416B110
:10769000934202D903E0934201D2012200E000228A
:1076A000624402F1200C9206DC0C42EA443200EE05
:1076B000102A5B03DFED210AF8EEC01A00EE103A43
:1076C0004FEA9C1C11F0004FB8EE400AC0F800C011
:1076D00020EE201A00EE105ADFED190AB8EE400A2B
:1076E00020EE200A71EE810A70EE800A10EE902AD8
:1076F00002F500626FF30B0200EE902A70EEE11AC1
:1077000031EEC11ADFED101A30EE411A9FED0D0A6D
:1077100020EE800A01EE210A9FED0C1A00EE810A8C
:1077200004BFBDE8F0017047CCF180510160BDE8B5
:10773000F001B1EE400A704760F80000000000362A
:107740000000802C22AAFD29DB0FC92F0000C92FC1
:1077500002E008C8121F08C1002AFAD1704770471A
:10776000002001E001C1121F002AFBD17047000078
:107770000121202803DA81400548014003E0402828
:1077800002DA2038814009B101207047002070479B
:10779000FC06FFBD0149086070470000F06700204B
:1077A0002DE9FF5F82B00021DDE90430020DDDF834
:1077B00040B0034318D044F61050A2F2FF324243C7
:1077C0001514119801281FD0A5EB0B00401C5FEA8F
:1077D000000A4FF000064E4FDFF83891B046504691
:1077E00015D5CAF1000413E0119801244AA3012819
:1077F00001D16FEA0B010298119AC0E90031C0E98A
:10780000024206B0BDE8F09FCBF10000DFE704467E
:107810000021404A491842EB0450CDE9001012E023
:10782000E00707D032463B4640464946FEF75AFF3E
:107830008046894632463B4610461946FEF752FFBF
:1078400006460F466410002CEAD1DDE90401DDE9AB
:107850000023BAF1000F06DAFEF744FF42464B461A
:10786000FEF740FF05E0FEF7AFFF42464B46FEF74E
:10787000ABFF04460E460022284BFFF72DF803D835
:107880004FF0FF30014607E00022254B20463146ED
:10789000FEF781FEFFF707F8102409E0002C0ADB51
:1078A0000A220023FEF7ACFD039B30321A55641EFA
:1078B00050EA0102F2D1641C039AC4F1110314448A
:1078C000119A012A03D0012208430DD10AE008438E
:1078D00004D000204FF0110B119072E7A3EB0B05C1
:1078E0006D1E0DE05B4504DD4FF0000205F1010562
:1078F00004E003DA4FF00002A5F10105002AECD004
:1079000002981199C0E90231C0E9004579E7000009
:10791000000014400000F03F300000000000F04381
:107920000000E03F2DE9FF4F95B09B468946064693
:1079300000250FE2252877D100242746F84A0121A7
:10794000059400E0044316F8013F203B01FA03F0E0
:107950001042F7D130782A2811D06FF02F033078F9
:10796000A0F13002092A16D8059A44F0020402EB6D
:10797000820203EB42021044761C0590EFE759F8AF
:10798000042B0592002A03DA504244F40054059077
:1079900044F00204761C30782E2816D116F8010F18
:1079A00044F004042A280DD06FF02F023078A0F1A3
:1079B0003003092B09D807EB870302EB4303C718F1
:1079C000761CF3E759F8047B761C30786C280FD0CE
:1079D00006DC4C2817D068280DD06A2814D104E0A2
:1079E000742810D07A280FD10DE044F400140AE076
:1079F00044F4801401E044F440147278824202D1CD
:107A000004F58014761C761C307866280BD013DCC5
:107A1000582877D009DC002875D04528F6D04628AC
:107A2000F4D047281AD19DE118E0632835D06428A6
:107A300079D0652812D195E1702873D008DC6728C9
:107A4000F1D069286FD06E280DD06F2806D1B5E02F
:107A500073282CD0752875D0782874D05A46179979
:107A600090476D1C75E1C4F30250022809D0032829
:107A70000DD0D9F8001004280DD00D6009F10409CB
:107A800067E1D9F80010EA17C1E90052F6E7D9F822
:107A900000100D80F2E70D70F0E719F8041B8DF867
:107AA000001000208DF80100EA46012003E059F89B
:107AB00004AB4FF0FF3061074FF0000102D40DE03E
:107AC00008F101018846B9420FDA8045F8DB1AF85F
:107AD00008100029F4D108E008F10101884681422C
:107AE000FADB1AF808100029F6D105985B46A0EBDE
:107AF000080721463846179A00F094FA284400EB0C
:107B0000080507E04DE029E10DE01AF8010B5A469F
:107B100017999047B8F10108F7D25B4621463846DD
:107B2000179A13E142E00A220092C4F302524FF086
:107B3000000A022A08D059F804CB032A4FEAEC7154
:107B40000AD00DE029E02AE009F1070121F007023F
:107B5000F2E802C1914609E00FFA8CFC4FEAEC71A1
:107B6000042A03D14FFA8CFC4FEAEC71002907DAA2
:107B70000A460021DCF1000C61EB02012D2202E03B
:107B8000220504D52B228DF80420012203E0E20710
:107B900001D02022F7E7904659E00A2102E01022A6
:107BA0000DE010214FF0000A00910BE010224FF081
:107BB000000A44F004040827009203E008224FF072
:107BC000000A0092C4F30252022A05D059F804CBED
:107BD0000021032A08D009E009F1070121F007027A
:107BE000F2E802C1914605E01FFA8CFC042A01D19B
:107BF0000CF0FF0C4FF00008220728D5702806D0A3
:107C0000009B83F0100353EA0A0305D00EE04022E4
:107C10008DF80420012208E05CEA010206D030223F
:107C20008DF804208DF8050002229046009B83F019
:107C3000080353EA0A030AD15CEA010201D1620790
:107C400005D530228DF804204FF001087F1E5828FA
:107C500004D034A003900EA802900DE036A0F9E7FE
:107C600053466046009AFEF7CBFB84460398825C3D
:107C70000298401E029002705CEA0100F0D1029866
:107C800006A9081A00F1200A600702D524F48034FE
:107C900000E00127574502DDA7EB0A0000E00020C5
:107CA00000EB0A01009005984144401A0590E0035A
:107CB00006D45B462146179A059800F0B3F90544AF
:107CC000002706E001A85A46C05D179990476D1C31
:107CD0007F1C4745F6DBE0030CD55B462146179A2F
:107CE000059800F09FF9054404E030205A461799A2
:107CF00090476D1C0099481E00900029F5DC08E0B3
:107D0000029802995A460078491C029117999047A7
:107D10006D1CBAF10001AAF1010AF1DC65E1000075
:107D20000928010030313233343536373839616251
:107D30006364656600000000303132333435363715
:107D400038394142434445460000000000F058F9EC
:107D50000544761C307800287FF4ECAD19B0284635
:107D6000BDE8F08F620700D4062709F1070222F070
:107D7000070CFCE80223E14603F000485FEA080C28
:107D800002D00FF2702C0DE05FEA045C02D50FF216
:107D9000682C07E05FEAC47C02D00FF2602C01E09F
:107DA000AFF2700C4FF0FF3823F00043CDF850C015
:107DB00065280CD006DC452809D046281DD0472868
:107DC0003DD13DE0662818D067287ED138E00021FB
:107DD000112F01DB112000E0781CCDE9000106A97C
:107DE0000EA8FFF7DDFCDDE90F010E9A03910021DB
:107DF000009207F1010A04914DE04FF00040009716
:107E0000CDE9011006A90EA8FFF7CAFCDDE90F02B3
:107E100003920E9B11990022DDF80CA000930492AE
:107E200011B9791C00EB010AB7EB0A0004D4C0F1C8
:107E3000FF3007F1010A0490AAEB0700019044E02B
:107E4000012F00DA01270021112F01DD112000E0B0
:107E50003846CDE9000106A90EA8FFF7A1FCDDE92F
:107E60000F010E9A0391002104910092BA46210756
:107E70000CD40399514500DA8A46BAF1010F05DDA9
:107E8000009AAAF10101515C302908D0B84202DA07
:107E900010F1040F06DA0121CDE9011015E0AAF175
:107EA0000101E9E7002805DC049901440491AAEBEB
:107EB000000102E0411C514500DD8A460499401A48
:107EC000401C01904FF000400290200704D401981C
:107ED000504501DBCDF8048000208DF84F0002985A
:107EE0000DF14F07B0F1004F25D02B200E900298D6
:107EF0004FF0020800280CDA404202902D200E902C
:107F000007E00A210298FEF730FB3031029007F8B3
:107F1000011DB8F10001A8F10108F2DC0298002867
:107F2000EFD1791E0E980870307800F0200040F0F4
:107F3000450007F8020D12A8C01B00F107081498AD
:107F4000007800B1012000EB0A01019801EBE0711B
:107F500005984144401A401E0590E00306D45B4654
:107F60002146179A059800F05DF8054414980078AA
:107F700018B15A46179990476D1CE00324D55B460B
:107F80002146179A059800F04DF805441CE0049826
:107F9000002807DBDDE90301884203DD0098405C2F
:107FA000179901E0179930205A469047049805F137
:107FB0000105401C04900198401E019004D12E2020
:107FC0005A46179990476D1CBAF10001AAF1010AAF
:107FD000DDDC05E017F8010B5A46179990476D1C38
:107FE000B8F10001A8F10108F4DC5B462146179ABC
:107FF0000598ABE62D0000002B00000020000000DB
:108000002DE9F041044600251E461746880404D495
:1080100005E039462020B0476D1C641EF9D528467E
:10802000BDE8F0812DE9F041044600251E4690464A
:10803000C80301D5302700E02027880404D505E0D7
:1080400041463846B0476D1C641EF9D52846BDE848
:10805000F0810000801D0D2820D2DFE800F01D1BFC
:10806000191715131F07090B0D0F11000CA07047EE
:1080700010A0704713A0704716A070471AA0704751
:108080001CA070471EA0704721A0704723A0704716
:1080900025A0704728A070472AA070472CA07047E1
:1080A000424547494E20494E5F56454849434C4555
:1080B00000000000424547494E2057414C4B494E75
:1080C00047000000424547494E2052554E4E494E0A
:1080D00047000000424547494E204F4E5F4249430A
:1080E00059434C4500000000424547494E20544941
:1080F0004C540000424547494E205354494C4C00D3
:10810000454E4420494E5F56454849434C45000082
:10811000454E442057414C4B494E4700454E442064
:1081200052554E4E494E4700454E44204F4E5F42F9
:10813000494359434C450000454E442054494C5452
:1081400000000000454E44205354494C4C000000B0
:10815000756E6B6E6F776E20616374697669747982
:108160002100000090F82400012801D01F20704752
:10817000EE20704710B501220221002001F0D4FA50
:1081800008B1072810D107220221012001F0CCFA02
:1081900008B1072808D100210A22084601F0C4FAD4
:1081A00008B1072800D1002010BD022001F070B9ED
:1081B00070B50024064D06E06868012110F834000F
:1081C0000AF0DEFC641C28788442F5D3002070BDE0
:1081D000302C0020F8B516460C4605460A2A01D276
:1081E0000720F8BD0AF0C6FD18B90AF089FD00287D
:1081F000F7D1134F102113487D603C70BE60FEF72D
:108200008CF90020C7E904000F4E0DE005EBC40116
:108210003068009088788DF8010008780B4A69462C
:108220000AF0FEFC0028DCD1641EE4B2EED2BDE808
:10823000F84005480021064A001D00F0FBB8000088
:10824000302C0020806E002040670300FDB3020048
:1082500095A1020072B60AF00DF809F0D5FD0028CC
:10826000FBD111481149401AC408012000EB044019
:108270000FA109F045FF11480068C00700D000BEFB
:10828000022000EB04400EA109F03AFFBFF34F8F2C
:108290000A48E43801680E4A01F4E06111430160C4
:1082A000BFF34F8F00BFFDE7748203000482030019
:1082B000466174616C206572726F7200F0ED00E0CF
:1082C00053797374656D20726573657400000000E6
:1082D0000400FA050EB500210091CDE901106A46AF
:1082E00044F20100FFF7B6FF0EBD10B58268C36807
:1082F000934203D002F0DCFD002010BD052010BD2C
:1083000029B112B1531E134203D0092070470E2029
:1083100070470160838000218160C160084670471A
:1083200010B58268C3689A1A83889A4203D802F00B
:10833000C9FD002010BD042010BD00002DE9F84F3C
:10834000204E8246934670880D46814237D84FF6BC
:10835000FF784FF0000944468DF80090684600F021
:1083600057F93778707808F0ABFFB84204D07478CA
:10837000707808F0A5FF70709DF8000000F06AF9B1
:1083800044451AD0B068BAF1000F40F834B00DD0AF
:1083900065B17188F0682A4604FB01005146FEF77A
:1083A00095F8B06800EBC400858003E000EBC400E2
:1083B000A0F804900020BDE8F88F0420FBE7092016
:1083C000F9E70000482C002010B50B4C20786178AC
:1083D000814210D022786188E068A36802FB010026
:1083E00003EBC20153F8322089889047207808F0C7
:1083F00067FF2070EAE710BD482C002010B5CB00C5
:1084000008339CB2930701D0072010BD054B9A603A
:108410002244DA6000225A701A70588099801046FF
:1084200010BD0000482C0020014802F084BB000071
:10843000602C00203AB100680129426100D000217F
:1084400001610020704707207047000038B51148CF
:1084500008235822416800910F49006808F03CFF4A
:10846000002815D10D4A69460D4802F069FB040049
:108470000ED101210A4802F0DEFB0123094A194608
:10848000074802F030FB06490120083908702046F1
:1084900038BD000048670300A06E00206142030061
:1084A000602C0020FFFF7F0070B50446007F0D4662
:1084B00008B1002070BDA26102F0C0FE401941F178
:1084C0000001C4E90201206900B125612146BDE82F
:1084D000704000200CF070BE01460020087701209B
:1084E0000CF06ABE70B50A4E01460A48B478FFF730
:1084F000FCFE05464CB10020B070711C0122C81D65
:1085000009F0A8F908B1FFF7E5FE284670BD0000A4
:108510007C2C0020F86E0020F0B5244E89B01F4658
:108520000D00044672603FD0A888296882B22048B6
:10853000FFF7E6FE002835D1A889A96882B21C4859
:108540001030FFF7DDFE00282CD1202219496846A3
:10855000FDF7BCFF60690690207C00B101208DF81A
:1085600014008DF81C70607C00B10E208DF8150091
:10857000E0680290A0680390206801906068009015
:108580000A480D4A6946083009F030F9002809D137
:10859000B0702068401C05D004490122491CC81D48
:1085A00009F058F909B0F0BD0720FBE77C2C00204A
:1085B000F86E00205C670300C55D030010B501463E
:1085C0001048FFF7ADFE040019D10F480F4A01789B
:1085D000515C19B1001D0BF043F802E00C300AF0B9
:1085E0001BFF60B9084907480839FFF77EFE30B91C
:1085F000054901220839044809F03CF9044620469F
:1086000010BD0000086F0020842C0020042C0020E6
:1086100030B5EFF3108372B60C4A9468012184B927
:1086200091604FF0E021D1F88051094C2540156050
:10863000C1F88041D1F8844154604A17C1F88421BF
:1086400000210170002B00D162B630BD186F0020F0
:10865000FC06FFBD0B498A68002A11D000280FD103
:10866000EFF3108072B60B684FF0E022C2F80031D1
:108670004B68C2F8043100228A60002800D162B63B
:1086800070470000186F00202DE9F041054608688A
:108690000C46411C4FF0A0474FF0010606D006FAE9
:1086A00000F1C7F80815206809F063FA6068411CFA
:1086B00002D0002109F04BFA2968A069C1F824050D
:1086C000617D207D2A680143C2F86C15D4E900124F
:1086D0002868C0F81425C0F80C15207D012815D194
:1086E000A068411C02D0002109F031FAE068411C69
:1086F00005D08640C7F80865E06809F03AFAD4E981
:1087000002122868C0F80825C0F81015BDE8F081ED
:108710002DE9F041054608680C46411C4FF0A04782
:108720004FF0010606D006FA00F1C7F808152068D8
:1087300009F029FA6068411C02D0002109F010FA02
:108740002968A069C1F82405617D207D2A6801435C
:10875000C2F86C15D4E900122868C0F80C15C0F8EE
:108760001425207D012815D1A068411C02D00021CC
:1087700009F0F6F9E068411C05D08640C7F80865A5
:10878000E06809F000FAD4E902122868C0F8082568
:10879000C0F81015BDE8F08170B51500044609D089
:1087A0000020286034B1206820B1A079800703D070
:1087B000072070BD0E2070BD084600F041FBC0B21E
:1087C000142804D02179814203D8042070BD0520EB
:1087D00070BDE288216800FB02102860002070BD97
:1087E0002DE9FC410446002016880F46108094F8BD
:1087F0002D101546804631B132462946384600F0E4
:1088000033FB00287DD1A17801B32888001DB04238
:1088100001D90C2018E0684679DFA8B92A8803211D
:10882000B95428881922401C80B228803A542888DC
:10883000401C80B22880C119BDF800000DF063FC17
:10884000298808442880404600285AD1E27802212D
:10885000CAB1288894F90320C31CB34201D90C2063
:108860000FE0395428880123401C80B228803B54F3
:108870002888401C80B228803A542888401C2880D0
:108880000020002875D16268CAB1288892F90020BA
:10889000C31CB34201D90C200FE0395428880A21A7
:1088A000401C80B2288039542888401C80B228801F
:1088B0003A542888401C28800020002859D121895A
:1088C00051B1CDE900563B460622022104F10800D1
:1088D0000DF030FE00284CD1218A51B1CDE900566F
:1088E0003B460722032104F110000DF023FE00286F
:1088F0003FD1218B61B115223B46142104F11800B0
:1089000000E036E0CDE900560DF014FE002830D12D
:10891000D4F820C0BCF1000F07D033462A463946B0
:10892000604601F028FB002823D1D4F824C0BCF114
:10893000000F07D033462A463946604608F0AAFBA6
:10894000002816D194F82C1039B133462A463946FE
:1089500020460CF04BF800280BD12178002908D0D4
:1089600002B033462A4639462046BDE8F04108F0B9
:1089700053BCBDE8FC8118B504460020ADF80000EA
:1089800013466A46204600F006F8002802D0BDF8DB
:108990000000204418BD70B5E0B1DAB1002402E057
:1089A000045D2C44A4B2651C8D4206D21688A642F2
:1089B000F6D8061976789E42F2D18C420AD2A31CD0
:1089C000005D9BB200B1401E0004000C02D01C18D8
:1089D0008C4201D9002070BD138070BD80F830102A
:1089E00070472DE9F0410D00044605D024B195F8FB
:1089F0007A00012803D006E00E20BDE8F08195F84A
:108A00009800012828D0D5F8A000042824D0D5F853
:108A10009C00042820D00026A6702C2205F17801A5
:108A2000201DFDF753FD84F83060D5F8A400606385
:108A3000D5F8A800A0634FF6FF70A4F8240404F54D
:108A40008260C4F82004C4F82664A4F82A6484F878
:108A50002C64207810B104E00720CEE7FF2084F8D2
:108A6000540004F155072046C4F81074FFF77AFB50
:108A7000A4F8140404F2144239462846FFF7B0FE65
:108A80000028BAD104F23120C4F818042046FFF7B8
:108A900069FBA4F81C0404F21C4205F13C00D4F864
:108AA0001814FFF79DFE0028A7D1012584F8515026
:108AB000208BA4F8480084F83C50266484F8506069
:108AC00060690021606404F13C02781E72DF0028B6
:108AD00093D1257091E710B50288102A1BD0112A76
:108AE00020D0262A1DD1007A0C46012801D0022868
:108AF00017D1A0780521401CB0FBF1F201FB120157
:108B0000204600F03AF800280BD0A16B002908D0CD
:108B1000BDE810400847C27B012A02D18088A1F835
:108B2000240410BD0C46002184F82E148088B4F86B
:108B300024148842F5D120790028F2D10121DFE701
:108B400010B5044690F8540074DF012084F82E0418
:108B5000002084F8300484F850000621204602F0FA
:108B6000BFF9002808D1A178204600F006F810B11E
:108B7000A16B01B18847002010BD2DE9F05F0446CC
:108B800000788846B8B184F802800025C4F82654DD
:108B9000A4F82A5484F82C54A079012610B1B8F115
:108BA000010F0BD0E07990B1B8F1010F06D0B8F108
:108BB000020F03D00BE00820BDE8F09F616B21B1EC
:108BC00084F82D640820884701E084F82D5404F2CD
:108BD000274100200A5C0AB1304603E0401C062809
:108BE000F8D3002002274FF0030BB8F1010F09D092
:108BF000B8F1020F0ED0B8F1030F10D0B8F1040F86
:108C000015D110E0A17929B194F8241011B908B157
:108C100030460DE0E17911B108B1384608E0207A1C
:108C200008B1584604E0607A08B1042000E0284604
:108C3000A070616B41B1032801D0042804D1607990
:108C400010B194F82E0498B184F82F5404F13C002C
:108C500018218046FDF761FC84F83C6004F12C008B
:108C60000BF0F8F858B194F82C0084F8510008E0A3
:108C700084F8305484F82F6407208847E6E784F8A6
:108C8000516094F8240058B104F128000BF0E2F888
:108C900020B194F8280084F8520001E084F8526072
:108CA00084F85050A27804F2264104F582694FF00E
:108CB000060A052A67D2DFE802F07F030F2344008B
:108CC00084F83160C4F82054C4E9101584F83C706D
:108CD0008020A4F8480058E084F8317094F82420EB
:108CE000404612B10722027001E080F800B0228AEB
:108CF0008281C4F820544160E168C8F8081044E05B
:108D00006069C8F80800208BA8F80C0094F82400CB
:108D100045460028204602D084F83CA001E084F8B3
:108D20003C600DF0D3FA48B12F750421204602F0C3
:108D3000D7F840BB052184F8311022E084F831B027
:108D40001FE0E069C8F80800208CA8F80C0094F82F
:108D5000240045460028204602D084F83CA001E0CB
:108D600084F83C600DF0B2FA40B12F750421204622
:108D700002F0B6F838B984F831A002E0042084F893
:108D80003100C4F82094A07878B1424604F1540030
:108D9000D4F8201472DF00287FF40EAF94F830105E
:108DA00094F8540073DF0028F6D1616B11B194F888
:108DB000310088470020FFE684F83150F5E70000D5
:108DC0002DE9F041040012D001461C221948FDF79C
:108DD0007DFB1848184D0560206858B17ADF0028DF
:108DE00006D12068016829604068686006E00E20AE
:108DF000BDE8F08110487BDF0028F9D10D4D00243B
:108E0000143D4FF6FF76A5F1200704EB840005EB37
:108E1000800007EB441120F8046B084A0160002130
:108E2000FFF708FB08B10320E2E7641CEDD0002047
:108E3000DEE70000AC6C0020FC2B00206162030028
:108E400010B5044600F006F808B1204610BD142005
:108E500010BD0000142801D30020704701460148CE
:108E600008F084BACC6C00207CB5054608880C4616
:108E70000930904201D90C207CBD68466DDF002886
:108E8000FAD121880820685420881B21401C80B218
:108E9000208029542088401C80B220802844DDF89E
:108EA00001100160BDF8051081802088801D80B20E
:108EB00020809DF80010490800D001212954208805
:108EC000401C208000207CBD10B51B4C01886068D0
:108ED00010290ED011292DD1401E60602AD1FFF734
:108EE00049F9002826D02168002923D0BDE8104088
:108EF0000847E0B900210122084600F015FC08B13E
:108F0000072810D107220221012000F00DFC08B132
:108F1000072808D104220221002000F005FC08B136
:108F2000072800D1002010B1216801B1884760688E
:108F3000401C606010BD0000F42B00202DE9F047BC
:108F400001883B4E40F2F3194FF6FF7510291BD0F4
:108F500011293ED0122954D0502946D1C188F28916
:108F6000841D914241D1618902293ED186883046D3
:108F700002F01AFE050038D004F10C0000F043FAAC
:108F8000A8B3294630464EE0C17B878804460129B4
:108F90002BD1A846284602F007FE050017D02F80E7
:108FA00000202872234843464A460168C5F80A1043
:108FB0004068C5F80E0004F1100105F10A0007F041
:108FC000E7FE6872F08900280FD129462AE00420C4
:108FD00013E0808802F0E8FD040006D06068FFF727
:108FE0007BFA08B10BF06EFA2580BDE8F087FFE749
:108FF0006868FFF771FA0028F7D0BDE8F0470BF07A
:1090000061BA87880646384602F0CEFD0400ECD0EF
:109010002B464A4606F1080104F10A0007F0B8FEA3
:10902000607221463846BDE8F04700F0EDBF000011
:10903000AC6C0020FC2B00202DE9F04F0646B0F868
:1090400004800088DFF808B197B010280DD01128EF
:109050004FD00BF1100319286AD01A2875D1307A35
:109060000409042C4CD301224BE0394F083FB86867
:10907000C0431690796816A808F09FF916990BA8B6
:1090800000F05AFF2C220BA96846FDF71FFA0025B5
:10909000EA460EE00AEB45000024B0F8049007EB26
:1090A00084004946001D08F056F9641C1E2CF6D3B6
:1090B0006D1C0098A842EDD84446B8F1140F05D3B2
:1090C00017B00420BDE8F04FFFF704B941465846F9
:1090D00008F057F92146381D08F053F9F07B0228B3
:1090E00033D117B04146BDE8F04F1948001D08F0D4
:1090F00048B917B041465846BDE8F04F08F02BB9C3
:1091000000224146184601F0E6FE032C01D301225D
:1091100000E000220E4841460C3001F0DCFE022C3B
:1091200001D3012200E0002209484146083007E04F
:10913000307A002809D1707A4146C0F3C00218463F
:1091400017B0BDE8F04F01F0C6BE17B0BDE8F08F14
:10915000D06C002038B5044601882E482E4A2F4D89
:10916000801AC00821293BD015DC2B4A294B4FF02F
:109170000300A3EB02024FEAD20200EB02401029E7
:1091800013D0112925D0132929D100231A4685216E
:10919000A8887FDF17E03B2938D0522930D05629E4
:1091A0001DD1A088132176DF0DE01DA108F0A8FFD6
:1091B000072000F0DBFA08B1FFF78CF8A188A9803E
:1091C0001A4808F00DFA002809D0BDE83840FFF72A
:1091D00081B817A108F094FF4FF6FF70A88038BD42
:1091E000042101EB004016A108F08AFF0020009046
:1091F000A08869468FDF0028F1D0FFF76BF838BDF3
:1092000000231A461946A888B1DFDCE7A08813219D
:1092100076DFD8E77482030004820300A46700208D
:10922000436F6E6E6563746564000000F08E00200D
:10923000446973636F6E6E6563746564000000005B
:109240005048592075706461746520726571756548
:1092500073742E00F0B585B015460F4604001E4607
:1092600014D004AA19466069FFF796FA00280BD1BA
:10927000A6F57F40FF380BD0049848B1007848B17C
:109280002888F42808D9072005B0F0BD0E20FBE798
:109290000520F9E70820F7E70020009001900290F0
:1092A0000390A088ADF800000120CDE902578DF8A9
:1092B000020069463046AEDFE6E7000070B5040004
:1092C00032488EB008AE2DC886E82D005BD0E9B3D9
:1092D0000868A061214608A862DF002851D12078E3
:1092E00001258DF83200ADF83050A21C0CA928469B
:1092F000A8DF002845D120216846FDF70EF902209D
:10930000ADF8000020788DF802008DF80C509DF823
:109310000D00F426ADF8046040F00C008DF81150FB
:10932000ADF806508DF80D008DF81250608804F1EC
:109330000C02694600F0B2FC002822D120216846C8
:10934000FDF7EBF80320ADF8000000E01BE020780B
:109350008DF802008DF80C509DF80D008DF811501D
:10936000ADF8046040F010008DF81250ADF80650D2
:109370008DF80D008DF813506088221D694600F0AD
:109380008DFC0EB070BD0E20FBE7000004670300EB
:1093900070B588B00446002927D0002C25D0084697
:1093A0002188102923D0502927D057291DD10546BF
:1093B000A188406906AAFFF7EFF9002815D1069E9B
:1093C0003078002811D0A86900280ED018216846EE
:1093D000FDF7A3F801208DF800000195A088ADF8F5
:1093E00008000396A9696846884708B070BD08B0B0
:1093F0002146BDE870400AF06BBA08B02146BDE8CE
:1094000070400AF0E5BC007800F0010070470000F1
:109410000149085C70470000BA6603000649085C11
:109420004FF0A041D1F81015C14011F0010000D05B
:10943000012080F001007047BA6603002DE9FC416D
:109440000546C0074FF000060ED0104F0024012241
:10945000385D009600231146019608F015FB641C48
:10946000042CF4D300F046F8A8070DD5074D0024CE
:109470002D1D0022285D032300961146019608F059
:1094800003FB641C042CF4D3BDE8FC81B666030026
:1094900007494FF0A0420B5CD2F804050121994026
:1094A00021EA0003C2F808350140C2F80C157047E4
:1094B000B66603000249085C012108F0BFBB00004A
:1094C000B66603000249085C002108F0B7BB000043
:1094D000B66603000649085C4FF0A041D1F80415B8
:1094E000C14011F0010000D0012080F00100704760
:1094F000B666030010B500242046FFF7DBFF641CAE
:10950000042CF9D310BD10B500242046FFF7DAFF74
:10951000641C042CF9D310BD10B50146064A4FF067
:10952000FF340020135C8B4201D1044602E0401C52
:109530000428F7D3204610BDBA66030070B50C4D61
:109540000C004FF0000628600BD0012000F06AF8F4
:1095500008B1022004E0002000F064F800B10B2004
:109560002070686810B9FEF705FE0646304670BDEB
:10957000F42B002010B5002000F032FA08B10628C4
:1095800006D1012000F02CFA08B1062800D10020F5
:1095900010BD00002DE9F0470D468146FFF7BCFFE6
:1095A0000446042836D2DFF874801B4B1C4EA8F109
:1095B0000C0725B3012D0ED0022D2BD100EB40005E
:1095C00030444578002D25D0B968002922D028469E
:1095D000BDE8F047084704EB4400355C064470786A
:1095E00048B10E4A4FF48041093A9868FEF75CFF93
:1095F00008B987F80390B17808F80410E2E7986892
:10960000FEF76AFF04EB4401314418F804008D783A
:10961000A842D7D0BDE8F087C0660300F02B002039
:10962000486C0020042801D2FFF7F8BE00207047E4
:1096300010B5254A001F0E2845D2DFE800F030445F
:10964000443A44442C444444070707071F48204930
:109650005378401AC008032101EB00445BB100209D
:109660005070FFF747FF0BF0EBFF08B1FEF732FE3B
:10967000204618A10BE001205070FFF744FF0220A4
:109680000BF0CAFF08B1FEF725FE20461BA1BDE87E
:10969000104008F035BDBDE810400BF061BA132151
:1096A000908876DF0DE000280DD0BDE81040FEF771
:1096B00011BE9088A0F57F41FF3904D11948FFF70A
:1096C0003FFA0828EFD110BDA46700207482030080
:1096D0000482030053746F7070696E672073796E33
:1096E0006320626561636F6E207472616E736D6971
:1096F0007373696F6E210D0A00000000537461726C
:1097000074696E672073796E6320626561636F6E42
:10971000207472616E736D697373696F6E210D0AC7
:1097200000000000FC8E002030B503460020042B12
:109730000DD2012A02D101290BD000220A4D03EBE0
:109740004304631969B1012907D0022907D0072012
:1097500030BD03F10E02D2B2F0E72A5530BD5A7087
:1097600030BD9A7030BD0000486C002004490246AC
:1097700000200979C90702D0104600F04DB87047A3
:10978000E42B002070B506461E480024C0E90161A4
:10979000B00720D50025012211462846FFF7C4FF57
:1097A0006D1C0446042D02D2002CF4D013E094B9B1
:1097B00040F2333204211448FEF70CFD04000AD1B4
:1097C000FEF7F6FC040006D10F48104A0021001FE6
:1097D000FEF730FE0446F00712D00120FFF72EFE00
:1097E00074B909480A4A00210C38FEF723FE040028
:1097F00006D10548074A01210838FEF71BFE04463A
:10980000204670BDE42B0020CC660300159C0200AE
:10981000010E0300AB8102002DE9F05F6E4D04469E
:1098200000266878B34618B185F801B007F0D2FA7F
:109830006A4F4FF47A694FF4C87A4FF00108182C38
:1098400069D2DFE804F00C1313384754696E727B59
:10985000727BC58484848484B3B6B9BCC5C507F063
:10986000B9FA3868FEF738FE06465CE00020FFF7DC
:1098700031FE00284FF0000008D0FFF71BFE022C3D
:1098800002D14FF4E16008E0484606E0FFF71AFE17
:10989000022C01D1C82000E05046410CC0034FF417
:1098A0007A72801841F100012C7052000023FCF7FD
:1098B000A7FD01462AE00020FFF70CFE00284FF02C
:1098C000000004D0FFF7F6FD4FF44870E5E7FFF71E
:1098D000F9FDDFE70020FFF7FDFD00284FF0000055
:1098E00002D0FFF7E7FDCFE7FFF7ECFDD4E700205C
:1098F000FFF7F0FD00284FF0000002D0FFF7DAFD7F
:1099000001E0FFF7DFFD2C7040F6CD410022386802
:10991000FEF7CAFD064646E00020FFF7B9FD2C70B1
:1099200008E0002051E02C703DE085F80180012026
:10993000FFF7AEFD002240F26661E8E785F801809E
:109940000120FFF7A5FD00224FF40051DFE7786802
:10995000FEF7C2FD0646D4F1110000D02EB1022060
:10996000FFF7A8FD85F802B01DE0012816D980B2E6
:10997000C8214843C117C90341EA5041C0034FF40D
:109980007A72801841F1000152000023FCF738FD83
:10999000014600227868FEF787FD06460220FFF7A1
:1099A00091FD85F802803046BDE8F09F07F012FA7D
:1099B000B9E707F00FFAB4E707F00CFA04E007F094
:1099C00009FA0020FFF77EFD0120FFF77BFDAAE7E3
:1099D000FFF799FDA7E70000E42B0020C066030015
:1099E00001210CF00FBE00002DE9F84F0546841C44
:1099F00000208DF8000092460F464FF0010868469F
:109A0000FEF706FE1D4E06F21C4970683860D6E966
:109A100001011B4F401A3968081A0EE0012148461F
:109A200007F0C5FC07F002FA0146484607F0BFFC04
:109A3000D6E90101401A3968081A401C8442EDD861
:109A4000B8F1000F12D0BAF1000F03D0052065F372
:109A5000891002E0062065F39F5071683A68114052
:109A600006EB8101C8607068204470609DF80000BA
:109A7000FEF7F0FD4046BDE8F88F0000C8700020FA
:109A8000BC2C002070B50D4604460A2902D10D21D8
:109A9000FFF7F8FFA0682268411CA1601554D4E9C3
:109AA0000101814204D32046BDE8704007F0FFBEAB
:109AB00070BD0000044881684068814201D10120E6
:109AC0007047002070470000C87000202DE9F84F53
:109AD0001546DDE90B84DDF828901E460F468246C8
:109AE00094B150212046FCF718FDF9B243464A468E
:109AF0005046009400F026F840B180C4002084E86D
:109B000061000120BDE8F88FAFF300803A4603A161
:109B1000022006F0F1FB0020F4E70000556E6578A6
:109B20007065637465642073656E736F7220696419
:109B30002025642E20446174612049676E6F726530
:109B4000642E000070B586B01E460A9C154604F1CE
:109B50001000222947D2DFE801F04621213D2146AD
:109B600046464621212B4646112D113535382B46C8
:109B7000354646353246354646463D3D182229464D
:109B80006846FCF7A3FC9DE80700103403AB07C44C
:109B900093E8070007C43078207021E0286820612E
:109BA00068686061A868A061307884F8280017E0D0
:109BB0001968216210222946FCF788FC10E0286809
:109BC00020610DE0012020610AE0286820616868BA
:109BD000606105E02868206168686061A868A0612C
:109BE000012006B070BD0020FBE70000024630B542
:109BF000074800210478436805E003EBC1000578BD
:109C0000954203D0491CA142F7DB002030BD000083
:109C1000302C002000780221FFF7BCBC05494FF032
:109C2000FF32082841F8202002D3084480F8482059
:109C300070470000586D0020F0B506464FF0FF3029
:109C4000002A02D04FF0000301E04FF0080302D0D9
:109C50004FF0080501E04FF00C050B4C04E054F800
:109C600023707F1C03D05B1CAB42F8D3F0BDA51959
:109C700058B285F8300044F82310002AF6D1E118D4
:109C800081F84860F0BD0000586D0020024908448A
:109C900090F9300070470000586D00202DE9F04326
:109CA0008146887891B090460C4600B901208DF825
:109CB0003E0020880025ADF83C000D95607C0DA984
:109CC0000AF028FF0DAEA07C711C0AF023FFE07B98
:109CD00000289DF8360002D040F0080001E020F096
:109CE00008008DF83600217C11B140F0100001E031
:109CF00020F010008DF83600217B11B140F00100FA
:109D000001E020F001008DF83600217D09B102212B
:109D100000E0012161F342008DF836001C21684605
:109D2000FCF7FBFB607BC10601D4800617D50E95BE
:109D30000EAFE07C791C0AF0EDFE9DF83800059727
:109D400020F00F00401C20F0F00010308DF838009B
:109D50009DF83A0020F00600801C8DF83A00607BE8
:109D60008DF80000A07B8DF80100142107A8FCF7F6
:109D7000D4FB0FA8CDE90706A088ADF82800A0689D
:109D800020B1E088ADF82400A0680B90A06998B3DA
:109D90000C950088ADF80800A0690CAD0CA94088AE
:109DA000ADF80A00A069406804950190A069007BA5
:109DB0000AF0B0FEA069691C407B0AF0ABFEA06906
:109DC000807A00289DF8320002D040F0080001E0BF
:109DD00020F008008DF83200A169C97A11B140F075
:109DE000100001E020F010008DF83200A169097A1E
:109DF00019B140F0010002E00DE020F001008DF803
:109E00003200A169897B09B1022100E0012161F3DF
:109E100042008DF83200E06900B10390434607AA82
:109E200069464846AADF11B0BDE8F0834FF0FF3223
:109E300050B14FF6787330EA030305D1000705D51A
:109E400011B131F4E94001D010467047002070474D
:109E500010B5411C10D10949094A891AC9080322C1
:109E600002EB0143024607A1184608F04DF907F03E
:109E7000CBFF0028FBD1FEE710BD00007482030079
:109E8000048203004241442052433D256400000007
:109E9000192921D00EDC0F291CD006DC052919D088
:109EA000062917D0072913D114E0102912D0182938
:109EB0000ED111E076290FD006DC70290AD0712965
:109EC00008D0722904D105E07E2905D07F2903D06E
:109ED0000120704703F0C6BC0020704770B5084CE5
:109EE00005000AD010342168002901D008682060DC
:109EF00005D0496828468847F5E70834F3E770BD80
:109F0000446D0020054A012120B1012805D191703E
:109F1000FFF7E4BF51700020FAE77047446D00205E
:109F200010B5D0E90223D1E90240A11A984101D32A
:109F3000012010BD002010BD73B58CB00646002076
:109F400000900D9880B100246D4621460DA807F0C1
:109F50000DFA30B1009805EB400084800098401C59
:109F60000090641C142CF0D32C2269463046FCF778
:109F7000ADFA0EB070BD2DE9F0410D4611880646D0
:109F8000881D1446984202D90C20BDE8F081308823
:109F9000062814D34FF448674FF6FF73B84201D92F
:109FA00098420CD17288062A09D3BA4201D99A4242
:109FB00005D1984205D09A4203D0904201D907209A
:109FC00000E000200028E0D10520685420881221FC
:109FD000401C80B2208029542088401C80B2208000
:109FE000411930880CF08FF82188084480B2208015
:109FF000411970880CF087F82188084420800020DF
:10A00000C3E7FEF767B9000038B54A7A0F4B62B173
:10A0100000220A725969002906D001228DF8002019
:10A02000ADF802006846884738BD0A7A62B19B687D
:10A030004C68024619462046FEF736FA0028F3D04F
:10A04000BDE838400AF03EBA5B68F1E7AC6C00202E
:10A050002DE9F04198B00446DDE91E7815461E460C
:10A06000084601F0B9FA04AA0097CDE90182014639
:10A070002A4633462046FFF729FD002807D0A0686E
:10A0800004AB002803D0D0E900211846904718B04F
:10A09000BDE8F08170B50E4605461E481E4986B0E3
:10A0A000401AC408042000EB04402B4632461BA192
:10A0B00008F031F800200090ADF80060ADF80260C3
:10A0C00001900490059004AA6946284690DF060096
:10A0D0001DD008F0B9FC0346012000EB04442A46D9
:10A0E0001A49204608F017F8BDF8102012B9BDF83B
:10A0F000120028B1BDF81230204615A108F00BF867
:10A10000BDF814201AB12046214907F0FDFF06B022
:10A11000304670BD04820300048203005570646100
:10A1200074696E672064617461206C656E67746821
:10A1300020746F202575206F6E20636F6E6E6563CF
:10A1400074696F6E20307825782E0000FC6E030055
:10A150005468652072657175657374656420545820
:10A160002F5258207061636B6574206C656E677444
:10A170006820697320746F6F206C6F6E672062793E
:10A180002025752F2575206F63746574732E00006C
:10A19000486F030070B500240F4E10E0706800EBAC
:10A1A000C405287808F0A2FD6978012901D00121B1
:10A1B00000E000214140287800F0C6FD641C3078A2
:10A1C0008442EBDBD6E90401084303D0BDE87040CC
:10A1D0000BF00EB870BD0000302C00202DE9F84FB8
:10A1E0001D0014468846074601D0002028606946B5
:10A1F000384600F036F810B1C7F898000DE0009E20
:10A200005EB14FF0FF3A46450AD9384600F01DFCD2
:10A21000C7F898A00DB1012028600020BDE8F88F94
:10A22000A146002415E0301B102800D910201FFA89
:10A2300080F809EB040342467221384604F055FFCA
:10A24000050005D0384600F000FCC7F898A002E0F1
:10A250004444B442E7D315B1C7F89850DDE70098FD
:10A26000DCE7F8B50C0006464FF0FF3509D06B4629
:10A270000222702104F039FF28B10021C6F898505D
:10A2800008E02846F8BD9DF80010090221609DF8FD
:10A29000012011442160F8BDF8B5064600200C46A7
:10A2A00000906B46042240F2E461304604F091FED7
:10A2B0000546684602F012FF20606B4604224FF408
:10A2C000DD61304604F085FE0544684602F006FF75
:10A2D00060606B46042240F2EC61304604F079FE87
:10A2E0000544684602F0FAFEA0602846F8BDF8B5BD
:10A2F000064600200C4600906B46042240F2E471B2
:10A30000304604F066FE0546684602F0E7FE20602F
:10A310006B4604224FF4FD61304604F05AFE0544BA
:10A32000684602F0DBFE60606B46042240F2EC718E
:10A33000304604F04EFE0544684602F0CFFEA060B1
:10A340002846F8BDF8B5064600200C4600906B463E
:10A35000042240F6B401304604F03BFE0546684650
:10A3600002F0BCFE20606B46042240F6B801304685
:10A3700004F02FFE0544684602F0B0FE60606B46B4
:10A38000042240F6BC01304604F023FE0544684632
:10A3900002F0A4FEA0602846F8BD38B50C460021A6
:10A3A00000916B4604224FF4587104F012FE00280D
:10A3B0000FD19DF803009DF800109DF8022000EBDE
:10A3C00001609DF80110090401EB0221084420609E
:10A3D000002038BD38B50546002000906B460222AB
:10A3E0004021284605F056FE04466B4602224221D3
:10A3F000284605F04FFE04446B4602224C212846B5
:10A4000005F048FE04446B4602224E21284605F022
:10A4100041FE04446B4602228A21284605F03AFE9A
:10A42000204438BDF8B50646002000900C46086868
:10A43000694602F027FF034604224FF4506130467C
:10A4400005F028FE05466946606802F01BFF0346DA
:10A45000042240F60451304605F01CFE05446946CE
:10A46000A06802F00FFF0346042240F60851304670
:10A4700005F010FE05446946E06802F003FF03465C
:10A48000042240F60C51304605F004FE05446946AE
:10A49000206902F0F7FE034604224FF45161304672
:10A4A00005F0F8FD05446946606902F0EBFE0346DD
:10A4B000042240F61451304605F0ECFD054469468F
:10A4C000A06902F0DFFE0346042240F61851304630
:10A4D00005F0E0FD05446946E06902F0D3FE03465D
:10A4E000042240F61C51304605F0D4FD054469466F
:10A4F000206A02F0C7FE034604224FF45261304640
:10A5000005F0C8FD2844F8BD38B504460A460020C9
:10A510000090694610B202F0B0FE034602224FF4EA
:10A52000FF71204605F0B6FD38BDF8B5074600209E
:10A5300000900C460868694602F0A4FE0346042217
:10A540004FF4B661384605F0A5FD064669466068D9
:10A5500002F098FE034604224FF4B861384605F035
:10A5600099FD40EA06052089694600B202F085FEA1
:10A570000346022240F2E451384605F08BFD2843A1
:10A58000F8BD38B504460A460020009069461046DA
:10A5900002F078FE034604224FF48671204605F04F
:10A5A00079FD38BD38B50446082912D004DC0229EB
:10A5B00009D0042904D109E010290DD020290ED09A
:10A5C0004FF0FF3038BD4FF000700AE04FF0806070
:10A5D00007E04FF0006004E04FF0805001E04FF0E2
:10A5E0000050694602F04EFE034604224FF4F0711B
:10A5F000204605F04FFD38BD38B50446082912D075
:10A6000004DC022909D0042904D109E010290DD065
:10A6100020290ED04FF0FF3038BD4FF400200AE063
:10A620004FF4802007E04FF4003004E04FF4803016
:10A6300001E04FF40040694602F024FE0346042284
:10A6400040F2F441204605F025FD38BD38B50446FA
:10A6500000200090E12912D004DC38290BD07029A9
:10A6600006D10AE0B1F5E17F0BD0B1F5617F0AD0E8
:10A670004FF0FF3038BD002006E0012004E0032049
:10A6800002E0072000E00F20694602F0F6FD0346D5
:10A6900002224FF44271204605F0FCFC38BD38B56B
:10A6A000044600200090E12912D004DC38290BD0A8
:10A6B000702906D10AE0B1F5E17F0BD0B1F5617FD9
:10A6C0000AD04FF0FF3038BD002006E0012004E042
:10A6D000032002E0072000E00F20694602F0CDFDD4
:10A6E0000346022240F20A31204605F0D3FC38BD71
:10A6F0002DE9FC410546002016460F4600900190CA
:10A700006B4604224FF4D871284605F0C3FC04467A
:10A710006946384602F0B6FD034604224FF49E71A6
:10A72000284605F0B7FC044401A9304602F0A5FD17
:10A73000034602224FF4AF71284605F0ABFC2044DB
:10A74000BDE8FC81F8B50646002000900C4608687C
:10A75000694602F097FD0346042240F2E461304668
:10A7600005F098FC05466946606802F08BFD0346DB
:10A7700004224FF4DD61304605F08CFC0544694647
:10A78000A06802F07FFD0346042240F2EC613046EF
:10A7900005F080FC2844F8BDF8B50646002000907E
:10A7A0000C460868694602F06DFD0346042240F23B
:10A7B000E471304605F06EFC05466946606802F0BB
:10A7C00061FD034604224FF4FD61304605F062FC52
:10A7D00005446946A06802F055FD0346042240F294
:10A7E000EC71304605F056FC2844F8BDF8B5064635
:10A7F000002000900C460868694602F043FD0346BD
:10A80000042240F6B401304605F044FC0546694692
:10A81000606802F037FD0346042240F6B801304676
:10A8200005F038FC05446946A06802F02BFD03469C
:10A83000042240F6BC01304605F02CFC2844F8BD4B
:10A84000F8B50646002000900C460868694602F0FC
:10A8500019FD034604224FF4B871304605F01AFC86
:10A8600005466946606802F00DFD034604224FF478
:10A87000BA71304605F00EFC05446946A06802F046
:10A8800001FD034604224FF4BC71304605F002FC82
:10A8900005446946E06802F0F5FC034604224FF4E3
:10A8A000BE71304605F0F6FB05446946206902F0AA
:10A8B000E9FC034604224FF4C071304605F0EAFB80
:10A8C00005446946606902F0DDFC034604224FF44A
:10A8D000C271304605F0DEFB05446946A06902F00E
:10A8E000D1FC034604224FF4C471304605F0D2FB7C
:10A8F00005446946E06902F0C5FC034604224FF4B2
:10A90000C671304605F0C6FB05446946206A02F070
:10A91000B9FC034604224FF4C871304605F0BAFB77
:10A920002844F8BD38B504460A4600200090694620
:10A9300010B202F0A2FC034602224C21204605F090
:10A94000A9FB38BD08B50A0A8DF800208DF8011062
:10A950006B460222402105F09DFB08BD044A0B0A0C
:10A960001370517013460222422105F093BB000080
:10A970002C67002038B504460A460020009069463E
:10A9800010B202F07AFC034602228A21204605F02A
:10A9900081FB38BD38B50A4604466946104602F0C8
:10A9A00071FC034604224FF49871204605F072FBB7
:10A9B00038BD08B50A0A8DF800208DF801106B46E5
:10A9C00002224E2105F066FB08BD38B504460A4652
:10A9D000002000906946104602F054FC0346042211
:10A9E0004FF48871204605F055FB38BD38B5054653
:10A9F0000020044600900C291CD2DFE801F0060874
:10AA00001B0A0C0E10121416181ABE2412E0BA24D7
:10AA100010E0B6240EE0B2240CE0AC240AE0A82436
:10AA200008E0A02406E0A42404E0BC2402E0B8244A
:10AA300000E0B4246946104602F01FFC034621469C
:10AA40000222284605F026FB38BDF8B5044600264C
:10AA50004FF48060354637460090207F032120F078
:10AA6000C0022277204605F000FC05431F21204646
:10AA700003F09CFD05431E21204603F097FD05438E
:10AA800084F89C7069462046FFF7EBFB28430500DD
:10AA90000DD1761C0098F6B208B1062EDDD3207FCA
:10AAA000032140F0C0022277204605F0DEFBF8BD0E
:10AAB00010B50021024806F090FC80F3100010BD94
:10AAC000E47400204FF480328A400168C1F84823C2
:10AAD0000068C0F8082370474FF4A07202EB8101B0
:10AAE00089B200F0A1B92DE9F04104460E464FF4B9
:10AAF000A07000EB860081B220684FF48035B5402D
:10AB0000984622F07F47C0F808532068C0F84853A1
:10AB1000206807F048FD206800EB8600C0F840750B
:10AB20002068C0F84453B8F1000F02D02068C0F884
:10AB30000453BDE8F0810068D0F8040570470000B8
:10AB400070B54479234B43F8242042791C1D04EB53
:10AB5000C202214B1579214A9A1AD3082DB1082433
:10AB6000022000EB03401EA130E005680A88C5F80A
:10AB7000082590F904208978002A4FEA411104DB66
:10AB800002F1E02282F8001405E002F00F0202F167
:10AB9000E02282F8141D90F904100125002909DB38
:10ABA00001F01F0605FA06F24909890001F1E021CA
:10ABB000C1F80021417904EBC1010D71417944F8DC
:10ABC00031000320002400EB03400EA107F098FAA7
:10ABD000204670BD982C00205C8203000482030094
:10ABE00052544320696E7374616E636520616C72A8
:10ABF0006561647920696E697469616C697A6564FC
:10AC00002E0000005254433A20696E697469616CE9
:10AC1000697A65642E00000090F90400002809DBC1
:10AC200000F01F02012191404009800000F1E02066
:10AC3000C0F8001270470A46022100F07BB84FF4BA
:10AC4000827100F0F1B8006801210160704700686E
:10AC50000121416070472DE9F05F04460E464FF434
:10AC6000A07000EB86001FFA80FA20684FF480374E
:10AC7000B7409B4622F07F45C0F848732068C0F873
:10AC800008732068D0F8048500EB8600D0F8409562
:10AC9000C0F840855146206807F085FCA9EB080004
:10ACA00020F07F40012806D1102007F059FF5146BF
:10ACB000206807F078FC2068D0F80485C0F8447359
:10ACC000A5EB080121F07F412068012900EB8600F7
:10ACD00010D0C0F840552268D2F80405691E091A40
:10ACE0006FF07F4C21F07F41ACEB0B038B4217D30D
:10ACF00061B118E06D1CC0F84055102007F030FF1E
:10AD00002068D0F8040540450AD10CE002EB86012A
:10AD10006D1CC1F840552168D1F80415814202D05C
:10AD20000D20BDE8F09F01223946204600F002F8D0
:10AD30000020F6E70368C3F84413002A02D0006835
:10AD4000C0F80413704700002DE9F84F0C46344951
:10AD5000804601EB5001C007097801D00F0901E0DE
:10AD600001F00F074FF00009424601204946FBF76A
:10AD700078FBDFF8B0A005460E46052F4ED2DFE87F
:10AD800007F003161B282C00002C47D00121404659
:10AD900009F03CFF8DF800906846FDF739FC5046FD
:10ADA000D0E904120D431643CAE9045632E00CB14F
:10ADB000022114E0002112E04CB10321404609F0C9
:10ADC00025FF4046BDE8F84F01210BF09DBB012156
:10ADD00005E0002C22D1042101E02CB103214046E2
:10ADE000BDE8F84F09F012BF0021404609F00EFF00
:10ADF000002140460BF088FB8DF800906846FDF777
:10AE000007FC5046D0E9043423EA050224EA06018F
:10AE1000CAE904219DF80000FDF71CFCBDE8F88F8D
:10AE2000806E0020302C002010B5006842581AB106
:10AE300007F0B9FB012010BD002010BD2DE9FC4733
:10AE40001D461746884682460024DFF860901DE0C4
:10AE500009EB04002B466A4601A900F009FA0646F0
:10AE6000A8EB0400B04213DBBDF80010BDF80400ED
:10AE7000FEF7DCFF30B15046FFF7E7FD4FF0FF3043
:10AE8000BDE8FC8738883444401C38804445DFDB0B
:10AE900055B1698AE88B01446982A98A0844A8826D
:10AEA000E888E98A0844E8800020E9E75C7F002020
:10AEB000826883881A4003689A5C0A708168491C1A
:10AEC00081607047C26883881A4003689954C168DA
:10AED000491CC16070470AB106F053BA06F03BBA8C
:10AEE00070B50D460446B0F81414D0F810040122D1
:10AEF000FDF741FD00B1057004F13C0204F58261EB
:10AF000004F1540072DF70BD10B50446C0B2FDF705
:10AF100055FB204610BD000010B5002821D0114B74
:10AF20000022001F196803E0814203D80A464968DD
:10AF30000029F9D152B11368841A9C4204D10068E7
:10AF400018441060104602E0506000E0186039B10B
:10AF500002680B1A934203D10B681A4402604968D5
:10AF6000416010BDE86700202DE9F04706462448FF
:10AF7000244BDFF88880C01A0C46C7084988B8F807
:10AF80000420032040F6772900EB074591420CD1BD
:10AF90002188494509D1A0881BA1C01E82B2A8F80A
:10AFA00006202846134607F0B6F804203388728836
:10AFB00000EB07401BA107F0AEF86088B8F804105A
:10AFC0004746884208D12188494505D1A2882846AC
:10AFD000134623A107F09FF86088B98888420BD1F7
:10AFE0002088A0F55A417A3906D132792846BDE841
:10AFF000F04722A107F088B8BDE8F087A4670020D9
:10B00000748203000482030044617461206C656EE5
:10B010002069732073657420746F20307825582858
:10B0200025642900415454204D54552065786368A7
:10B03000616E676520636F6D706C657465642E204A
:10B0400063656E7472616C2030782578207065724B
:10B050006970686572616C203078257800000000A6
:10B060004D54552073697A65206973207365742087
:10B07000746F203078255828256429004C4C2070A6
:10B0800061636B65742073697A65206973207365E9
:10B090007420746F2025640010B50949094806F032
:10B0A00013FA08B1FDF716F9F721064806F000FA81
:10B0B000002803D0BDE81040FDF70CB910BD00001A
:10B0C00069AF0200DC8E002010B58CB004462C2243
:10B0D0002D496846FBF7FAF9152269462046FBF729
:10B0E00061FD03460121204602F022FB00284FF0BB
:10B0F0002A0120460DD002F01BFB0028B4F84602BE
:10B1000004D0B4F84812884200D30846A4F80601D7
:10B1100005E002F00DFB10B1B4F84802F6E7B4F810
:10B12000540120B1B4F82001984200D80346B4F885
:10B13000580120B1B4F82201984200D80346B4F86F
:10B14000560120B1B4F82401984200D803462721C3
:10B15000204602F0EDFA20B91421204602F0E8FA68
:10B1600010B1052B00D305231F21204602F0E0FA81
:10B1700020B90B21204602F0DBFA10B1052B00D3D9
:10B1800005230CB0184610BD006B030010B588B045
:10B19000044620221A496846FBF798F90F226946AF
:10B1A0002046FBF7FFFC03461021204602F0C0FAC0
:10B1B00000284FF02B0120460BD002F0B9FA0028EE
:10B1C000B4F84A020AD0B4F84C12884206D30846B2
:10B1D00004E002F0ADFA18B1B4F84C02A4F808018A
:10B1E0001F21204602F0A4FA20B90B21204602F0CC
:10B1F0009FFA10B1052B00D3052308B0184610BDE7
:10B200002C6B030001460020022902D24FF461702A
:10B2100070478A1E022A02D24FF4E17070470A1F5B
:10B22000042A01D2E1207047A1F10802092A01D2C3
:10B23000702070471129FCD33820704710B50B4897
:10B24000FFF779FC094A083AD2E90434C018D2E978
:10B25000063244F10001C31A71EB020204D24FF02E
:10B260008072801841F1000110BD0000602C0020A8
:10B2700070B5054602202C8864BA0C80240409D5D8
:10B2800008203BB15C88641C5C80B3F85440641CAB
:10B29000A3F854400C88640413D5801D002B03D000
:10B2A0001C8C04F101041C8400F1060009D01C89E7
:10B2B00004F101041C81B3F8564004F10104A3F821
:10B2C00056400C88A40404D5801D13B19C8B641CCB
:10B2D0009C830C88E40404D5083013B15C89641C99
:10B2E0005C810C88240504D50C3013B1DC8B641C04
:10B2F000DC830C88640504D50E3013B1DC8A641C31
:10B30000DC820C88A60500D5801DE40504D50E302E
:10B3100013B11C8D641C1C850C78A40604D50C305C
:10B3200013B19C88641C9C800C78E40604D5001D35
:10B3300013B19C8C641C9C840978090704D5698826
:10B34000801C49BA118001E00021118089B24C04AF
:10B3500000D5801C8C0400D5801CCC0400D5801C3A
:10B36000490506D5801C23B1B3F85C10491CA3F82D
:10B370005C101178090605D5801D1BB133F85E1FDE
:10B38000491C1980801C70BDF8B51A481A4A6946D4
:10B390000068009003208DF80100022007F040FCB7
:10B3A00008B1FCF797FF0121022007F0E9FB12200A
:10B3B00006F0F3FB132006F0F0FB142006F0EDFB83
:10B3C000192006F0EAFB4FF0A0444FF00076C4F8D5
:10B3D00008657511C4F808554FF47A77384604F5B6
:10B3E000A16406F085F966606560384606F080F96C
:10B3F000F8BD0000106A030039B4020010B5C0B2F5
:10B40000FEF7F4FB0446007807F070FC0146607814
:10B41000012801D0012000E0002090EA010F08D0AF
:10B420000448D0E90410014303D1BDE8104009F0FD
:10B43000DFBE10BD302C002010B50446192006F0E8
:10B44000EFFB022C0FD10A49886810B1401C8860BC
:10B4500009E0012088600021064A0846FCF76EFFDB
:10B4600008B1FCF737FFBDE81040192006F0D8BB43
:10B47000182D002079B4020070B50D4C4FF0A04596
:10B480004FF48016A0680EE0C5F80865206968B121
:10B49000416859B1496909B100688847C5F80C6528
:10B4A000A068401EA0600028EED170BDAFF3008000
:10B4B000182D0020F0B415460E4684682946304603
:10B4C000A446F0BC1A466047F0B415460E46C46860
:10B4D00029463046A446F0BC1A4660477FB5022094
:10B4E0008DF805108DF8040001208DF80600089CE9
:10B4F0006846CDE902038DF800208DF807400AF078
:10B500003BF908B1FCF7E6FE202201A90F4806F03E
:10B5100057F908B1FCF7DEFE0D4E4FF0A0454FF491
:10B520008024C5F80C4500F0CEF8C5F808457078C1
:10B530000028F6D00AF0E0F8041E01D0FCF7CAFE9D
:10B540000020707004B0204670BD0000C869030080
:10B55000142D00202DE9F84F0546DDE90A78781C06
:10B56000C4B29B4692468946204605F05DFD0646DC
:10B5700000F801AB3A465946FAF7A8FF0AF0FCF882
:10B5800008B1FCF7A7FE494632462346281DCDF8F0
:10B59000008007F081FD08B1FCF79CFE0D4F4FF0D5
:10B5A000A0444FF48025C4F80C5500F08CF8C4F882
:10B5B000085538780028F6D00AF09EF8041E01D00D
:10B5C000FCF788FE002038703046FFF7A5FC2046C7
:10B5D000BDE8F88F142D0020142833D2DFE800F0E6
:10B5E0000A0C0E10121416181A1C1E2022242628CB
:10B5F0002A2C2E30012070470420704720207047ED
:10B60000212070470E207047102070471A20704785
:10B6100012207047132070470F2070470B2070478F
:10B62000142070470220704711207047192070477E
:10B6300016207047092070470A2070470320704782
:10B640001C2070474120704722283AD2DFE800F0E2
:10B65000391529351739393939313325393919230C
:10B660001B2B1F2127392F39392D1D3937393939EE
:10B6700011130220704703207047002070470120FB
:10B680007047042070470520704706207047072048
:10B69000704708207047092070470A2070470B2028
:10B6A00070470C2070470D2070470E2070470F2008
:10B6B00070471020704711207047122070471320E8
:10B6C00070471420704710B506F09EFB002803D188
:10B6D000BDE8104006F0BEBE10BD0000054810B524
:10B6E0000FC800F009F8002803D0BDE81040FCF7AF
:10B6F000F1BD10BDF86B00202DE9F0478046814F69
:10B70000894616460024C1F3074070B30F213869FB
:10B7100000F09DFE0446FEF79BFB0B21386900F00C
:10B7200096FE04442046FEF793FB0321386900F09F
:10B730008EFE04442046FEF78BFB0421386900F09E
:10B7400086FE04442046FEF783FB0121386900F0A1
:10B750007EFE04442046FEF77BFB0221386900F0A0
:10B7600076FE04442046FEF773FB6748674B4FF0B4
:10B770000302A0EB03004FEAD0005FEA186102EB7E
:10B7800000451CD0284662A106F0BAFC0F2138699A
:10B7900000F02CFE04442046FEF75AFB32460F21EF
:10B7A000386900F032FE04442046FEF751FB0F21B9
:10B7B000386900F03CFE04442046FEF749FB19F0CE
:10B7C000FF0F1CD0284655A106F09AFC0B213869C2
:10B7D00000F00CFE04442046FEF73AFB32460B21F3
:10B7E000386900F012FE04442046FEF731FB0B21BD
:10B7F000386900F01CFE04442046FEF729FBC9F31B
:10B800000720E0B1284648A106F07AFC03213869F8
:10B8100000F0ECFD04442046FEF71AFB32460321FB
:10B82000386900F0F2FD04442046FEF711FB0321C5
:10B83000386900F0FCFD04442046FEF709FB18F0CF
:10B84000FF0F1CD028463DA106F05AFC04213869A0
:10B8500000F0CCFD04442046FEF7FAFA32460421FB
:10B86000386900F0D2FD04442046FEF7F1FA0421C5
:10B87000386900F0DCFD04442046FEF7E9FAC8F31D
:10B880000720E0B1284630A106F03AFC01213869D2
:10B8900000F0ACFD04442046FEF7DAFA32460121FE
:10B8A000386900F0B2FD04442046FEF7D1FA0121C8
:10B8B000386900F0BCFD04442046FEF7C9FAC8F31D
:10B8C0000740D8B1284623A106F01AFC02213869A6
:10B8D00000F08CFD04442046FEF7BAFA32460221FD
:10B8E000386900F092FD04442046FEF7B1FA0221C7
:10B8F000386900F09CFD2044FEF7AAFA0020BDE85C
:10B90000F0870000182D00207482030004820300D9
:10B9100053746172742051554154360053746172EE
:10B920007420515541543900537461727420394464
:10B930006F462045554C455200000000537461721B
:10B9400074204759524F0000537461727420414370
:10B9500043454C005374617274204D414700000010
:10B960000148406870470000182D00202DE9FE4F67
:10B970005949052004F0D4FC58A1032004F0BCFC74
:10B980005FA1032004F0B8FC54A1032004F0B4FC30
:10B9900006F03AFA0028FBD1624800688047054665
:10B9A000FEF756FA60486149401AC108032000EBCF
:10B9B00001445FA1204606F0A3FB06F025FA00280B
:10B9C000FBD120465DA106F09BFB06F01DFA002886
:10B9D000FBD15E4B43F2D279A3F1080251495C4896
:10B9E000CDF8009000F07CFA06F00EFA0028FBD1AA
:10B9F000204658A106F084FB06F006FA0028FBD189
:10BA0000524E53481C3E306106F0FEF90028FBD12F
:10BA10003069B04602A900285CD04268002A59D09B
:10BA200012686FF0010612B10068904700E03046DE
:10BA300047193846FEF70CFA20469DF808204AA11F
:10BA400006F062FB06F0E0F90028FBD14FF4FA752E
:10BA50004FF47A7A504607F08BF86D1EFAD12046E3
:10BA600044A106F04DFB06F0CFF90028FBD1D8F831
:10BA70001000454670B3416861B3896811B1006830
:10BA8000884700E0304607443846FEF7E1F9204693
:10BA90003DA106F035FB06F0B7F90028FBD10021E7
:10BAA0002A4A28694B464FF0010C0D4690B1446874
:10BAB00084B1246924B1CDE900C50068A0470646D9
:10BAC000F019FEF7C5F934480FC8FFF715FE00203E
:10BAD000BDE8FE8FAFF30080A511030023232323CD
