:020000040002F8
:10600000C0C90020C5630200CD630200CF63020057
:10601000D1630200D3630200D563020000000000D8
:10602000000000000000000000000000D763020034
:10603000D963020000000000DB630200DD630200A0
:10604000756B0200DF630200B96F02003D6C020055
:10605000DF630200DF6302009D6A0200DF6302006B
:10606000916F0200DF630200DF630200DF63020062
:10607000DF630200DF630200DF630200DF63020010
:10608000DF630200CD6B0200DF630200DF6302000A
:10609000DF630200DF6302004D6C0200DF63020079
:1060A000DF630200DF630200DF630200A56F02000E
:1060B000DF630200DF630200000000000000000058
:1060C000DF630200DF630200DF630200DF630200C0
:1060D000DF630200DF630200DF63020000000000F4
:1060E00000000000000000000000000000000000B0
:1060F00000000000000000000000000000000000A0
:10610000000000000000000000000000000000008F
:10611000000000000000000000000000000000007F
:10612000000000000000000000000000000000006F
:10613000000000000000000000000000000000005F
:10614000000000000000000000000000000000004F
:10615000000000000000000000000000000000003F
:10616000000000000000000000000000000000002F
:10617000000000000000000000000000000000001F
:10618000000000000000000000000000000000000F
:1061900000000000000000000000000000000000FF
:1061A00000000000000000000000000000000000EF
:1061B00000000000000000000000000000000000DF
:1061C00000000000000000000000000000000000CF
:1061D00000000000000000000000000000000000BF
:1061E00000000000000000000000000000000000AF
:1061F000000000000000000000000000000000009F
:10620000DFF810D000F086FB0048004705010300CE
:10621000AFF30080C0C9002030B450E8012F93B222
:10622000C48923448489A34228BF1B1B0489A34239
:1062300002BFBFF32F8F002007E0C3EA020340E84C
:106240000134002CE9D14FF001000A6030BC7047E6
:1062500050E8012FC2EA024240E801210029F7D1AB
:10626000704730B450E8022F1FFAA2F3C488A3424B
:1062700002BFBFF32F8F00200DE0C489234484891F
:10628000A34228BF1B1BC2EA034340E80234002C90
:10629000E8D14FF001000A6030BC704750E8022F8F
:1062A000C2EA224240E802210029F7D170470346A2
:1062B00053E8022FD988B2EB324F4FF0000017BFDE
:1062C00092B241EA014142EA014104E05A68B2EB6C
:1062D000324F08BF012043E80212002AE8D170477C
:1062E00030B4044654E8000F0D4644E80053002B38
:1062F000F8D1156030BC704730B4044654E8000F44
:1063000040EA010544E80053002BF7D1156030BC8A
:10631000704730B4044654E8000F00EA010544E831
:106320000053002BF7D1156030BC704730B40446E1
:1063300054E8000F80EA010544E80053002BF7D130
:10634000156030BC704730B4044654E8000F00EBD1
:10635000010544E80053002BF7D1156030BC7047AD
:1063600030B4044654E8000FA0EB010544E80053A4
:10637000002BF7D1156030BC704770B404464FF065
:10638000000054E8006F0D68AE4207BF44E80023E8
:10639000012044E800630E60002B1CBF0020F0E7E2
:1063A00070BC704730B4044654E8000F88422CBFDC
:1063B000451A054644E80053002BF5D1156030BC62
:1063C000704700000648804706480047FEE7FEE7A2
:1063D000FEE7FEE7FEE7FEE7FEE7FEE7FEE7FEE795
:1063E000696C0200016202002DE9F05F05460020A1
:1063F00092469B4688460646814640241BE0284636
:1064000041464746224600F0BDF853465A46C01A58
:10641000914110D311461846224600F016F82D1A65
:1064200067EB01084F4622460120002100F00DF8DD
:1064300017EB00094E41201EA4F10104DFDC4846A1
:1064400031462A464346BDE8F09F202A04DB203A25
:1064500000FA02F1002070479140C2F1200320FAB7
:1064600003F3194390407047202A06DBCB17203AEC
:1064700041FA02F043EAE07306E041FA02F3D04049
:10648000C2F1200291400843194670470048704706
:106490000C4D030010B5431A934209D28318881893
:1064A00003E010F8011D03F8011D521EF9D210BDC2
:1064B00040EA01039B0703D009E008C9121F08C086
:1064C000042AFAD203E011F8013B00F8013B521E06
:1064D000F9D210BDD2B201E000F8012B491EFBD267
:1064E00070470022F6E710B513460A4604461946DF
:1064F000FFF7F0FF204610BD421C10F8011B0029D9
:10650000FBD1801A704730B504460020034600E0F6
:106510005B1C934203D2E05CCD5C401BF8D030BDE5
:10652000034611F8012B00F8012B002AF9D1184677
:10653000704700F0004230F000400AD0C10D01F574
:106540006071C0F3160042EA0151C20840071143CE
:10655000704700200146704730B50B4601460020C9
:106560002022012409E021FA02F59D4205D303FA15
:1065700002F5491B04FA02F52844151EA2F1010296
:10658000F1DC30BD202A04DB203A21FA02F00021A0
:10659000704721FA02F3D040C2F120029140084333
:1065A000194670472DE9FE4F804681EA0300C00F6F
:1065B0000C46009021F0004123F00045B8EB0200AA
:1065C000A94105D24046214690461C460B4602464C
:1065D00023F00040104347D0270DC7F30A00C3F350
:1065E0000A510290401A019040286BDAC3F313005D
:1065F00040F4801B0098924620B10023D2EB030A9E
:1066000063EB0B0B01985946C0F140025046FFF76F
:106610001CFF06460D4650465946019AFFF724FFD7
:1066200010EB08006141002487EA115284EAE77305
:106630001A4340D0009A62B3019A012A4FEA0752E6
:1066400015DC001B61EB02014FF0004202EA075229
:10665000CDE90042001C41F5801132462B4600F086
:106660007AF903B0BDE8F08F40462146F9E7001BF8
:1066700061EB0201001C41F5801300185B412018FA
:10668000A2F5001747EB030140EAD570B6196D413A
:1066900011E06D084FEA360645EAC0754FEA075229
:1066A000001B61EB0201001C41F5801149084FEA13
:1066B00030000019514132462B4603B0BDE8F04F7F
:1066C00000F03AB90098012240000023D0EB02020A
:1066D00063EBE073009821464FEAE074B8EB0000EA
:1066E00061EB0401E9E783F000435BE781F00041DF
:1066F00058E72DE9FE4F81EA030404F0004421F03D
:10670000004100944FF0000B23F0004350EA0104D5
:106710005ED052EA03045BD0C3F30A54C1F30A55B6
:106720002C44A4F2F3340194A0FB0254C1F31301EE
:1067300041F48011C3F3130343F4801301FB0244BB
:1067400000FB034E840A970A44EA815447EA8357C0
:10675000A4FB076802958D0A05FB07854FEA932C79
:1067600004FB0C542705029D4FEA065847EA1637EA
:10677000B5EB08056EEB070C870E920E47EA811702
:1067800042EA8312A7FB0201B6EB0B0164EB0004A3
:106790002B0D43EA0C335E1844EB1C50DA4651468D
:1067A000E7FB0201C5F313044FEA0B3343EA14532A
:1067B0004FEA0432019C43EA0603A4F10C0402945C
:1067C000009CCDE900B400F0C6F803B0BDE8F08F3E
:1067D00000200146F9E72DE9F04D81EA030404F0B9
:1067E000004B21F0004514464FF0000A23F0004111
:1067F00050EA050220D054EA01021DD0C5F30A5721
:106800000246C5F31303C1F31300C1F30A5640F463
:10681000801543F48013A7EB0608101BD64608F238
:10682000FD3873EB050002D308F1010801E092186E
:106830005B41B8F1000F03DA00200146BDE8F08D9E
:1068400000204FF48011064684460EE0171B73EBC0
:10685000050705D3121B63EB050306434CEA010C45
:1068600049084FEA300092185B4150EA0107EDD128
:1068700052EA030012D082EA040083EA05010843C9
:1068800005D0101BAB4106D20122002306E00022F6
:106890004FF0004302E06FF0010253101AEB0600C4
:1068A0004CEB085110EB0A0041EB0B01BDE8F04D39
:1068B00000F042B8C1F30A52C1F3130140F2FF33B2
:1068C00041F480119A4202DA00200146704740F2FA
:1068D00033439A42A2F2334202DC5242FFF752BEE5
:1068E000FFF7B3BD30B5041E71F1000404DB4FF0B7
:1068F0000044404264EB0101141E73F1000405DB07
:106900001C464FF00043524263EB0403994208BF18
:10691000904230BD064C074D06E0E06840F00103B0
:1069200094E8070098471034AC42F6D3FFF76CFCAC
:10693000A85F0300C85F030010B5141E73F10004C4
:1069400008DA401C41F1000192185B411A4301D161
:1069500020F0010010BD2DE9F04D92469B4611B18B
:10696000B1FA81F202E0B0FA80F220329046FFF7ED
:106970006CFD04460F4640EA0A0041EA0B0153460B
:106980005A46084313D0114653EA010019D0C8F102
:1069900040025046FFF7F6FD05460E465046594662
:1069A0004246FFF752FD084305D0012004E020468F
:1069B0003946BDE8F08D0020054346EAE0762C43D9
:1069C00037430A986305E40AA0EB08000022FD0A99
:1069D00044EA47540A3002D500200146E9E70105A0
:1069E00010196941DDE9084500196941BDE8F04D1C
:1069F000A2E770B58C1810F8015B15F0070301D100
:106A000010F8013B2A1106D110F8012B03E010F811
:106A1000016B01F8016B5B1EF9D12B0705D4002334
:106A2000521E0DD401F8013BFAE710F8013BCB1AD6
:106A3000921C03E013F8015B01F8015B521EF9D5CB
:106A4000A142D8D3002070BD30B404460020A1F587
:106A50007F45FF3D13D040F2654041434FF47A70CB
:106A60005043B1FBF0F0424304EB4301401EA1F858
:106A7000BC2002B2204630BC194603F0A1BD30BC98
:106A8000704700005FF0000251F822309B178354DA
:106A9000521CD2B2092AF7D3704700002DE9F843FF
:106AA0000025DFF894804FF4807601242F4600956E
:106AB00030460AF069FB38B1D8F80403204203D00D
:106AC00030460AF057FB2543361D64007F1CB6B2E2
:106AD000082FEDD34FF4BE7420460AF055FB48B1A1
:106AE00020460AF047FB45F000456A460121002098
:106AF0000AF008FB15F0FF0F16D0012600242E42E5
:106B00000ED008EB8401D1F81005D1F81015C0F3B0
:106B100004200A4AC1F3014152F8242002B19047EF
:106B20007600641C082CEAD3002D02DA68460CF0CB
:106B30009BF8BDE8F883000000600040107B002057
:106B400070B515460C4606464FF6FF730DE02178EA
:106B5000304605F045FF38B1607806EB4000B0F8EC
:106B60000601834200D90346A41C6D1EEFD21846CD
:106B700070BD000070B54FF4807630460AF054F8CE
:106B8000114CB50560B130460AF055F80120C5F842
:106B90000803607920B901206071216800208847CE
:106BA0004FF4827630460AF03FF800280AD030468B
:106BB0000AF041F80220C5F808032168BDE87040DA
:106BC0000120084770BD00000C6300200249024804
:106BD000091F0968006808478C63002000F0F2B9BB
:106BE00070B50E46144900EB400001EBC005144699
:106BF000E86A183520B101280FD0022805D113E02A
:106C0000284600F013FAA04201D2002411E02246E7
:106C10003146284600F04FFA0BE0284600F006FA0D
:106C2000A042F4D20446F2E73146284600F016FAB4
:106C30000446204670BD00009082002001490248B1
:106C40000CF0F6BEBC7B0020003000400BF00EB80C
:106C5000C82800D9C82040F2654148434FF47A71F2
:106C6000B0FBF1F080B27047F0B5B74AB7494FF0CA
:106C700080541368D4F830010978D4F83421451CC5
:106C8000C1F3031106D0844601270025BCF1060F8D
:106C900003D00AE003F0FF0CF6E7B4F82463DFF852
:106CA000B0C2C6F30426CCF80060DEB2062E06D1D0
:106CB000032904D1DFF8A0C2A64ECCF87460461CAC
:106CC00004D08446BCF1060F03D00AE003F0FF0CA9
:106CD000F8E7D4F84462DFF884C2C6F34236CCF851
:106CE0000060DEB2062E08D1032906D19C4ED6F8EC
:106CF00000C02CF0807CC6F800C0461C04D084463E
:106D0000BCF1060F03D00BE003F0FF0CF8E74FF0E7
:106D10008046C6F80C51C6F81051904E361F3560AB
:106D2000DEB2062E08D1032906D1DFF830C20326D1
:106D30000CF1640CCCF80060DEB2062E11D10329F0
:106D40000FD1DFF820C20526CCF80060854E7836DA
:106D50003760844E083635600CF1040C3F26CCF8C1
:106D60000060461C06D084464FEA0206BCF1060FBE
:106D700004D081E003F0FF0C0E46F7E7032E7BD032
:106D8000042E79D0784E3668DFF8E0C1CCF8006088
:106D9000754E361D36680CF1040CCCF80060724E4E
:106DA000083636680CF1040CCCF800606E4E0C36D8
:106DB00036680CF1040CCCF800606B4E1036366867
:106DC0000CF1040CCCF80060674E143636680CF1F8
:106DD000040CCCF80060644E18363668DFF88CC1BD
:106DE0000CF1200CCCF800605F4E1C3636680CF1BC
:106DF000040CCCF800605C4E203636680CF1040CB4
:106E0000CCF80060584E243636680CF1040CCCF8EF
:106E10000060554E283636680CF1040CCCF8006042
:106E2000514E2C3636680CF1040CCCF800604E4EF6
:106E300030363668DFF834C10CF1400CCCF8006015
:106E4000494E343636680CF1040CCCF80060464EDE
:106E5000383636680CF1040CCCF80060424E3C36F3
:106E600036680CF1040CCCF800603F4E40363668B2
:106E70000CF1040CCCF80060461C05D04FEA000C65
:106E8000BCF1060F03D008E003F0FF0CF8E7D4F8DC
:106E90005842374E04F04F043460441C03D003467C
:106EA000062B02D008E0DBB2FAE732490B68DB07B9
:106EB00002D06FF001030B6006280AD1032A08D024
:106EC000042A06D0052A04D02B48016841F48061C9
:106ED000016023487438016841F470010160BFF318
:106EE0004F8FBFF36F8F4FF01021D1F800020028B1
:106EF00003DBD1F80402002822DA204A1760204878
:106F00000368002BFCD01523C1F800320468002C64
:106F1000FCD0C1F8043201680029FCD0156001687A
:106F20000029FCD0BFF34F8F0D48F0380168154A97
:106F300001F4E06111430160BFF34F8F00BFFDE733
:106F4000124911480860F0BDE00F00F0E80F00F0B2
:106F5000403501400DF0ADBA00C007403C0500408F
:106F6000FCED00E0105600400404001020C5004075
:106F7000E40E0040000400403C17004004E50140DE
:106F800000E401400400FA050090D0033C660020B4
:106F900004220249024808F0EFBF0000F07B002005
:106FA0000080004006220249024808F0E5BF0000C8
:106FB000FC7B002000B00140014800680047000051
:106FC0001463002010B5124C02202061606111A0F2
:106FD000A06104F17800E0614FF4007020620020AD
:106FE000A06260620BA1A164E06204F51E71E1641D
:106FF0001021A065C4E91410E06509A1E01DFFF7A8
:107000008FFA08A12046FFF78BFA2020A07110BD4F
:10701000908200205465726D696E616C0000000002
:107020005254540053454747455200000269C16815
:107030008A4203D88068401A104400E0501A401E6B
:107040007047002809DB00F01F0201219140400930
:10705000800000F1E020C0F8801270472DE9F04771
:10706000C4681746894606464FF000083069A042BA
:1070700001D9051B02E0B168201A0D1AB0686D1E17
:10708000001BA84200D80546BD4200D33D467068AB
:107090002A4620444946FFF7FDF9B0687F1B2C447F
:1070A000A844A944A04200D10024F460002FDDD1FF
:1070B0004046BDE8F0872DE9F04104468846D4E912
:1070C0000207C51BE168606816460844B54206D948
:1070D0004146FFF7DFF9B819E060BDE8F0812A46C4
:1070E0004146FFF7D7F9761B08EB05013246606889
:1070F000FFF7D0F9E660F0E70FB4054B10B503A930
:10710000044A029800F064FB10BC5DF814FB000018
:10711000E1AA02009C6300200FB4084B10B504A93B
:1071200002AA039800F054FB044602A9002000F0D4
:10713000D2FE204610BC5DF814FB0000D77E020092
:107140004100080218BF04200A0E18BF40F00100D9
:107150004FF07F4232EA010108BF40F002000128EF
:1071600008BF05207047000010EE101A08B5444A09
:107170006846B2EB410F28D94FF0E640B0EB410F23
:1071800094BF00204FF0FF3000900098002861DB92
:1071900060EE000A10F0010F45D010F0020FDFED95
:1071A000391A9FED391A00EEE11ADFED381A40EE78
:1071B000811A21EEA01AF0EE400A40EE010A08BF43
:1071C000F1EE600AB0EE600A08BD314B21F00042DA
:1071D00093423CD911F0004FDFED2E0A20EE201A29
:1071E000DFED2D0A19BF31EE601A71EE200A31EE83
:1071F000201A71EE600ABDEEE01A11EE100A9FED42
:10720000271A00F0030000EEC10A9FED251A009036
:1072100000EEC10A9FED231A00EEC10A9FED221A6B
:1072200000EEC10AB1E79FED211A9FED210A10F08F
:10723000020F00EE810A9FED1F1A00EE801AB7EED2
:10724000000A00EE810A18BFB1EE400A08BD00F046
:107250002BF99AE710EE100A4000B0F17F4F3CBFC7
:10726000B7EE000A08BD07D14FF0010000F0E8F9C1
:10727000BDE8084000F008B9BDE8084000F001B9D9
:10728000B61F927E336D4C39DA82083CA0AA2ABE22
:10729000490E494683F9223F0000004B0000C93FD8
:1072A00000A0FD390020A2331A61342CB93AB2BAD9
:1072B000CA9F2A3DDDFFFFBE00B510EE101A2DED6E
:1072C000028B81B0524A6846B2EB410F2ED94FF083
:1072D000E640B0EB410F94BF00204FF0FF3000902C
:1072E0000098B0EE408A00286ADB10F0010F4BD006
:1072F00068EE080A9FED471A9FED470A00EE810AE3
:107300009FED461A10F0020F00EE801AB7EE000A49
:1073100000EE810A02BF01B0BDEC028B00BD00BFD0
:1073200001B0B1EE400ABDEC028B00BD3C4B21F038
:107330000042934241D911F0004FDFED3A0A20EEAE
:10734000201ADFED390A19BF31EE601A71EE200AFA
:1073500031EE201A71EE600ABDEEE01A11EE100A4D
:107360009FED321A00F0030000EEC10A9FED301AC3
:10737000009000EEC10A9FED2F1A00EEC10A9FEDAA
:107380002E1A00EEC10AABE728EE080A9FED2B1A71
:10739000DFED2B0A10F0020F40EE410A9FED291A93
:1073A00000EE201A61EE000AB0EE480A08EE200A4C
:1073B000B6D101B0BDEC028B00BD00F075F88FE7CF
:1073C00018EE100A4000B0F17F4F0DD218EE100AEF
:1073D000FFF7B6FE042808BF00F05EF8B0EE480ADA
:1073E00001B0BDEC028B00BD09D1012000F028F9ED
:1073F00001B0BDEC028B5DF804EB00F045B801B0C4
:10740000B0EE480ABDEC028B5DF804EB00F039B831
:10741000B61F927EB93AB2BACA9F2A3DDDFFFFBEBF
:10742000490E494683F9223F0000004B0000C93F46
:1074300000A0FD390020A2331A61342C336D4C3981
:10744000DA82083CA0AA2ABE10B52DED028BB1EE5F
:10745000C08A18EE100A20F00040C0F1FF40C00FB3
:107460000AD010EE100A20F00040C0F1FF40C00F1B
:1074700004BF012000F0E4F8B0EE480ABDEC028B36
:1074800010BD30EE000A7047DFED020A80EEA00A60
:1074900070470000000000009FED020A20EE000A85
:1074A00070470000000000102DE9F0014FF07F420E
:1074B000B2EB410F9FBF4FF0FF310160BDE8F0011B
:1074C00070474FF0004242EA0123C1F3C752783AB5
:1074D000551112F01F0C434CCCF120067C44C1F333
:1074E000C752A2F178024FEA621204EB820254F80A
:1074F000254008BFD2E9015612D0556804FA0CF4B1
:1075000025FA06F73C43976805FA0CF527FA06F8C2
:10751000D26807FA0CFCF24045EA08054CEA02067C
:10752000A4FB034CA5FB0352A6FB03631D449D4231
:1075300034BF012600261319334416B1934202D9F1
:1075400003E0934201D2012200E00022624402F1F2
:10755000200C9206DC0C42EA443200EE102A5B0357
:10756000DFED210AF8EEC01A00EE103A4FEA9C1C3B
:1075700011F0004FB8EE400AC0F800C020EE201A0B
:1075800000EE105ADFED190AB8EE400A20EE200A8C
:1075900071EE810A70EE800A10EE902A02F5006208
:1075A0006FF30B0200EE902A70EEE11A31EEC11A71
:1075B000DFED101A30EE411A9FED0D0A20EE800A21
:1075C00001EE210A9FED0C1A00EE810A04BFBDE80E
:1075D000F0017047CCF180510160BDE8F001B1EEDF
:1075E000400A704730D80000000000360000802CB0
:1075F00022AAFD29DB0FC92F0000C92F02E008C80D
:10760000121F08C1002AFAD170477047002001E01C
:1076100001C1121F002AFBD1704700000121202860
:1076200003DA81400548014003E0402802DA2038AF
:10763000814009B10120704700207047FC06FFBD62
:107640000149086070470000486600202DE9FF5F8F
:1076500082B00021DDE90430020DDDF840B00343C3
:1076600018D044F61050A2F2FF324243151411987C
:1076700001281FD0A5EB0B00401C5FEA000A4FF069
:1076800000064E4FDFF83891B046504615D5CAF186
:10769000000413E0119801244AA3012801D16FEAE4
:1076A0000B010298119AC0E90031C0E9024206B00C
:1076B000BDE8F09FCBF10000DFE704460021404A1F
:1076C000491842EB0450CDE9001012E0E00707D062
:1076D00032463B4640464946FFF70BF8804689460E
:1076E00032463B4610461946FFF703F806460F465A
:1076F0006410002CEAD1DDE90401DDE90023BAF1D0
:10770000000F06DAFEF7F5FF42464B46FEF7F1FFA3
:1077100005E0FFF760F842464B46FFF75CF8044689
:107720000E460022284BFFF7DDF803D84FF0FF305C
:10773000014607E00022254B20463146FEF732FF86
:10774000FFF7B8F8102409E0002C0ADB0A22002316
:10775000FEF74AFE039B30321A55641E50EA0102BE
:10776000F2D1641C039AC4F111031444119A012A42
:1077700003D0012208430DD10AE0084304D00020C1
:107780004FF0110B119072E7A3EB0B056D1E0DE08E
:107790005B4504DD4FF0000205F1010504E003DA6A
:1077A0004FF00002A5F10105002AECD002981199D2
:1077B000C0E90231C0E9004579E70000000014404B
:1077C0000000F03F300000000000F0430000E03F08
:1077D0002DE9FF4F95B09A46884606460025EEE112
:1077E000252877D100242746F94A0121039400E097
:1077F000044316F8013F203B01FA03F01042F7D191
:1078000030782A2811D06FF02F033078A0F13002A1
:10781000092A16D8039A44F0020402EB820203EB11
:1078200042021044761C0390EFE758F8042B0392B1
:10783000002A03DA504244F40054039044F0020456
:10784000761C30782E2816D116F8010F44F0040467
:107850002A280DD06FF02F023078A0F13003092BC9
:1078600009D807EB870302EB4303C718761CF3E73D
:1078700058F8047B761C30786C280FD006DC4C2836
:1078800017D068280DD06A2814D104E0742810D0CD
:107890007A280FD10DE044F400140AE044F4801477
:1078A00001E044F440147278824202D104F580145D
:1078B000761C761C307866280BD013DC582877D0DD
:1078C00009DC002875D04528F6D04628F4D0472892
:1078D0001AD193E118E0632835D0642879D065285F
:1078E00012D18BE1702873D008DC6728F1D06928A9
:1078F0006FD06E280DD06F2806D1ACE073282CD045
:10790000752874D0782853D05246179990476D1C2B
:1079100054E1C4F30250022809D003280DD0D8F84E
:10792000001004280DD00D6008F1040846E1D8F8D5
:107930000010EA17C1E90052F6E7D8F800100D80F0
:10794000F2E70D70F0E718F8041B8DF80010002026
:107950008DF80100EB46012003E058F804BB4FF01E
:10796000FF3061074FF0000102D40DE009F1010181
:107970008946B9420FDA8145F8DB1BF80910002966
:10798000F4D108E009F1010189468142FADB1BF8D4
:1079900009100029F6D103985346A0EB09072146A8
:1079A0003846179A00F080FA284400EB090507E0F2
:1079B00044E008E10DE01BF8010B5246179990478F
:1079C000B9F10109F7D2534621463846179AF2E039
:1079D00039E00A21C4F302524FF0000B0091022A51
:1079E00006D058F8040BC117032A09D00AE023E097
:1079F00008F1070020F00702F2E80201904605E0D6
:107A000000B2C117042A01D140B2C117002906DA19
:107A10000A460021404261EB02012D2202E02205CC
:107A200004D52B228DF80420012203E0E20701D0C7
:107A30002022F7E7914657E00A2100E010214FF09D
:107A4000000B00910BE010214FF0000B44F00404F8
:107A50000827009103E008204FF0000B0090C4F3CA
:107A60000252022A05D058F8040B0021032A08D03C
:107A700008E008F1070020F00702F2E80201904652
:107A800003E080B2042A00D1C0B24FF000092207FF
:107A90002AD53278702A07D0DDF800C08CF0100C9F
:107AA0005CEA0B0C05D00EE040228DF80420012288
:107AB00008E050EA010306D030238DF804308DF839
:107AC000052002229146009B83F0080353EA0B0332
:107AD0000AD150EA010201D1620705D530228DF8A2
:107AE00004204FF001097F1E3278582A04D039A2B1
:107AF0000C920CAA02920BE03BA2F9E75B46009ABB
:107B0000FEF772FC0C9B9B5C029A521E0292137051
:107B100050EA0102F2D1029804A9081A00F1200BE0
:107B2000600702D524F4803400E001275F4502DDC0
:107B3000A7EB0B0000E0002000EB0B010090039886
:107B40004944401A0390E00306D453462146179A4D
:107B5000039800F0A9F90544002706E001A8524661
:107B6000C05D179990476D1C7F1C4F45F6DBE00305
:107B70000CD553462146179A039800F095F9054411
:107B800004E030205246179990476D1C0099481E1A
:107B900000900029F5DC08E002980299524600782E
:107BA000491C0291179990476D1CBBF10001ABF184
:107BB000010BF1DC5BE100F065F90544761C3078DF
:107BC00000287FF40DAE19B02846BDE8F08F000004
:107BD00009280100303132333435363738396162A3
:107BE0006364656600000000303132333435363767
:107BF000383941424344454600000000600700D444
:107C0000062708F1070020F00700F0E8022380466D
:107C100003F0004C5FEA0C0001D097A009E02005BA
:107C200001D596A005E0E00701D095A001E0AFF2F4
:107C30004C001390307823F0004365280CD006DC0C
:107C4000452809D046281DD047287FD13BE066282B
:107C500018D067287AD136E00021112F01DB1120DE
:107C600000E0781CCDE9000104A90CA8FFF7EEFCA8
:107C7000DDE90D010C9A4FF0000B07F1010910929C
:107C800000914EE04FF000400097CDE9011004A9AB
:107C90000CA8FFF7DBFCDDE90D020C9B0F994FF000
:107CA000000B91461093009211B9791C00EB010969
:107CB000B7EB090003D4C0F1FF3B07F10109A9EBC1
:107CC0000700019042E0012F00DA01270021112F67
:107CD00001DD112000E03846CDE9000104A90CA81F
:107CE000FFF7B4FCDDE90D010C9A00914FF0000B99
:107CF000B946109221070FD4009A4A4503DA9146FB
:107D000001E0A9F10109B9F1010F05DD109AA9F10E
:107D10000101515C3029F4D0B84202DA10F1040FAD
:107D200003DA0121CDE9011010E0002803DC8344CF
:107D3000A9EB000102E0411C494500DD8946A0EBAA
:107D40000B00401C01904FF000400290200705D42A
:107D50000198484502DB4FF0FF30019000208DF87C
:107D60004B0002980DF14B07B0F1004F25D00220D7
:107D70000C902B200D90029800280CDA40420290C3
:107D80002D200D9007E00A210298FEF7E5FB303127
:107D9000029007F8011D0C99481E0C900029F2DC96
:107DA00002980028EFD1791E0D980870307800F005
:107DB000200040F0450007F8020D11A8C01BC01DAF
:107DC00002901398007800B1012000EB090101989E
:107DD00001EBE071029801440398401A401E0390A1
:107DE000E00306D453462146179A039800F05CF846
:107DF00005441398007818B15246179990476D1CA6
:107E0000E00323D553462146179A039800F04CF817
:107E100005441BE0BBF1000F07DB0098584504DD6B
:107E20001098179910F80B0001E01799302052466E
:107E3000904701980BF1010B401E05F101050190DF
:107E400004D12E205246179990476D1CB9F10001BC
:107E5000A9F10109DEDC05E017F8010B524617997C
:107E600090476D1C0299481E02900029F4DC53468D
:107E70002146179A03989EE62D0000002B00000073
:107E8000200000002DE9F041044600251E4617465B
:107E9000880404D405E039462020B0476D1C641ED8
:107EA000F9D52846BDE8F0812DE9F04104460025CA
:107EB0001E469046C80301D5302700E020278804DD
:107EC00004D505E041463846B0476D1C641EF9D51F
:107ED0002846BDE8F0810A68531C0B60107070479B
:107EE000801D0D2820D2DFE800F01D1B1917151387
:107EF0001F07090B0D0F11000CA0704710A0704751
:107F000013A0704716A070471AA070471CA07047B6
:107F10001EA0704721A0704723A0704725A070477E
:107F200028A070472AA070472CA0704742454749B7
:107F30004E20494E5F56454849434C4500000000DD
:107F4000424547494E2057414C4B494E470000009F
:107F5000424547494E2052554E4E494E470000007B
:107F6000424547494E204F4E5F42494359434C4595
:107F700000000000424547494E2054494C5400003F
:107F8000424547494E205354494C4C00454E4420ED
:107F9000494E5F56454849434C450000454E4420F4
:107FA00057414C4B494E4700454E442052554E4E8A
:107FB000494E4700454E44204F4E5F424943594386
:107FC0004C450000454E442054494C5400000000EC
:107FD000454E44205354494C4C000000756E6B6E66
:107FE0006F776E206163746976697479210000008F
:107FF00090F82400012801D01F207047EE20704720
:1080000010B501220221002001F0D6F908B107289D
:1080100010D107220221012001F0CEF908B1072872
:1080200008D100210A22084601F0C6F908B1072844
:1080300000D1002010BD022001F0C8B870B50024A6
:10804000064D06E06868012110F8340009F040FF91
:10805000641C28788442F5D3002070BD3063002072
:10806000F8B516460C4605460A2A01D20720F8BD87
:108070000AF028F818B909F0EBFF0028F7D1134FE0
:10808000102113487D603C70BE60FEF72AFA002084
:10809000C7E904000F4E0DE005EBC4003168009104
:1080A00081788DF8011000780B4A694609F060FF6D
:1080B0000028DCD1641EE4B2EED2BDE8F8400548E9
:1080C0000021064A001D00F087B800003063002040
:1080D000287C002010460300C5AE0200699D020006
:1080E00010B572B609F0F4FA09F01CF90028FBD1BA
:1080F00011481249401AC408012000EB044010A1A5
:1081000009F02AFA11480068C00700D000BE02201A
:1081100000EB04400EA109F01FFABFF34F8F0B488C
:10812000E43801680E4A01F4E06111430160BFF3D5
:108130004F8F00BFFDE7000048600300D85F0300D9
:10814000466174616C206572726F7200F0ED00E040
:1081500053797374656D2072657365740000000057
:108160000400FA050EB500210091CDE901106A4620
:1081700044F20100FFF7B4FF0EBD10B58268C3687A
:10818000934203D002F080FC002010BD052010BDFA
:1081900029B112B1531E134203D0092070470E209B
:1081A00070470160838000218160C160084670478C
:1081B00010B58268C3689A1A83889A4203D802F07D
:1081C0006DFC002010BD042010BD0000014802F02D
:1081D0009CBA0000506300203AB100680129426156
:1081E00000D0002101610020704707207047000087
:1081F00038B5114808235822416800910F4900689A
:1082000008F0F3FA002815D10D4A69460D4802F02E
:1082100081FA04000ED101210A4802F0F6FA012386
:10822000094A1946074802F048FA06490120083968
:108230000870204638BD000018460300487C002026
:10824000192E030050630020FFFF7F0070B5044625
:10825000007F0D4608B1002070BDA26102F074FDE0
:10826000401941F10001C4E90201206900B1256112
:108270002146BDE8704000200BF0FABA014600200C
:10828000087701200BF0F4BA70B50A4E01460A488F
:10829000B578FFF772FF04464DB10020B070711C35
:1082A0000122C81D08F076FD08B1FFF75BFF2046EC
:1082B00070BD00006C630020A07C0020F0B5244E4F
:1082C00089B01F460D00044672603FD0A888296817
:1082D00082B22048FFF75CFF002835D1A889A96841
:1082E00082B21C481030FFF753FF00282CD1202207
:1082F00019496846FEF7CEF860690690207C00B107
:1083000001208DF814008DF81C70607C00B10E20E7
:108310008DF81500E0680290A06803902068019035
:10832000606800900A480D4A6946083008F0FEFC73
:10833000002809D1B0702068401C05D004490122F2
:10834000491CC81D08F026FD09B0F0BD0720FBE759
:108350006C630020A07C00202C4603002D3F03000E
:1083600010B501461048FFF723FF040019D10F484C
:108370000F4A0178515C19B1001D0AF089FA02E038
:108380000C300AF05FF960B9084907480839FFF76F
:10839000F4FE30B9054901220839044808F00AFD05
:1083A0000446204610BD0000B07C0020746300200D
:1083B0000063002030B5EFF3108172B60D4A946867
:1083C000012324B10370002900D162B630BD93604F
:1083D0004FF0E023D3F88051074C25401560C3F8D7
:1083E0008041D3F8844154605A17C3F88421002295
:1083F0000270E8E7C07C0020FC06FFBD0B498A68DC
:10840000002A11D000280FD1EFF3108072B60B684C
:108410004FF0E022C2F800314B68C2F8043100226C
:108420008A60002800D162B670470000C07C00203E
:108430002DE9F041064608680C46411C4FF0A04764
:108440004FF0010506D005FA00F1C7F808152068BD
:1084500008F032FE6068411C02D0002108F01AFECC
:108460003168A069C1F82405607D227D3168104320
:10847000C1F86C05D4E900123068C0F81425C0F8C2
:108480000C15207D012815D1A068411C02D00021C7
:1084900008F000FEE068411C05D08540C7F808558B
:1084A000E06808F009FED4E902123068C0F8082537
:1084B000C0F81015BDE8F0812DE9F04106460868C6
:1084C0000C46411C4FF0A0474FF0010506D005FABD
:1084D00000F1C7F80815206808F0F8FD6068411C35
:1084E00002D0002108F0DFFD3168A069C1F8240541
:1084F000607D217D32680843C2F86C05D4E9001222
:108500003068C0F80C15C0F81425207D012815D15D
:10851000A068411C02D0002108F0C5FDE068411CA4
:1085200005D08540C7F80855E06808F0CFFDD4E9CC
:1085300002123068C0F80825C0F81015BDE8F081B7
:1085400070B51500044609D00020286034B12068B9
:1085500020B1A079800703D0072070BD0E2070BD28
:10856000084600F023FBC0B2142804D021798142D0
:1085700003D8042070BD052070BDE288216800FB8F
:1085800002102860002070BD2DE9FC4700251788E7
:108590000646158090F82D001446894630B13A46BB
:1085A0002146484600F016FB051E09D1B0784FF071
:1085B0000C0A18B32088C846001DB84202D950469C
:1085C000BDE8FC87684679DF0028F9D120880321BF
:1085D00008F8001020881921401C80B2208008F87B
:1085E00000102088401C80B2208000EB0801BDF8FC
:1085F00000000BF03CFE218808442080F078022225
:10860000C8B1218896F9033001F1030C4846BC45F6
:10861000D5D8425421884FF0010C491C89B22180E1
:1086200000F801C02188491C89B2218009F8013075
:108630002088401C20807068B8B1218890F90030F3
:1086400001F1030C4846BC45B9D8425421880A229E
:10865000491C89B2218042542188491C89B2218059
:1086600009F801302088401C2080308950B1CDE9C4
:1086700000474B460622022106F108000BF0B8FE27
:10868000051E9DD1308A50B1CDE900474B460722E7
:10869000032106F110000BF0ABFE051E90D1308BCC
:1086A00050B1CDE900474B461522142106F11800C0
:1086B0000BF09EFE051E83D1306A30B13B46224648
:1086C000494601F05AFA051EDBD1706A30B13B46CB
:1086D0002246494607F08AFF051ED2D196F82C00A3
:1086E00038B13B462246494630460AF0EDFE051EAB
:1086F000C7D1307838B13B4622464946304608F06B
:1087000021F8051EBDD128465AE718B504460020B9
:10871000ADF8000013466A46204600F006F800282F
:1087200002D0BDF80000204418BD70B5E0B1DAB148
:10873000002402E0045D2C44A4B2651C8D4206D2E4
:108740001688A642F6D8061976789E42F2D18C4257
:108750000AD2A31C005D9BB200B1401E0004000CB5
:1087600002D01C188C4201D9002070BD138070BD4E
:1087700080F8301070472DE9F0410D00044606D016
:108780002CB195F87A000026012803D006E00E20CF
:10879000BDE8F08195F89800012829D0D5F8A0000F
:1087A000042825D0D5F89C00042821D04FF00108DA
:1087B000A6702C2205F17801201DFDF76BFE84F8D0
:1087C0003060D5F8A4006063D5F8A800A0634FF628
:1087D000FF70A4F8240404F58260C4F82004C4F8EF
:1087E0002664A4F82A6484F82C64207810B104E08C
:1087F0000720CDE7FF2084F8540004F155072046F8
:10880000C4F81074FFF7F4FBA4F8140404F2144243
:1088100039462846FFF7B8FE0028B9D104F23120C6
:10882000C4F818042046FFF7E3FBA4F81C0404F284
:108830001C4205F13C00D4F81814FFF7A5FE0028EF
:10884000A6D184F85180208BA4F8480084F83C809D
:10885000266484F85060606900216064454604F134
:108860003C02781E72DF002892D1257090E710B587
:108870000288102A1BD0112A20D0262A1DD1007A66
:108880000C46012801D0022817D1A0780521401CF0
:10889000B0FBF1F201FB1201204600F03AF800288B
:1088A0000BD0A16B002908D0BDE810400847C27B5F
:1088B000012A02D18088A1F8240410BD0C460021B1
:1088C00084F82E148088B4F824148842F5D12079D5
:1088D0000028F2D10121DFE710B5044690F85400DA
:1088E00074DF012084F82E04002084F8300484F81A
:1088F00050000621204602F0DFF8002808D1A178B8
:10890000204600F006F810B1A16B01B188470020A5
:1089100010BD2DE9F05F044600780F4698B1A770AE
:108920000025C4F82654A4F82A5484F82C54A079BD
:10893000012608B1012F09D0E07980B1012F05D0BF
:10894000022F03D00BE00820BDE8F09F616B21B13E
:1089500084F82D640820884701E084F82D5404F23F
:10896000274100200A5C0AB1304603E0401C06287B
:10897000F8D300204FF002084FF0030B012F06D070
:10898000022F0CD0032F0FD0042F15D110E0A179A6
:1089900029B194F8241011B908B130460DE0E179FD
:1089A00011B108B1404608E0207A08B1584604E009
:1089B000607A08B1042000E02846A070616B41B1E4
:1089C000032801D0042804D1607910B194F82E0452
:1089D00098B184F82F5404F13C0018210746FDF7A4
:1089E00080FD84F83C6004F12C000AF00DF958B1C8
:1089F00094F82C0084F8510008E084F8305484F88E
:108A00002F6407208847E6E784F8516094F8240033
:108A100058B104F128000AF0F7F820B194F82800C2
:108A200084F8520001E084F8526084F85050A27833
:108A300004F2264104F582694FF0060A052A64D241
:108A4000DFE802F07C030F22420084F83160C4F8B2
:108A50002054C4E9101584F83C808020A4F8480014
:108A600055E084F8318094F82420384612B107226A
:108A7000027001E080F800B0228A8281C4F820549C
:108A80004160E168B96042E06069B860208BB881FC
:108A900094F824003D460028204602D084F83CA0EB
:108AA00001E084F83C600BF075FC50B185F814804F
:108AB0000421204602F000F838BB052184F831106B
:108AC00021E084F831B01EE0E069B860208CB88104
:108AD00094F824003D460028204602D084F83CA0AB
:108AE00001E084F83C600BF055FC48B185F8148037
:108AF0000421204601F0E0FF38B984F831A002E0FB
:108B0000042084F83100C4F82094A07878B13A4663
:108B100004F15400D4F8201472DF00287FF414AF5D
:108B200094F8301094F8540073DF0028F6D1616B8C
:108B300011B194F831008847002005E784F83150DE
:108B4000F5E7000070B5040012D001461C2214485D
:108B5000FDF7A0FC1248134D0560206850B17ADF84
:108B6000002806D12068016829604068686005E037
:108B70000E2070BD0B487BDF0028FAD108484FF665
:108B8000FF711438084A20F8041B05493439016084
:108B90000021FFF721FB0028EBD0032070BD00006F
:108BA000647A0020F86200202D43030010B50446CB
:108BB00000F006F808B1204610BD142010BD0000DA
:108BC000142801D3002070470146014807F057BE22
:108BD000847A00207CB5054608880C46093090420E
:108BE00001D90C207CBD68466DDF0028FAD12188B0
:108BF0000820685420881B21401C80B22080295402
:108C00002088401C80B220802844DDF801100160DB
:108C1000BDF8051081802088801D80B220809DF8DD
:108C20000010490800D0012129542088401C2080D0
:108C300000207CBD38B50188294D044621293BD050
:108C400015DC2848284A1029A0EB02004FEAD00082
:108C50004FF0030202EB004013D0112925D0132955
:108C600029D100231A46852168887FDF17E03B2938
:108C700032D052292AD056291DD18088132176DF7F
:108C80000DE01AA108F068FC072000F0B7FB08B15E
:108C9000FFF768FAA1886980174807F04DFF0028A0
:108CA00009D0BDE83840FFF75DBA14A108F054FCC4
:108CB0004FF6FF70688038BD00200090A08869469C
:108CC0008FDF0028F7D0FFF74DFA38BD00231A4692
:108CD00019466888B1DFE2E78088132176DFDEE796
:108CE000D82A002048600300D85F0300436F6E6EEF
:108CF00065637465640000007C75002044697363DB
:108D00006F6E6E65637465640000000010B51A4CE8
:108D10000188606810290ED011292BD1401E606097
:108D200028D1FFF76DF9002824D02168002921D02F
:108D3000BDE810400847D0B900210122084600F0E4
:108D40003BFB08B107280FD107220221012000F0C8
:108D500033FB08B1072807D104220221002000F0CC
:108D60002BFB20B1072802D0216801B18847606839
:108D7000401C606010BD0000F06200202DE9F0474B
:108D800001883B4E40F2F3194FF6FF7510291BD0B6
:108D900011293ED0122954D0502946D1C188F289D8
:108DA000841D914241D1618902293ED18688304695
:108DB00002F09EF9050038D004F10C0000F0C2F971
:108DC000A8B3294630464EE0C17B87880446012976
:108DD0002BD1A846284602F08BF9050017D02F802A
:108DE00000202872234843464A460168C5F80A1005
:108DF0004068C5F80E0004F1100105F10A0007F003
:108E0000DEF86872F08900280FD129462AE0042094
:108E100013E0808802F06CF9040006D06068FFF768
:108E20002DFA08B10AF02CF92580BDE8F087FFE79C
:108E30006868FFF723FA0028F7D0BDE8F0470AF08A
:108E40001FB987880646384602F052F90400ECD074
:108E50002B464A4606F1080104F10A0007F0AFF874
:108E6000607221463846BDE8F04700F0CDBE0000F4
:108E7000647A0020F86200202DE9F04F04468688CD
:108E80000188424897B0834610290CD0112950D050
:108E9000103019296AD01A2974D1217A0C09042CAE
:108EA0004DD301224CE0394D083DA868C0430B90DA
:108EB00069680BA807F004FD0B990CA800F03EFEB2
:108EC0002C220CA96846FDF7E5FA0027E946A846DA
:108ED00010E000BF09EB47005FF00005B0F804A008
:108EE00008EB85005146001D07F0BEFC6D1C1E2DD1
:108EF000F6D37F1C0098B842ECD8142E05D317B0D7
:108F00000420BDE8F04FFFF72DB93146584607F071
:108F1000C1FC314608F1040007F0BCFCE07B0228EC
:108F200030D117B03146BDE8F04F1848001D07F0AA
:108F3000B1BC17B03146BDE8F04F07F095BC002238
:108F4000314601F0B4FD032C01D3012200E00022E0
:108F50000E4831460C3001F0AAFD022C01D301224B
:108F600000E0002209483146083006E0217A002955
:108F700008D1617AC1F3C002314617B0BDE8F04FA5
:108F800001F095BD17B0BDE8F08F0000887A002091
:108F9000F0B585B016460F4604001D4614D004AA4D
:108FA00019466069FFF7CCFA00280BD1A5F57F4080
:108FB000FF380BD0049848B1007848B13088F428C5
:108FC00008D9072005B0F0BD0E20FBE70520F9E722
:108FD0000820F7E700200090019002900390A088FD
:108FE000ADF8000001208DF80200CDE90267694666
:108FF0002846AEDFE6E7000070B5334D04008EB0C2
:109000002DCD08AE86E82D005BD0E9B30868A061DD
:10901000214608A862DF002851D1207801258DF86B
:109020003200ADF83050A21C0CA92846A8DF002859
:1090300045D120216846FDF754FA0220ADF8000022
:1090400020788DF802008DF80C509DF80D00F42664
:10905000ADF8046040F00C008DF81150ADF80650EA
:109060008DF80D008DF81250608804F10C026946ED
:1090700000F016FC002822D120216846FDF731FAC5
:109080000320ADF8000000E01BE020788DF802001E
:109090008DF80C509DF80D008DF81150ADF804605E
:1090A00040F010008DF81250ADF806508DF80D000C
:1090B0008DF813506088221D694600F0F1FB0EB058
:1090C00070BD0E20FBE70000CC45030030B587B033
:1090D0000446002928D0002C26D0084621881029D3
:1090E00024D0502928D057291ED10546A18840698F
:1090F0006A46FFF725FA002816D100980078002864
:1091000012D0A86900280FD0182101A8FDF7E9F9AD
:1091100001208DF804000295A088ADF80C0000989D
:109120000490A96901A8884707B030BD07B021465F
:10913000BDE8304009F046BC07B02146BDE83040EC
:1091400009F020BD007800F0010070470149085C7B
:1091500070470000844503000649095C4FF0A040B9
:10916000D0F81005C84010F0010000D0012080F0B8
:1091700001007047844503002DE9FC410646C00705
:109180004FF000050ED0104F00240122385D0095ED
:1091900000231146019507F023FF641C042CF4D32F
:1091A00000F046F8B0070DD5074E0024361D00220A
:1091B000305D032300951146019507F011FF641CF3
:1091C000042CF4D3BDE8FC818045030007490B5C07
:1091D0004FF0A041D1F804250120984020EA020375
:1091E000C1F808351040C1F80C05704780450300F0
:1091F0000249085C012107F0B1BF0000804503006F
:109200000249085C002107F0A9BF00008045030067
:109210000649095C4FF0A040D0F80405C84010F0A2
:10922000010000D0012080F001007047804503005C
:1092300010B500242046FFF7DBFF641C042CF9D393
:1092400010BD10B500242046FFF7DAFF641C042C83
:10925000F9D310BD10B50246064B4FF0FF30002188
:109260005C5C944201D1084610BD491C0429F7D327
:1092700010BD00008445030070B50C4E0C004FF08B
:10928000000530600BD0012000F06AF808B1022020
:1092900004E0002000F064F800B10B20207070683A
:1092A00010B9FEF7ADFE0546284670BDF0620020FD
:1092B00010B5002000F0DCF908B1062806D1012025
:1092C00000F0D6F908B1062800D1002010BD00003A
:1092D0002DE9F0470D468146FFF7BCFF0446042800
:1092E00036D2DFF874801B481C4EA8F10C0725B35A
:1092F000012D0ED0022D2BD104EB440030444578D3
:10930000002D25D0B968002922D02846BDE8F047B5
:10931000084704EB4401755C0E44717849B10E4A6C
:109320004FF48041093A8068FEF790FF08B987F84A
:109330000390B17808F80410E2E78068FEF79EFF1A
:1093400004EB4401314418F804008D78A842D7D0CA
:10935000BDE8F08788450300EC620020007A002019
:10936000042801D2FFF7F8BE0020704710B5104A5C
:10937000042807D007280FD00A2817D1BDE81040CD
:109380000AF00CB91321508876DF0DE000280DD0CB
:10939000BDE81040FEF7E6BE5088A0F57F41FF39DA
:1093A00004D10448FFF798FA0828EFD110BD000057
:1093B000D82A00208875002070B50023042810D218
:1093C0000D4D00EB4004012A02D101290CD00022EE
:1093D000094E00EB4000304461B1012906D002295A
:1093E00006D00723184670BD0E30C2B22A55F9E7E1
:1093F0004270F7E78270F5E7007A0020044A0146E0
:1094000000201279D20702D0084600F04DB870470C
:10941000E062002070B506461E480024C0E90161E4
:10942000B00720D50025012211462846FFF7C4FFCA
:109430006D1C0446042D02D2002CF4D013E094B924
:1094400040F2333204211448FEF70AFE04000AD128
:10945000FEF7F4FD040006D10F48104A0021001F5A
:10946000FEF7BAFE0446F00712D00120FFF784FE93
:1094700074B909480A4A00210C38FEF7ADFE040011
:1094800006D10548074A01210838FEF7A5FE044623
:10949000204670BDE062002094450300259802003C
:1094A00035000300378002002DE9F05F6E4C054661
:1094B00000266078B34618B184F801B006F0A2FD2A
:1094C0006A4F4FF47A694FF4C87A4FF00108182DAB
:1094D00069D2DFE805F00C1313384754696E727BCC
:1094E000727BC58484848484B3B6B9BCC5C506F0D8
:1094F00089FD3868FEF7C2FE06465CE00020FFF7F3
:1095000087FE00284FF0000008D0FFF771FE022D03
:1095100002D14FF4E16008E0484606E0FFF770FE34
:10952000022D01D1C82000E05046410CC0034FF489
:109530007A72801841F10001257052000023FCF777
:1095400053FF01462AE00020FFF762FE00284FF09B
:10955000000004D0FFF74CFE4FF44870E5E7FFF73A
:109560004FFEDFE70020FFF753FE00284FF000001A
:1095700002D0FFF73DFECFE7FFF742FED4E7002021
:10958000FFF746FE00284FF0000002D0FFF730FE44
:1095900001E0FFF735FE257040F6CD410022386826
:1095A000FEF754FE064646E00020FFF70FFE25704A
:1095B00008E0002051E025703DE084F801800120A2
:1095C000FFF704FE002240F26661E8E784F80180BC
:1095D0000120FFF7FBFD00224FF40051DFE7786820
:1095E000FEF74CFE0646D5F1110000D02EB1022048
:1095F000FFF7FEFD84F802B01DE0012816D980B205
:10960000C8214843C117C90341EA5041C0034FF480
:109610007A72801841F1000152000023FCF7E4FE49
:10962000014600227868FEF711FE06460220FFF789
:10963000E7FD84F802803046BDE8F09F06F0E2FCCA
:10964000B9E706F0DFFCB4E706F0DCFC04E006F066
:10965000D9FC0020FFF7D4FD0120FFF7D1FDAAE7D8
:10966000FFF7EFFDA7E70000E06200208845030058
:1096700001210AF024BF00002DE9F84F0546861CA1
:1096800000208DF8000091460F464FF0010A684611
:10969000FEF790FE1B4C04F21C4860683860D4E969
:1096A0000101194F401A3968081A0EE0012140469D
:1096B00007F000F906F0D4FC0146404607F0FAF83E
:1096C000D4E90101401A3968081A401C8642EDD8D5
:1096D000B9F1000F03D0052065F3891002E00620E0
:1096E00065F39F5061683A68114004EB8101C860DE
:1096F0006068304460609DF80000FEF77FFE5046D1
:10970000BDE8F88F707E0020AC63002070B50D4678
:1097100004460A2902D10D21FFF7F8FFA06822684C
:10972000411CA1601554D4E90101814204D32046B3
:10973000BDE8704007F05BBB70BD00000448816865
:109740004068814201D1012070470020704700002D
:10975000707E002070B586B01E460A9C154604F146
:109760001000222947D2DFE801F04621213D2146A1
:1097700046464621212B4646112D113535382B46BC
:10978000354646353246354646463D3D1822294641
:109790006846FCF77FFE9DE80700103403AB07C462
:1097A00093E8070007C43078207021E02868206122
:1097B00068686061A868A061307884F8280017E0C4
:1097C0001968216210222946FCF764FE10E028681F
:1097D00020610DE0012020610AE0286820616868AE
:1097E000606105E02868206168686061A868A06120
:1097F000012006B070BD0020FBE70000034630B535
:10980000074800210478426806E000BF02EBC1006F
:1098100005789D4203D0491CA142F7DB002030BDF2
:109820003063002000780221FFF752BD05494FF058
:10983000FF32082841F8202002D3084480F848204D
:1098400070470000107B0020F0B54FF0FF3512B1DB
:109850000023082601E008230C260C4C05E000BF7D
:1098600054F823707F1C04D05B1CB342F8D3284605
:10987000F0BD26185DB286F8305044F82310002A57
:10988000F5D1E11881F84800F1E70000107B0020D5
:109890000249084490F9300070470000107B002016
:1098A0002DE9F0438146887891B090460C4600B986
:1098B00001208DF83E002088ADF83C000025009581
:1098C000607C694609F044FE6E46A07C711C09F07C
:1098D0003FFEE07B00289DF8020002D040F0080027
:1098E00001E020F008008DF80200217C11B140F069
:1098F000100001E020F010008DF80200217B11B172
:1099000040F0010001E020F001008DF80200217D0F
:1099100009B1022100E0012161F342008DF802004B
:109920001C2102A8FCF7DDFD607BC10601D4800686
:1099300017D50E950EAFE07C791C09F009FE9DF855
:109940003800079720F00F00401C20F0F000103086
:109950008DF838009DF83A0020F00600801C8DF844
:109960003A00607B8DF80800A07B8DF80900142177
:1099700009A8FCF7B6FD0FA8CDE90906A088ADF847
:109980003000A06820B1E088ADF82C00A0680D90F0
:10999000A06998B301950088ADF81000A06901ADE9
:1099A00001A94088ADF81200A069406806950390AF
:1099B000A069007B09F0CCFDA069691C407B09F01F
:1099C000C7FDA069807A00289DF8060002D040F00B
:1099D000080001E020F008008DF80600A169C97AAE
:1099E00011B140F0100001E020F010008DF80600E9
:1099F000A169097A19B140F0010002E00DE020F000
:109A000001008DF80600A169897B09B1022100E0FF
:109A1000012161F342008DF80600E06900B1059074
:109A2000434609AA02A94846AADF11B0BDE8F0835F
:109A30004FF0FF3250B14FF6787330EA030305D18F
:109A4000000705D511B131F4E94001D01046704747
:109A50000020704710B5411C11D10949094A891AE3
:109A6000C908032202EB0143024607A1184607F08A
:109A700077FD00BF07F056FC0028FBD1FEE710BDC4
:109A800048600300D85F03004241442052433D2513
:109A900064000000192921D00EDC0F291CD006DC3F
:109AA000052919D0062917D0072913D114E0102948
:109AB00012D018290ED111E076290FD006DC7029BA
:109AC0000AD0712908D0722904D105E07E2905D079
:109AD0007F2903D00120704703F01CB80020704795
:109AE00070B5084C050009D010342168002907D052
:109AF00008682060496828468847F6E70834F4E794
:109B000070BD0000FC7A0020054A012120B1012827
:109B100005D19170FFF7E4BF51700020FAE770475C
:109B2000FC7A002010B5D0E90234D1E90220D11A24
:109B3000A04101D3012010BD002010BD73B58CB031
:109B40000646002000900D9880B100246D46214605
:109B50000DA806F094FE30B1009805EB400084801B
:109B60000098401C0090641C142CF0D32C226946F1
:109B70003046FCF78FFC0EB070BD2DE9F041178820
:109B80000646B81D14460D46984202D90C20BDE881
:109B9000F0813188072206290AD34FF4486C4FF62A
:109BA000FF73614501D9994202D17088062801D21C
:109BB0001046ECE7604501D99842F9D1994203D0AB
:109BC000984201D08142F3D80520E855208812211F
:109BD000401C80B2208029542088401C80B2208004
:109BE000411930880AF043FB2188084480B2208064
:109BF000411970880AF03BFB21880844208000202E
:109C0000C5E7FEF7AFBA000038B54A7A0F4B62B12C
:109C100000220A725969002906D001228DF800201D
:109C2000ADF802006846884738BD0A7A62B19B6881
:109C30004C68024619462046FEF708FB0028F3D080
:109C4000BDE8384009F01CBA5B68F1E7647A00208F
:109C50002DE9F04796B00546DDE91E9A16461F46E7
:109C6000084601F0C7F904460DF1080850214046A6
:109C7000FCF737FCE1B253464A462846CDF800804F
:109C8000FFF768FD002100280BD003A8029480E8AC
:109C9000C200A86802AA002803D0D0E9003110460B
:109CA000984716B0BDE8F08770B588B0064600202A
:109CB00005900690ADF81410ADF8161001900290C2
:109CC00001AA05A9304690DF050021D008F072F8FE
:109CD0000346114811493246401AC108012000EBE1
:109CE000014004460E4907F042FCBDF8042012B9B9
:109CF000BDF8060028B1BDF80630204609A107F0DE
:109D000036FCBDF808201AB12046164907F028FC99
:109D100008B0284670BD0000D85F0300D85F03007C
:109D2000304D030054686520726571756573746504
:109D3000642054582F5258207061636B6574206CF6
:109D4000656E67746820697320746F6F206C6F6E26
:109D5000672062792025752F2575206F63746574DF
:109D6000732E00007C4D030070B500240F4D10E0F1
:109D7000686800EBC406307808F060F97178012952
:109D800001D0012100E000214140307800F0C6FD03
:109D9000641C28788442EBDBD5E90401084303D036
:109DA000BDE8704009F080BD70BD00003063002048
:109DB0002DE9F84F1E0014468846054601D00020C4
:109DC00030606946284600F036F810B1C5F89800B2
:109DD0000DE0009F5FB14FF0FF3947450AD9284693
:109DE00000F01DFCC5F898900EB1012030600020F5
:109DF000BDE8F88FA046002615E0B81B102800D952
:109E000010201FFA80FA08EB0603524672212846FA
:109E100004F0C5FA040005D0284600F000FCC5F89F
:109E2000989002E05644BE42E7D314B1C5F898407A
:109E3000DDE70098DCE7F8B50C0006464FF0FF358B
:109E400009D06B460222702104F0A9FA28B1002142
:109E5000C6F8985008E02846F8BD9DF800100902A1
:109E600021609DF8012011442160F8BDF8B5064637
:109E700000200C4600906B46042240F2E46130461C
:109E800004F0FEF90546684602F07CFA20606B4655
:109E900004224FF4DD61304604F0F2F905446846CF
:109EA00002F070FA60606B46042240F2EC613046CA
:109EB00004F0E6F90544684602F064FAA06028461A
:109EC000F8BDF8B5064600200C4600906B4604220B
:109ED00040F2E471304604F0D3F90546684602F0DA
:109EE00051FA20606B4604224FF4FD61304604F0C5
:109EF000C7F90544684602F045FA60606B460422E3
:109F000040F2EC71304604F0BBF90544684602F0BB
:109F100039FAA0602846F8BDF8B5064600200C4680
:109F200000906B46042240F6B401304604F0A8F9D4
:109F30000546684602F026FA20606B46042240F689
:109F4000B801304604F09CF90544684602F01AFA5C
:109F500060606B46042240F6BC01304604F090F984
:109F60000544684602F00EFAA0602846F8BD38B5F0
:109F70000C46002100916B4604224FF4587104F006
:109F80007FF900280FD19DF803009DF800109DF87F
:109F9000022000EB01609DF80110090401EB022191
:109FA00008442060002038BD38B5054600200090E8
:109FB0006B4602224021284605F0C3F904466B4651
:109FC00002224221284605F0BCF904446B460222D5
:109FD0004C21284605F0B5F904446B4602224E2177
:109FE000284605F0AEF904446B4602228A21284631
:109FF00005F0A7F9204438BDF8B5054600200090CB
:10A000000C460868694602F093FA034604224FF4AE
:10A010005061284605F095F906466946606802F0E9
:10A0200087FA0346042240F60451284605F089F9D0
:10A0300006446946A06802F07BFA0346042240F613
:10A040000851284605F07DF906446946E06802F0AB
:10A050006FFA0346042240F60C51284605F071F9C8
:10A0600006446946206902F063FA034604224FF46D
:10A070005161284605F065F906446946606902F0B9
:10A0800057FA0346042240F61451284605F059F9C0
:10A0900006446946A06902F04BFA0346042240F6E2
:10A0A0001851284605F04DF906446946E06902F06A
:10A0B0003FFA0346042240F61C51284605F041F9B8
:10A0C00006446946206A02F033FA034604224FF43C
:10A0D0005261284605F035F93044F8BD38B50446DC
:10A0E0000A4600200090694610B202F01CFA0346AE
:10A0F00002224FF4FF71204605F023F938BDF8B570
:10A100000646002000900C460868694602F010FAE6
:10A11000034604224FF4B661304605F012F90546B5
:10A120006946606802F004FA034604224FF4B861FD
:10A13000304605F006F905432089694600B202F071
:10A14000F2F90346022240F2E451304605F0F9F8F4
:10A150002843F8BD38B504460A46002000906946F9
:10A16000104602F0E5F9034604224FF486712046BA
:10A1700005F0E7F838BD38B50446082912D004DCEC
:10A18000022909D0042904D109E010290DD0202981
:10A190000ED04FF0FF3038BD4FF000700AE04FF0A6
:10A1A000806007E04FF0006004E04FF0805001E075
:10A1B0004FF00050694602F0BBF9034604224FF409
:10A1C000F071204605F0BDF838BD38B504460829C1
:10A1D00012D004DC022909D0042904D109E0102995
:10A1E0000DD020290ED04FF0FF3038BD4FF40020A5
:10A1F0000AE04FF4802007E04FF4003004E04FF411
:10A20000803001E04FF40040694602F091F90346C6
:10A21000042240F2F441204605F093F838BD38B5E9
:10A22000044600200090E12912D004DC38290BD02C
:10A23000702906D10AE0B1F5E17F0BD0B1F5617F5D
:10A240000AD04FF0FF3038BD002006E0012004E0C6
:10A25000032002E0072000E00F20694602F063F9C6
:10A26000034602224FF44271204605F06AF838BDD9
:10A2700038B5044600200090E12912D004DC3829CA
:10A280000BD0702906D10AE0B1F5E17F0BD0B1F512
:10A29000617F0AD04FF0FF3038BD002006E001207A
:10A2A00004E0032002E0072000E00F20694602F0EE
:10A2B0003AF90346022240F20A31204605F041F8FD
:10A2C00038BD2DE9FC410546002016460C4600909D
:10A2D00001906B4604224FF4D871284605F031F8FE
:10A2E00007466946204602F023F9034604224FF44C
:10A2F0009E71284605F025F8C41901A9304602F0E0
:10A3000012F9034602224FF4AF71284605F019F8FE
:10A310002044BDE8FC81F8B50646002000900C46BC
:10A320000868694602F004F90346042240F2E46139
:10A33000304605F006F805466946606802F0F8F810
:10A34000034604224FF4DD61304604F0FAFF054471
:10A350006946A06802F0ECF80346042240F2EC6182
:10A36000304604F0EEFF2844F8BDF8B5064600205C
:10A3700000900C460868694602F0DAF803460422A9
:10A3800040F2E471304604F0DCFF0546694660683F
:10A3900002F0CEF8034604224FF4FD61304604F08B
:10A3A000D0FF05446946A06802F0C2F803460422C3
:10A3B00040F2EC71304604F0C4FF2844F8BDF8B513
:10A3C0000646002000900C460868694602F0B0F886
:10A3D0000346042240F6B401304604F0B2FF0546BD
:10A3E0006946606802F0A4F80346042240F6B8010A
:10A3F000304604F0A6FF05446946A06802F098F8CC
:10A400000346042240F6BC01304604F09AFF28447B
:10A41000F8BDF8B50546002000900C46086869466E
:10A4200002F086F8034604224FF4B871284604F07F
:10A4300088FF06466946606802F07AF803460422FF
:10A440004FF4BA71284604F07CFF06446946A068C0
:10A4500002F06EF8034604224FF4BC71284604F063
:10A4600070FF06446946E06802F062F80346042281
:10A470004FF4BE71284604F064FF06446946206923
:10A4800002F056F8034604224FF4C071284604F047
:10A4900058FF06446946606902F04AF80346042200
:10A4A0004FF4C271284604F04CFF06446946A06987
:10A4B00002F03EF8034604224FF4C471284604F02B
:10A4C00040FF06446946E06902F032F80346042280
:10A4D0004FF4C671284604F034FF06446946206AEA
:10A4E00002F026F8034604224FF4C871284604F00F
:10A4F00028FF3044F8BD38B504460A4600200090D5
:10A50000694610B202F00FF8034602224C212046A1
:10A5100004F017FF38BD08B50A0A8DF800208DF841
:10A5200001106B460222402104F00BFF08BD000021
:10A53000044A0B0A1370517013460222422104F0A0
:10A5400000BF00003466002038B504460A460020EB
:10A550000090694610B201F0E6FF034602228A210C
:10A56000204604F0EEFE38BD38B50A46044669467A
:10A57000104601F0DDFF034604224FF49871204697
:10A5800004F0DFFE38BD08B50A0A8DF800208DF80A
:10A5900001106B4602224E2104F0D3FE08BD38B5EF
:10A5A00004460A46002000906946104601F0C0FFAC
:10A5B000034604224FF48871204604F0C2FE38BDE1
:10A5C00038B505460020044600900C291CD2DFE86F
:10A5D00001F006081B0A0C0E10121416181ABE24DD
:10A5E00012E0BA2410E0B6240EE0B2240CE0AC2451
:10A5F0000AE0A82408E0A02406E0A42404E0BC2487
:10A6000002E0B82400E0B4246946104601F08BFF54
:10A61000034621460222284604F093FE38BDF8B5D1
:10A62000044600264FF48060354637460090207F70
:10A63000032120F0C0022277204604F06FFF05437B
:10A640001F21204603F006F905431E21204603F092
:10A6500001F9054384F89C7069462046FFF7EBFB3F
:10A66000284305000DD1761C0098F6B208B1062EDD
:10A67000DDD3207F032140F0C0022277204604F082
:10A680004DFFF8BD10B50021024806F024F980F313
:10A69000100010BD8C8200204FF480328A40016887
:10A6A000C1F848230068C0F8082370474FF4A0722F
:10A6B00002EB810189B200F0A1B92DE9F041054614
:10A6C0000E464FF4A07000EB860081B228684FF46C
:10A6D0008034B440984622F07F47C0F80843286889
:10A6E000C0F84843286807F017F9286800EB86008F
:10A6F000C0F840752868C0F84443B8F1000F02D094
:10A700002868C0F80443BDE8F0810068D0F804056B
:10A710007047000070B54379234C44F823204279F8
:10A72000231D03EBC202224C1579204A121BD408C8
:10A730002DB10825022000EB04401EA130E0056881
:10A740000A88C5F8082590F904208978002A4FEA7C
:10A75000411104DB02F1E02282F8001405E002F06E
:10A760000F0202F1E02282F8141D90F90410012278
:10A77000002909DB01F01F0502FA05F549098900E6
:10A7800001F1E021C1F800514179002503EBC1013D
:10A790000A71417943F83100032000EB04400EA117
:10A7A00006F0DAFE284670BD8863002030600300A2
:10A7B000D85F030052544320696E7374616E636501
:10A7C00020616C726561647920696E697469616C7D
:10A7D000697A65642E0000005254433A20696E691C
:10A7E0007469616C697A65642E00000090F9040058
:10A7F000002809DB00F01F02012191404009800080
:10A8000000F1E020C0F8001270470A46022100F073
:10A810007BB84FF4827100F0F1B80068012101604B
:10A82000704700680121416070472DE9F05F0746DD
:10A830000C464FF4A07000EB84001FFA80FA3868D1
:10A840004FF48036A6409B4622F07F45C0F848630F
:10A850003868C0F808633868D0F8048500EB8402D3
:10A86000D2F84095C2F840855146386807F054F850
:10A87000A9EB080020F07F40012806D1102007F046
:10A880001FFB5146386807F047F83868D0F8048550
:10A89000C0F84463A5EB080121F07F413868012925
:10A8A00000EB840010D0C0F840553868D0F804158B
:10A8B0006FF07F4C6A1A521E22F07F42ACEB0B0302
:10A8C000934217D362B118E06D1CC0F840551020B8
:10A8D00007F0F6FA3868D0F8040540450AD10CE0D4
:10A8E00000EB84006D1CC0F840553868D0F80405B2
:10A8F000884202D00D20BDE8F09F01223146384643
:10A9000000F002F80020F6E70368C3F84413002AB9
:10A9100002D00068C0F80413704700002DE9F84F1A
:10A920000E463449804601EB5001C007097801D03A
:10A930000F0901E001F00F074FF000094246012026
:10A940004946FBF782FDDFF8B0A004460D46052F0F
:10A950004ED2DFE807F003161B282C00002E47D04C
:10A960000121404608F06CFE8DF800906846FDF726
:10A9700021FD5046D0E904120C431543CAE90445B1
:10A9800032E00EB1022114E0002112E04EB10321A9
:10A99000404608F055FE4046BDE8F84F012109F059
:10A9A00017BD012105E0002E22D1042101E02EB1C6
:10A9B00003214046BDE8F84F08F042BE0021404662
:10A9C00008F03EFE0021404609F002FD8DF800909F
:10A9D0006846FDF7EFFC5046E243D0E904341A40E4
:10A9E00024EA0501CAE904219DF80000FDF706FDEF
:10A9F000BDE8F88F287C00203063002010B5006887
:10AA000042581AB106F088FF012010BD002010BD89
:10AA10002DE9FC471C4691460F4682460025DFF88B
:10AA200064801EE008EB0500234601AA694600F099
:10AA3000A5F90646781BB04215DBBDF80410BDF839
:10AA40000000FEF7F5FF30B15046FFF7E8FD4FF08C
:10AA5000FF30BDE8FC87B9F800003544401CA9F878
:10AA60000000BD42DEDB54B1618AE08B01446182AB
:10AA7000A18A0844A082E088E18A0844E08000209E
:10AA8000E7E70000BC850020826883881A400368DD
:10AA90009A5C0A708168491C81607047C26883882B
:10AAA0001A4003689954C168491CC16070470AB1D3
:10AAB00005F0F0BE05F0D8BE70B50D460446B0F8FE
:10AAC0001414D0F810040122FDF71FFE00B1057028
:10AAD00004F13C0204F5826104F1540072DF70BDA0
:10AAE00010B50446C0B2FDF73BFC204610BD000087
:10AAF00010B5002821D0114B0022001F196803E077
:10AB0000814203D80A4649680029F9D152B1136835
:10AB1000841A9C4204D1006818441060104602E078
:10AB2000506000E0186039B102680B1A934203D1FB
:10AB30000B681A4402604968416010BD40660020FD
:10AB40000C484A8843889A4213D10A88A2F52063A8
:10AB5000773B0ED18988C91E8AB282800648074990
:10AB60001346401AC008032101EB004004A106F07F
:10AB7000FEBC7047D82A002048600300D85F03005D
:10AB800044617461206C656E206973207365742064
:10AB9000746F2030782558282564290010B509499C
:10ABA000094805F00FFF08B1FDF7DCFAF721064868
:10ABB00005F0FCFE002803D0BDE81040FDF7D2BA36
:10ABC00010BD000041AB02006875002010B58CB0CC
:10ABD00004462C222E496846FBF75CFC1522694688
:10ABE0002046FBF7ADFF03460121204601F0F8FEA9
:10ABF00000284FF02A0120460FD001F0F1FE48B1A5
:10AC0000B4F84612B4F84802814200D20846A4F8CB
:10AC1000060108E0B4F84602F9E701F0E1FE10B1E0
:10AC2000B4F84802F3E7B4F8540120B1B4F82001B5
:10AC3000984200D80346B4F8580120B1B4F8220174
:10AC4000984200D80346B4F8560120B1B4F8240164
:10AC5000984200D803462721204601F0C1FE20B9C2
:10AC60001421204601F0BCFE10B1052B00D30523B2
:10AC70001F21204601F0B4FE20B90B21204601F02F
:10AC8000AFFE10B1052B00D305230CB0184610BD44
:10AC90009449030010B588B0044620221B49684639
:10ACA000FBF7F8FB0F2269462046FBF749FF0346F6
:10ACB0001021204601F094FE00284FF02B01204681
:10ACC0000DD001F08DFE38B1B4F84A12B4F84C0240
:10ACD000814209D2084607E0B4F84A0204E001F0D4
:10ACE0007FFE18B1B4F84C02A4F808011F212046D9
:10ACF00001F076FE20B90B21204601F071FE10B163
:10AD0000052B00D3052308B0184610BDC049030029
:10AD10000021022802D24FF4617113E0821E022A40
:10AD200002D24FF4E1710DE0021F042A01D2E121A9
:10AD300008E0A0F10802092A01D2702102E01128DE
:10AD400000D338210846704710B50B48FFF7DDFCEB
:10AD5000094A083AD2E90434C018D2E9063244F16B
:10AD60000001C31A71EB020204D24FF08072801806
:10AD700041F1000110BD00005063002070B505884E
:10AD800002246DBA0D802D0409D508243BB15D88DD
:10AD90006D1C5D80B3F854506D1CA3F854500D88A1
:10ADA0006D0413D5A41D002B03D01D8C05F10105E6
:10ADB0001D8404F1060409D01D8905F101051D81DA
:10ADC000B3F8565005F10105A3F856500D88AD04AF
:10ADD00004D5A41D13B19D8B6D1C9D830D88ED04BE
:10ADE00004D5083413B15D896D1C5D810D882D0576
:10ADF00004D50C3413B1DD8B6D1CDD830D886D051E
:10AE000004D50E3413B1DD8A6D1CDD820D88AE05CC
:10AE100000D5A41DED0504D50E3413B11D8D6D1C98
:10AE20001D850D78AD0604D50C3413B19D886D1CBD
:10AE30009D800D78ED0604D5241D13B19D8C6D1CED
:10AE40009D840978090704D54088A41C40BA108065
:10AE500001E00020108080B2410400D5A41C8104D0
:10AE600000D5A41CC10400D5A41C400506D5A41C13
:10AE700023B1B3F85C00401CA3F85C001078000616
:10AE800005D5A41D1BB133F85E0F401C1880A01C13
:10AE900070BD000008B50948094A6946006800907D
:10AEA00003208DF80100022007F062F808B1FDF7D9
:10AEB00059F90121022007F00BF808BDC84803002A
:10AEC000E5B0020010B5C0B2FEF798FC0446007869
:10AED00007F0B4F801466078012801D0012000E0B5
:10AEE000002090EA010F08D00449D1E90401084389
:10AEF00003D1BDE8104008F0D7BC10BD306300207E
:10AF0000F0B414460D46866821462846B446F0BC87
:10AF10001A466047F0B414460D46C66821462846D6
:10AF2000B446F0BC1A4660472DE9F0471E468846F5
:10AF30000746DDF8209000F045F804000ED1094DD9
:10AF40002870414632464B46381D07F0F7F9041E7B
:10AF500001D0FDF707F928780028FCD02046BDE88D
:10AF6000F0870000046400202DE9F84F8246DDE9F7
:10AF70000A68701CC4B29B4617468946204605F0F5
:10AF8000FFFA054600F8017B32465946FBF782FA84
:10AF90000B4E0020307023462A4649465046CDF8D5
:10AFA000008005F0BBFE041E01D0FDF7DBF8307811
:10AFB0000028FCD02846FFF79BFD2046BDE8F88F0F
:10AFC0000464002037B50A4D82B000222A700122A5
:10AFD0001346009204AA05F0A1FE041E01D0FDF75D
:10AFE000C1F828780028FCD005B0204630BD00000C
:10AFF00004640020142833D2DFE800F00A0C0E109D
:10B00000121416181A1C1E20222426282A2C2E3030
:10B01000012070470420704720207047212070478E
:10B020000E207047102070471A207047122070477A
:10B03000132070470F2070470B2070471420704773
:10B040000220704711207047192070471620704762
:10B05000092070470A207047032070471C20704762
:10B060004120704722283AD2DFE800F0391529350F
:10B070001739393939313325393919231B2B1F2118
:10B0800027392F39392D1D39373939391113022014
:10B09000704703207047002070470120704704204C
:10B0A000704705207047062070470720704708202A
:10B0B0007047092070470A2070470B2070470C200A
:10B0C00070470D2070470E2070470F2070471020EA
:10B0D00070471120704712207047132070471420CA
:10B0E000704700000149012008707047D82A0020ED
:10B0F0000146034802888A4200D0002070470000C1
:10B10000507A00202DE9FC5F0E008346DDE90C47F4
:10B11000C6F1000098469246814600D408460125B3
:10B1200003E000BF90FBFAF06D1C5045FADAA84529
:10B1300000D9454624B1002E01DB780700D5641EF6
:10B14000B80702D5B8F1000F0AD0F80708D13CB112
:10B15000A54205D220215846641EFEF7D7FAF6E72D
:10B16000002E02DA4E462D2102E0780703D52B216E
:10B170005846FEF7CBFA07F0030002280BD1B8F1CE
:10B18000000F08D13CB1A54205D230215846641EBB
:10B19000FEF7BCFAF6E7CDE9004743465246314692
:10B1A000584609F069F8BDE8FC9F000070B50D46EF
:10B1B000044600684FF4887106F02DFE4FF490713C
:10B1C000206806F028FE4FF49271206806F023FEF6
:10B1D0004FF4A271206806F01EFE4FF4AC71206897
:10B1E00006F019FE20681249C0F8041320686907A8
:10B1F00040F30730090E002804DB00F1E02080F85E
:10B20000001405E000F00F0000F1E02080F8141DAC
:10B21000206840F30730002809DB00F01F020121FD
:10B2200091404009800000F1E020C0F8001170BD9D
:10B23000100342002DE9F043002686B081461B4FE3
:10B2400030463446B0466D4611F804C0BCF1000FDC
:10B2500006D007EB4C0C3CF802CC45F824C002E0C9
:10B2600045F824800126641C032CEDDB00210DF140
:10B270000C0C00BF53F8214052F82170E41B4CF82D
:10B28000214066B955F82170B4EB670F00DA012050
:10B29000B9F1010F04D007EB6707A74200DA0120DC
:10B2A000491C0329E6DB06B0BDE8F0837C4A0300B5
:10B2B0002DE9F0419846069E17460C4605462F2973
:10B2C00005D02E2C03D0292C01D02D2C15D14FB117
:10B2D000308840F00800308095F83B02401C85F82B
:10B2E0003B020AE095F83B023246401EC3B285F8A5
:10B2F0003B324146284604F058F92C2C13D238F939
:10B300001410481C0FD004F01F0001228240600975
:10B3100005EB80004FB1D0F860311343C0F86031C5
:10B32000308808433080BDE8F081D0F86011914347
:10B33000C0F8601195F83B32324641462846BDE8D8
:10B34000F04104F032B90A8852BA02804A8852BAEF
:10B350004280898849BA818070470A888B7852BABE
:10B36000120442EA0322CB781A4302608A888B795E
:10B3700052BA120442EA0322CB791A4342600A8984
:10B380008B7A52BA1204C97A42EA03220A438260D3
:10B39000704770B5054600242146284600F09DF808
:10B3A00020B900222146284600F009F8641C412CEF
:10B3B000F2DB05F13000BDE8704003F099BE70B5D6
:10B3C000044615460846FFF74DFE01462A4604F19D
:10B3D0003000BDE8704001F061BD70B51D4600F160
:10B3E0003004032A16D0052A04D0072A0CD04FF0C7
:10B3F000FF3070BD0846FFF735FE01462A4620465D
:10B40000BDE8704001F0CEBE2046BDE87040194650
:10B4100001F015BF0846FFF725FE01462A462046E3
:10B42000BDE8704001F074BE2DE9F04186B01E46C3
:10B43000DDF8308017460D46040020D04FF4A66199
:10B44000FBF74FF8686900902868019068680290DF
:10B45000A8680390E86804902869022811D00020A9
:10B460000590C4F82C85A7601548C4F82865C4E980
:10B470000040144F04F130056E46386818B1AFF340
:10B4800000800120ECE74FF49F612846FBF729F884
:10B49000182231462846FAF7FDFF01203D6084F866
:10B4A000A40284F8A80284F8AC02284601F072FFD6
:10B4B0000C220321204600F007F806B0BDE8F08119
:10B4C000F848030038660020C9B2303003F008B8ED
:10B4D00011469AB2303002F04DB910B5202929D06A
:10B4E000212927D00F2925D0012923D0042921D0B3
:10B4F00010291FD011291DD012291BD0132919D0B2
:10B500001C2917D0192915D01A2913D0092911D0AF
:10B510000A290FD016290DD0022907D00E2905D0EF
:10B52000142903D0032901D00B2905D1303000F0B4
:10B5300021FF08B1002010BD6FF00A0010BD00000F
:10B540000146024A303002F09DB90000519C0200D1
:10B5500030B41C46D1B22246029B30BC303002F0DF
:10B5600083BF70B50546FFF714FF0446284600F078
:10B570008EF8204370BD70B50C460546FFF7ADFF51
:10B5800001006FF00A000DD1202C07D0012C05D04E
:10B59000212C03D0042C01D0022C03D195F8C0003B
:10B5A00008B1002070BD2846FFF7F3FE05F130001A
:10B5B00002F0D9FFC043400706D04FF0FF342846C1
:10B5C000FFF7CFFF204670BD012185F8C010002491
:10B5D000F5E7FEB51D460E4600F13004032A28D0DB
:10B5E000052A04D0072A1DD04FF0FF30FEBD0846C3
:10B5F000FFF738FD01466A46204601F089FD3046D6
:10B60000FFF730FD01462A46204603F0CAF90546F9
:10B610003046FFF727FD01466A46204603F086F8CC
:10B620002846FEBD197803B02046BDE8F04003F07F
:10B6300010BB0846FFF716FD014603B02A46204618
:10B64000BDE8F04003F072B870B5044615460846F0
:10B65000FFF708FD0246294604F13000BDE87040BE
:10B6600003F000BB70B504464FF47A70B2FBF0F5FE
:10B670000846FFF7F7FC01462A4604F13000BDE812
:10B68000704003F08DBC91B2303001F0C7BB38B5CB
:10B690000446694600F022F800281BD19DF80000FE
:10B6A000C8B1FF2817D004F13000054601F008FEAC
:10B6B00004F5A564284606CC01F088FE002809D1CF
:10B6C000284601F094FE284601F022FE284601F0AB
:10B6D00061FE002038BD4FF0FF3038BD10B521B1FC
:10B6E000BDE81040303001F0C7BDAFF3008030B48A
:10B6F0001C46D1B22246029B30BC303003F0CDBE96
:10B700002DE9F843002480461D4616460F46204684
:10B71000CDF8004046F8204045F82040401C032862
:10B72000F8DB6B46404604F06BF800282DD100BFD3
:10B7300056F82010009A91FBF2F146F82010401CB8
:10B740000328F5DB012F22D01E2240F215114046BE
:10B7500003F0E4FE002818D144F6206003F0C0FC9A
:10B760006B462A4639464046009404F049F80028C2
:10B770000BD100BF55F82010009A91FBF2F145F86B
:10B780002010401C0328F5DB0020BDE8F8833B2295
:10B790004FF48171DBE700002DE9FF4F4FF0000807
:10B7A00099B091460D460446464647465822E74919
:10B7B00001A8CDF85C80FAF76DFE4FF0010BB9F1EE
:10B7C000000F0AD02946204601F00AF928B9284678
:10B7D00002F038FF011981F8ACB2112D0CD0122DF6
:10B7E00015D0132D26D02E2D28D02D2D31D02F2D34
:10B7F00039D0292D3CD03FE0B9F1000F04D04FF4EF
:10B800000060A4F83E0209E0A4F83E720CE0B9F131
:10B81000000F07D04FF40050A4F84002B4F84202E1
:10B82000401C04E0A4F84072B4F84202401EA4F8A0
:10B83000420221E0B9F1000FF6D0EFE7B9F1000FB5
:10B8400004D04FF48060A4F8580115E0A4F85871B2
:10B8500012E0B9F1000F03D02020A4F85601DDE773
:10B86000A4F85671E0E74946204601F0C4F803E029
:10B870004946204601F029F904F5AD70009001AB6E
:10B880004A4629462046FFF713FDB4F85A112046D0
:10B89000FEF741FE0746B4F85601B4F85A1110B14C
:10B8A00048F2080001432046FEF725FE0743B4F89E
:10B8B0005A010104B4F85C1102D541F4804101E061
:10B8C00021F48041A4F85C1144F240010842B4F82C
:10B8D0005C1102D041F4005101E021F40051A4F8C0
:10B8E0005C1110F4846F03D1C10501D4800404D528
:10B8F000B4F85C0140F4805003E0B4F85C0120F43B
:10B900008050A4F85C01B4F858010028B4F85C0138
:10B9100002D040F4806001E020F48060A4F85C0173
:10B92000B4F8560130B14CF204084FF08041204683
:10B93000FEF735FEB4F85C112046FEF7F9FD40EA4B
:10B94000070A8349D4F86001084205D1D4F864118C
:10B9500040F61802114200D001267E49084204D167
:10B96000B4F8641111F4DD6F01D046F00206B4F8AA
:10B97000581111B9B4F8561109B146F00206B4F8DD
:10B98000541109B146F002067349084204D194F8F3
:10B99000640110F0840F03D046F0080648F08008D8
:10B9A000F00701D048F48078B00701D548F400785A
:10B9B000B4F83E72B4F840020743B4F85A0147EABB
:10B9C0000807410501D547F0400710F0170F01D1D6
:10B9D000380506D547F440474FF080412046FEF732
:10B9E000DEFD94F85C01000606D547F440474FF0B1
:10B9F00080412046FEF7D3FDB4F85C01400501D537
:10BA000047F01007B4F85A01C00501D547F0080700
:10BA100039462046FEF7B7FD40EA0A07092D03D054
:10BA20000F2D01D00A2D0BD104F58872294620462E
:10BA300000F021FA04F593722946204600F01BFA23
:10BA4000032D01D00B2D11D104F589722946204612
:10BA500000F011FA04F594722946204600F00BFA22
:10BA600004F596722946204600F005FA1D2D03D0F4
:10BA7000232D01D01E2D0BD104F59B7229462046A3
:10BA800000F0F9F904F5A4722946204600F0F3F914
:10BA9000192D01D01F2D11D104F59C722946204685
:10BAA00000F0E9F904F5A5722946204600F0E3F913
:10BAB00004F5A7722946204600F0DDF9204603F080
:10BAC00015FF40EA0708204601F0B6FB074620466E
:10BAD00001F0B0FB01463A46204602F0B7FF40EACB
