:020000022000DC
:106000000000012095FC0300BDFC0300BFFC030061
:10601000C1FC0300C3FC0300C5FC0300000000003A
:10602000000000000000000000000000C7FC0300AA
:10603000C9FC030000000000CBFC0300CDFC030002
:10604000854C040081DC03007959040049B904003F
:1060500049C20400CFFC03008158040061390300E9
:1060600051C004006DC0040089C00400CFFC0300CF
:10607000CFFC0300CFFC0300CFFC0300CFFC0300E8
:10608000A9290300B9240400CFFC0300CFFC0300BE
:10609000CFFC0300CFFC0300A9A00400EDE3030044
:1060A000CFFC0300CFFC0300CFFC0300A5C004001D
:1060B000CFFC0300CFFC0300000000000000000044
:1060C000CFFC0300CFFC0300CFFC0300CFFC030098
:1060D000CFFC0300CFFC0300CFFC03000000000056
:1060E00000000000000000000000000000000000B0
:1060F00000000000000000000000000000000000A0
:10610000000000000000000000000000000000008F
:10611000000000000000000000000000000000007F
:10612000000000000000000000000000000000006F
:10613000000000000000000000000000000000005F
:10614000000000000000000000000000000000004F
:10615000000000000000000000000000000000003F
:10616000000000000000000000000000000000002F
:10617000000000000000000000000000000000001F
:10618000000000000000000000000000000000000F
:1061900000000000000000000000000000000000FF
:1061A00000000000000000000000000000000000EF
:1061B00000000000000000000000000000000000DF
:1061C00000000000000000000000000000000000CF
:1061D00000000000000000000000000000000000BF
:1061E00000000000000000000000000000000000AF
:1061F000000000000000000000000000000000009F
:1062000010B5054C237833B9044B13B10448AFF3F0
:1062100000800123237010BD408800200000000092
:10622000B836050008B5034B1BB103490348AFF36B
:10623000008008BD0000000044880020B83605003A
:10624000A3F5803A704700BF174B002B08BF134BD4
:106250009D46FFF7F5FF00218B460F461348144A71
:10626000121A26F09DF80E4B002B00D098470D4BCC
:10627000002B00D098470020002104000D000D489D
:10628000002802D00C48AFF3008026F02DF8200043
:10629000290000F045F826F001F800BF00000800D2
:1062A00000000000000000000000012040880020E5
:1062B000E8B9002000000000000000003FDF704748
:1062C00000BF184680B584B000AF78607B68002BB3
:1062D0000AD0074B43F00103FB607B689B01BB6066
:1062E000FB68B868984700E000BF1037BD4680BD26
:1062F00070ED040080B582B000AF78607B68002B41
:106300000AD04FF47A70FFF7DDFF7B68013B7B60BA
:106310007B68002BF5D100E000BF0837BD4680BD8B
:1063200080B500AF0120FFF7C9FF19F083FC14F01E
:10633000D7F919F0A7FC14F056FC14F09FFA19F0E5
:1063400061FC19F09BF819F02FF919F09BFA0CF089
:10635000F5FB0346002B08D00CF0FCFB002016F0E8
:1063600045F94FF4FA70FFF7C5FF16F04DF90EF03E
:1063700073F919F02BFB19F06DF90CF005FC0CF01A
:1063800031FC1AF0F3FF00BF1AF02EFA0346002B7F
:10639000FAD10CF027FC19F027FCF0E780B584B0A7
:1063A00000AF78607B6823F00043402B1AD87B68ED
:1063B00023F000437A68D20FD2B211460C4A5B0038
:1063C0000B4452F82330FB60FB68002B05D1094BCE
:1063D000094A6521094825F043FFFB68002B01D0DD
:1063E000FB6800E0064B18461037BD4680BD00BF75
:1063F000B84C002078ED04009CF8040080ED040007
:10640000A0ED040080B582B000AF786039607B6891
:10641000002B06D07B681B687A6852681146386882
:10642000984700BF0837BD4680BD0000B0B582B0B8
:1064300000AF78603960104B1B68002B05D00F4B04
:106440000F4AD8210F4825F00BFF4FF49F6200211F
:10645000786825F0A5FF7A683B6814461D460FCD85
:106460000FC495E8030084E80300034A7B681360C7
:1064700000BF0837BD46B0BD5C880020ACF8040002
:10648000B8F90400C4F8040080B483B000AF7860A9
:106490007B68013B202B6DD801A252F823F000BF8E
:1064A0002D650200556502006D6502003165020030
:1064B000756502007565020075650200756502006C
:1064C00065650200696502004D65020075650200A0
:1064D00075650200356502004965020039650200F4
:1064E00059650200416502004565020051650200E0
:1064F0007565020061650200756502007565020040
:106500005D6502003D65020075650200716502006F
:10651000756502007565020075650200256502005B
:1065200029650200022326E0032324E0002322E061
:10653000012320E004231EE005231CE006231AE0CB
:10654000072318E0082316E0092314E00A2312E0C9
:106550000B2310E00C230EE00D230CE00E230AE0C9
:106560000F2308E0102306E0112304E0122302E0C9
:10657000132300E0142318460C37BD465DF8047B56
:10658000704700BF80B483B000AF0346FB71FB7956
:10659000132B53D801A252F823F000BFED6502007F
:1065A000F1650200F5650200F9650200FD65020073
:1065B0000166020005660200096602000D6602001F
:1065C0001166020015660200196602001D660200CF
:1065D0002166020025660200296602002D6602007F
:1065E000316602003566020039660200012326E0AA
:1065F000042324E0202322E0212320E00E231EE0B8
:1066000010231CE01A231AE0122318E0132316E0CB
:106610000F2314E00B2312E0142310E002230EE0FA
:1066200011230CE019230AE0162308E0092306E0F1
:106630000A2304E0032302E01C2300E04123184660
:106640000C37BD465DF8047B704700BF80B586B04F
:1066500000AFF8607A603B600B46FB72FB687B61C1
:106660007B699B68F87A3A687968984703461846C8
:106670001837BD4680BD80B586B000AFF8607A603F
:106680003B600B46FB72FB687B617B69DB68F87AD9
:106690003A6879689847034618461837BD4680BD62
:1066A000B0B58CB002AFF860B9607A603B60144B53
:1066B0003B61144B7B61BB685B69BB61BB689B69D9
:1066C000FB61BB68DB693B62FB680C337B6207F1F3
:1066D0001001BB6B00933B687A68F86800F014F80F
:1066E000FB68BA6803F10C0415460FCD0FC495E89A
:1066F0000F0084E80F0000BF2837BD46B0BD00BFC3
:106700004D6602007766020080B58AB000AFF8607F
:10671000B9607A603B60FB68002B05D12A4B2B4A9D
:106720009B212B4825F09CFD4FF4A6620021F868C0
:1067300025F036FEBB685B693B61BB681B687B610B
:10674000BB685B68BB61BB689B68FB61BB68DB685F
:106750003B62BB681B69022B0CBF01230023DBB229
:106760007B62FB68FA681A60FB681A4A5A60FB6829
:106770007A689A60FB683A68C3F82825FB683A6B28
:10678000C3F82C25FB68303307F110021146184678
:10679000FFF74CFEFB68012283F8A422FB6801226C
:1067A00083F8A822FB68012283F8AC22FB6830330F
:1067B000184609F0E5FB0C220321F86800F01CFAEA
:1067C00000BF2837BD4680BD04F904009CF90400D1
:1067D0000CF9040044F9040080B584B000AF78607F
:1067E0007B68FB60FB683033044AF96818460AF09E
:1067F000B7F9034618461037BD4680BD616D0200EB
:1068000080B584B000AF786039607B68FB603B681E
:10681000002B05D1084B094AC921094825F020FD64
:10682000FB6830333968184609F052FB03461846B6
:106830001037BD4680BD00BF34F90400D4F9040010
:106840000CF9040080B584B000AF78600023FB60D1
:10685000786800F05CF80246FB681343FB607868D8
:1068600000F00EF80246FB681343FB60FB68002B48
:1068700001D0FB6800E0002318461037BD4680BDFC
:1068800080B586B000AF78607B687B6107F10F034D
:1068900019467869FFF7B4FF38613B69002B01D0D6
:1068A0003B6930E0FB7B002B02D0FB7BFF2B02D14E
:1068B0004FF0FF3327E07B693033184609F018FBAF
:1068C0007B6903F130007B69D3F828157B69D3F825
:1068D0002C351A4609F085FB38613B69002B10D135
:1068E0007B693033184609F0A9FE7B6930331846BE
:1068F00009F09EFB7B693033184609F041FB002309
:1069000001E000BF3B6918461837BD4680BD80B521
:1069100084B000AF78600023FB607B68BB6000231D
:10692000FB600EE0F968786800F077F80346002B0A
:1069300004D10022F968786800F0C4F8FB680133DC
:10694000FB60FB68402BEDDDBB683033184609F077
:106950008BFE034618461037BD4680BD80B586B015
:1069600000AFF860B9607A603B60FB687B617B696F
:1069700030333A6892B27968184609F016FF034638
:1069800018461837BD4680BD80B584B000AF78602A
:1069900039607B68BB603968786800F03EF8034670
:1069A000002B02D06FF00A0333E03B68202B0ED09F
:1069B0003B68012B0BD03B68212B08D03B68042B94
:1069C00005D03B68022B02D06FF00A0321E0BB68C0
:1069D00093F8C030002B01D000231AE07868FFF74D
:1069E00096FFBB683033184607F016FD034603F0E8
:1069F0000703072B06D1BB68012283F8C0200023C0
:106A0000FB6002E04FF0FF33FB607868FFF71AFF8E
:106A1000FB6818461037BD4680BD80B584B000AF16
:106A2000786039607B68FB603B68202B29D03B682D
:106A3000212B26D03B680F2B23D03B68012B20D085
:106A40003B68042B1DD03B68102B1AD03B68112BE0
:106A500017D03B68122B14D03B68132B11D03B6826
:106A60001C2B0ED03B68192B0BD03B681A2B08D07F
:106A70003B68092B05D03B680A2B02D03B68162BDC
:106A800001D100231AE03B68022B0BD03B680E2B90
:106A900008D03B68142B05D03B68032B02D03B6821
:106AA0000B2B09D1FB683033184602F0DFFE03469A
:106AB000002B01D0002301E06FF00A0318461037C5
:106AC000BD4680BD90B587B000AFF860B9607A6010
:106AD000FB687B617B6903F13004B868FFF7D4FC85
:106AE00003467A681946204609F0D2FD0346184647
:106AF0001C37BD4690BD000090B587B000AFF86070
:106B0000B9607A60FB687B617B680B4AA2FB032358
:106B10009B097B607B6903F13004B868FFF7B4FC24
:106B200003467A681946204609F0DFFD03461846F9
:106B30001C37BD4690BD00BFD34D621080B586B0F6
:106B400000AFF860B9607A60FB687B617B693033C5
:106B50007A6892B21146184609F000FE03461846BC
:106B60001837BD4680BD90B587B000AFF860B960FA
:106B70007A60FB687B617B6903F13004B868FFF7DA
:106B800083FC03461A467968204609F0B1FC0346A7
:106B900018461C37BD4690BD80B586B000AFF86082
:106BA000B9603B601346FB80FB687B617B6903F146
:106BB0003000FB88D9B23B6A3A6800F0B2FA03466B
:106BC00018461837BD4680BD80B586B000AFF86066
:106BD000B9603B601346FB80FB687B617B6903F116
:106BE0003000FB88D9B23B6A3A6800F087FA034666
:106BF00018461837BD4680BD80B584B000AFF86038
:106C0000B9601346FB71FB683033BA68D1B2FA79C8
:106C1000184602F069FB00BF1037BD4680BD90B535
:106C20008BB000AFF860B9607A603B60FB687B6254
:106C300000233B627B68072B34D07B68072B4ADC40
:106C40007B68032B39D07B68052B44D17B6A03F129
:106C50003004B868FFF718FC0346194607F114031F
:106C60001A46204609F068FB7B6A03F13004B868D5
:106C7000FFF70AFC03463A681946204609F0E9F98D
:106C800038627B6A03F13004B868FFF7FDFB034606
:106C9000194607F114031A46204609F0BBFA00BF53
:106CA0003B6A1AE07B6A03F130023B681B781946A5
:106CB000104609F0D3FB03460FE07B6A03F1300472
:106CC000B868FFF7E1FB03463A681946204609F029
:106CD000A1FA034601E04FF0FF3318462C37BD46BA
:106CE00090BD90B587B000AFF860B9607A603B6046
:106CF000FB687B617B68072B16D07B68072B29DC40
:106D00007B68032B18D07B68052B23D17B6903F1AB
:106D10003004B868FFF7B8FB03463A6819462046C6
:106D200009F00AFA034617E07B69303339681846E0
:106D300009F0AEFB03460FE07B6903F13004B8684D
:106D4000FFF7A2FB03463A681946204609F0F4FA19
:106D5000034601E04FF0FF3318461C37BD4690BD97
:106D600080B59EB004AFF860C7E900230B46FB7204
:106D7000FB687B66FB7A1846FFF704FC386607F170
:106D8000100302937B6F01933B6F0093D7E90023BD
:106D9000396E786E00F014F90346002B07D07B6E35
:106DA0009B6807F1100211461846FFF72BFB00BF46
:106DB0006837BD4680BD000080B58AB000AFF8607E
:106DC0007A603B600B46FB72FB7A013B202B00F2A2
:106DD000EF8001A252F823F0FF6E02001D6F020047
:106DE000916F0200E16E0200B16F0200B16F02000C
:106DF000B16F0200B16F0200FF6E0200FF6E020071
:106E00003B6F0200B16F0200B16F02009F6E020083
:106E1000596F02005D6E0200796F0200796F020007
:106E2000816F02003B6F0200B16F0200796F0200B8
:106E3000B16F0200B16F0200796F0200696F02004A
:106E4000B16F0200796F0200B16F0200B16F0200F2
:106E5000B16F0200A16F0200A16F020007F11003E1
:106E600018227968184625F073FA3B6B103307F146
:106E700010010C22184625F06BFA3B6B03F11C0045
:106E800007F110030C330C22194625F061FA3B6B15
:106E9000283301223968184625F05AFA8AE007F1AA
:106EA000100318227968184625F052FA3B6B10330C
:106EB00007F110010C22184625F04AFA3B6B03F14A
:106EC0001C0007F110030C330C22194625F040FA80
:106ED0003B6B283301223968184625F039FA69E0FE
:106EE0003B6B10330C227968184625F031FA3B6B66
:106EF000283301223968184625F02AFA5AE03B6BFC
:106F000010330C227968184625F022FA3B6B28339F
:106F100001223968184625F01BFA4BE03B6B103311
:106F20000C227968184625F013FA3B6B28330122AE
:106F30003968184625F00CFA3CE03B6B20330422FC
:106F40003968184625F004FA3B6B10331022796833
:106F5000184625F0FDF92DE03B6B103310227968BF
:106F6000184625F0F5F925E03B6B103304227968CB
:106F7000184625F0EDF91DE03B6B01221A6119E07E
:106F80003B6B103308227968184625F0E1F911E0CF
:106F90003B6B10330C227968184625F0D9F909E0CB
:106FA0003B6B10330C227968184625F0D1F901E0CB
:106FB000002300E0012318462837BD4680BD00BFEE
:106FC00080B586B002AFF860B960C7E900233B6ABC
:106FD000002B06D1144B154A40F23521144825F0F8
:106FE0003FF950220021386A25F0DAF9BB68D9B29E
:106FF0003B6A0093FB69BA69F868FFF7DDFE034658
:10700000002B01D100230BE0BA683B6A1A60396A91
:10701000D7E90023C1E902233B6A00225A60012319
:1070200018461037BD4680BD3CF90400F0F9040055
:107030000CF9040090B585B000AFF8607A603B6051
:107040000B46FB72FB68002B05D1104B104A4E21FA
:10705000104825F005F9FB68DB683A689A4202D9C6
:107060006FF004030EE0FB685C68FB681868F97A4F
:107070003B687A68A0470346002B02D06FF00203FA
:1070800000E0002318461437BD4690BD04FA040002
:1070900040FA040008FA040090B585B000AFF8602B
:1070A0007A603B600B46FB72FB68002B05D1104BEE
:1070B000104A5C21104825F0D3F8FB681B693A6838
:1070C0009A4202D96FF004030EE0FB689C68FB68EB
:1070D0001868F97A3B687A68A0470346002B02D00B
:1070E0006FF0020300E0002318461437BD4690BD40
:1070F00004FA04005CFA040008FA040080B584B0C5
:1071000000AFF8607A603B600B46FB72F868F97A72
:107110003B687A68FFF78EFF034618461037BD4676
:1071200080BD80B584B000AFF8607A603B600B46EC
:10713000FB72F868F97A3B687A68FFF7ADFF03469F
:1071400018461037BD4680BD80B582B000AF78606C
:107150007B68642202FB03F3184614F093F900BF26
:107160000837BD4680BD80B483B000AF78607B68CF
:107170007E2283F8DB247B68FF2283F8DC2400BFB7
:107180000C37BD465DF8047B704780B582B000AF18
:1071900078600B467B807B887F2B1CDC7E2B18DA8B
:1071A000762B16D0762B16DC722B14DC702B0BDAB8
:1071B000192B10DC182B0CDA072B02DC052B03DA59
:1071C00009E00F3B012B06D8786806F03AFA03462F
:1071D00003E0002301E000BF012318460837BD4645
:1071E00080BD80B584B000AF78600B46FB707B68D3
:1071F00093F8DB34FA789A4201D1002331E07B68BE
:10720000FA7883F8DB247B6803F2DA4201237F21DA
:107210007868FFF773FFF860FB68002B01D0FB680C
:107220001FE07B6893F8DA3423F03103DAB27B682D
:1072300083F8DA247B6893F8DA345AB2FB781B01BE
:107240005BB213435BB2DAB27B6883F8DA247B6803
:1072500003F2DA4201237F217868FFF762FFF860CA
:10726000FB6818461037BD4680BD80B588B000AFBA
:10727000F8607A603B600B467B810023FB61002352
:10728000BB617B89DBB203F07F03FB75F86807F015
:10729000C1FE0346BB75BB7D03F00103002B05D186
:1072A00001220121F86807F00BFEF8617B8919467D
:1072B000F868FFF76AFF0346002B08D0002202217E
:1072C000F86807F0FDFD0246FB691343FB617B890B
:1072D000DB099BB2DBB21946F868FFF782FF024672
:1072E000FB691343FB611FE07A68BB69D31A102B5B
:1072F00028BF10233B61BB69DAB2FB7D1344D9B2CE
:107300003A68BB691A443B69F868FFF70AFF02460E
:10731000FB691343FB61FB69002B01D0FB6919E09A
:107320003B69BA691344BB61BA697B689A42DBD393
:107330007B891946F868FFF728FF0346002B08D021
:1073400001220221F86807F0BBFD0246FB691343E6
:10735000FB61FB6918462037BD4680BD80B584B00F
:1073600000AF78600B467B8013467B700023FB6088
:107370007B88DBB203F07F03FB72786807F04AFE7C
:107380000346BB72BB7A03F00103002B05D1012237
:107390000121786807F094FDF8607B8819467868C9
:1073A000FFF7F3FE0346002B08D000220221786885
:1073B00007F086FD0246FB681343FB607B88DB0910
:1073C0009BB2DBB219467868FFF70BFF0246FB68F9
:1073D0001343FB607A1CF97A01237868FFF7A1FE5A
:1073E0000246FB681343FB607B8819467868FFF709
:1073F000CCFE0346002B08D001220221786807F05A
:107400005FFD0246FB681343FB60FB6818461037BC
:10741000BD4680BD80B58CB000AFF8607A603B603F
:107420000B467B810023FB620023BB627B89DBB2BE
:1074300003F07F0387F82630F86807F0EBFD03467A
:1074400087F8253097F8253003F00103002B05D18C
:1074500001220121F86807F033FDF8627B891946A3
:10746000F868FFF792FE0346002B08D000220221A5
:10747000F86807F025FD0246FB6A1343FB627B892F
:10748000DB099BB2DBB21946F868FFF7AAFE024699
:10749000FB6A1343FB6238E07A68BB6AD31A102B8D
:1074A00028BF10233B62FB6893F82730022B12D1D0
:1074B000BB6ADAB297F826301344D9B207F110024A
:1074C000BB6A1A443B6AF868FFF718FE0246FB6A7B
:1074D0001343FB6210E0BB6ADAB297F8263013441C
:1074E000D9B23A68BB6A1A443B6AF868FFF706FEED
:1074F0000246FB6A1343FB62FB6A002B01D0FB6A66
:1075000038E03B6ABA6A1344BB62BA6A7B689A4243
:10751000C2D3FB6893F82730022B19D1002387F8D8
:10752000273010E097F8273007F13002134413F8A2
:10753000202C3B681A703B6801333B6097F827307A
:10754000013387F8273097F827307A689A42E9D8CC
:107550007B891946F868FFF718FE0346002B08D010
:1075600001220221F86807F0ABFC0246FB6A1343D4
:10757000FB62FB6A18463037BD4680BD80B58EB0D1
:1075800000AFF8607A603B600B467B8100237B6331
:1075900000233B630023BB6107F11C0300221A6038
:1075A0005A609A60F86807F035FD034687F82E3078
:1075B0003B68002B02D14FF0FF33C0E097F82E302C
:1075C00003F00103002B05D101220121F86807F027
:1075D00077FC78637B891946F868FFF7D6FD034688
:1075E000002B08D000220221F86807F069FC02464F
:1075F0007B6B13437B630021F868FFF7F2FD0246C3
:107600007B6B13437B637B891B0A9BB2DBB2FB75ED
:10761000FB6893F8DC24FB7D9A425BD007F11702EC
:1076200001237E21F868FFF77CFD02467B6B134344
:107630007B637B6B002B01D07B6B80E0FA7DFB686A
:1076400083F8DC2446E07B89DBB2BB7507F11602C8
:1076500001237C21F868FFF764FD02467B6B13432E
:107660007B637B6B002B01D07B6B68E07A683B6BA4
:10767000D31A102B28BF1023BB62FB6893F8273066
:10768000022B0DD107F118023B6B1A44BB6A7D2116
:10769000F868FFF733FD02467B6B13437B630BE017
:1076A0003A683B6B1A44BB6A7D21F868FFF726FDF8
:1076B00002467B6B13437B637B6B002B01D07B6BA0
:1076C0003DE03A6BBB6A13443B63BB6A9AB27B8969
:1076D00013447B813A6B7B689A42B4D3FB6893F87E
:1076E0002730022B19D1002387F82F3010E097F8AC
:1076F0002F3007F13802134413F8202C3B681A701E
:107700003B6801333B6097F82F30013387F82F3007
:1077100097F82F307A689A42E9D87B891946F86839
:10772000FFF733FD0346002B08D001220221F86841
:1077300007F0C6FB02467B6B13437B637B6B1846EB
:107740003837BD4680BD80B58AB000AFF8607A603A
:107750003B600B467B8100237B6200233B62F86821
:1077600007F058FC0346FB773B68002B02D14FF033
:10777000FF337DE0FB7F03F00103002B05D10122E5
:107780000121F86807F09CFB786200220221F8686A
:1077900007F096FB02467B6A13437B620021F86880
:1077A000FFF71FFD02467B6A13437B627B891B0A3E
:1077B0009BB2DBB2FB75FB6893F8DC24FB7D9A423D
:1077C00048D007F1170201237E21F868FFF7A9FCD2
:1077D00002467B6A13437B627B6A002B01D07B6A83
:1077E00046E0FA7DFB6883F8DC2433E07B89DBB27A
:1077F000BB7507F1160201237C21F868FFF791FCA5
:1078000002467B6A13437B627B6A002B01D07B6A52
:107810002EE07A683B6AD31A102B28BF1023BB6175
:107820003A683B6A1A44BB697D21F868FFF779FC26
:1078300002467B6A13437B627B6A002B01D07B6A22
:1078400016E03A6ABB6913443B62BB699AB27B8912
:1078500013447B813A6A7B689A42C7D30122022192
:10786000F86807F02DFB02467B6A13437B627B6A54
:1078700018462837BD4680BD80B584B000AF78601B
:107880000B467B8013467B700023FB607B88DBB25A
:1078900003F07F03FB727B88DB099BB2DBB21946E6
:1078A0007868FFF79EFC0246FB681343FB607A1C76
:1078B000F97A01237868FFF734FC0246FB6813432A
:1078C000FB60FB6818461037BD4680BD80B582B0AE
:1078D00000AF78607B6840F283129A857B684FF432
:1078E000C272DA857B6840F285121A867B684FF493
:1078F000C3725A867B6840F287129A867B684FF47F
:10790000C472DA867B6840F289121A877B684FF46A
:10791000C5725A877B6840F28B129A877B684FF456
:10792000C672DA877B6840F28D12A3F840207B682C
:107930004FF4C772A3F842207B6840F28F12A3F87D
:1079400044207B684FF4C872A3F846207B6840F25D
:107950009112A3F848207B684FF4C972A3F84A201B
:107960000021786800F034F90121786800F030F9DE
:107970000221786800F02CF90321786800F028F9DA
:1079800000BF0837BD4680BD80B586B000AFF86047
:10799000B96011461A460B46FB711346BB710023B2
:1079A0007B61FB7963F07F03DBB2FB74FA68BB6831
:1079B0000533DB001344998807F113030122F868AB
:1079C000FFF753FC02467B6913437B61BB79FB7471
:1079D000FA68BB680533DB001344D98807F1130349
:1079E0000122F868FFF741FC02467B6913437B6183
:1079F00097F8203063F07F03DBB2FB74FA68BB6852
:107A00000533DB001344198907F113030122F868D9
:107A1000FFF72BFC02467B6913437B617B691846A9
:107A20001837BD4680BD80B588B002AFF860B96038
:107A30003B601346FB7100237B613B68D9B23B6A14
:107A4000DBB2FA7900930B46B968F868FFF79CFF40
:107A500002467B6913437B61F86800F0CEF802466A
:107A60007B6913437B614EF6602013F00BFDF868D1
:107A700000F0DAF802467B6913437B613A6A7B6A5D
:107A80003B21F868FFF7C6FC02467B6913437B6124
:107A9000B968F86800F09CF802467B6913437B6183
:107AA0007B6918461837BD4680BD80B586B000AFEB
:107AB000F860B96011461A460B46FB711346BB715C
:107AC00000237B61FB79FB74FA68BB680533DB003C
:107AD0001344998807F113030122F868FFF7C5FBE7
:107AE00002467B6913437B61BB79FB74FA68BB6810
:107AF0000533DB001344D98807F113030122F8682A
:107B0000FFF7B3FB02467B6913437B6197F8203094
:107B1000FB74FA68BB680533DB001344598907F12D
:107B200013030122F868FFF7A0FB02467B691343A9
:107B30007B618123FB74FA68BB680533DB00134467
:107B4000198907F113030122F868FFF78EFB02463B
:107B50007B6913437B617B6918461837BD4680BD3E
:107B600080B588B002AFF860B9603B601346FB7126
:107B700000237B613B68D9B2FA7997F820300093F3
:107B80000B46B968F868FFF790FF02467B6913431C
:107B90007B61F86800F031F802467B6913437B6132
:107BA0004EF6602013F06EFCF86800F03DF80246D7
:107BB0007B6913437B61B968F86800F009F80246F5
:107BC0007B6913437B617B6918461837BD4680BDCE
:107BD00080B582B000AF786039607A683B68053361
:107BE000DB0013441B89002219467868FFF7B6FBB7
:107BF000034618460837BD4680BD80B582B000AF49
:107C000078607B681B7F43F02003DAB27B681A77C9
:107C10007B681B7F1A4603217868FFF79FFB0346AA
:107C200018460837BD4680BD80B582B000AF786089
:107C30007B681B7F23F02003DAB27B681A777B68AE
:107C40001B7F1A4603217868FFF788FB0346184616
:107C50000837BD4680BD80B586B000AFF860B9601A
:107C60007A6000237B61BB685B10BB607B6901337A
:107C70007B61BB685B10002BF5D17B69032B01DCBA
:107C800004237B6101227B6902FA03F31A467B68B5
:107C90001A607B69DBB21946F86807F058FC0346A6
:107CA00018461837BD4680BD90B585B000AFF86066
:107CB000B9607A60FB681A68BB681B681946104691
:107CC00000F088FB0446FB6804331A68BB68043381
:107CD0001B681946104600F07DFB0346E41AFB685A
:107CE00008331A68BB6808331B681946104600F051
:107CF00071FB0346E41AFB680C331A68BB680C334B
:107D00001B681946104600F065FB0346E21A7B68C3
:107D10001A60FB681A68BB6804331B681946104672
:107D200000F058FB0446FB6804331A68BB681B6804
:107D30001946104600F04EFB03461C44FB6808330E
:107D40001A68BB680C331B681946104600F042FBEA
:107D500003461C44FB680C331A68BB6808331B6875
:107D60001946104600F036FB02467B680433A21A1F
:107D70001A60FB681A68BB6808331B68194610460E
:107D800000F028FB0446FB6804331A68BB680C3318
:107D90001B681946104600F01DFB0346E41AFB68F9
:107DA00008331A68BB681B681946104600F012FBBE
:107DB00003461C44FB680C331A68BB6804331B6819
:107DC0001946104600F006FB02467B680833224441
:107DD0001A60FB681A68BB680C331B6819461046AA
:107DE00000F0F8FA0446FB6804331A68BB680833ED
:107DF0001B681946104600F0EDFA03461C44FB6868
:107E000008331A68BB6804331B681946104600F033
:107E1000E1FA0346E41AFB680C331A68BB681B6876
:107E20001946104600F0D6FA02467B680C3322440D
:107E30001A6000BF1437BD4690BD80B483B000AF58
:107E4000786039607B681A683B681A607B68043325
:107E50001A683B68043352421A607B6808331A6818
:107E60003B68083352421A607B680C331A683B68DF
:107E70000C3352421A6000BF0C37BD465DF8047BDC
:107E8000704790B585B000AFF860B9607A60FB6864
:107E90001A68BB681B681946104600F09BFA044636
:107EA000FB6804331A68BB6804331B681946104624
:107EB00000F090FA03461C44FB6808331A68BB685C
:107EC00008331B681946104600F084FA03461C4428
:107ED000FB680C331A68BB680C331B6819461046E4
:107EE00000F078FA0346E2187B681A60FB680433F6
:107EF0001A68BB681B681946104600F06BFA044606
:107F0000FB681A68BB6804331B681946104600F00A
:107F100061FA0346E41AFB6808331A68BB680C333D
:107F20001B681946104600F055FA0346E41AFB6830
:107F30000C331A68BB6808331B681946104600F0FA
:107F400049FA02467B68043322441A60FB68043312
:107F50001A68BB680C331B681946104600F03AFAE1
:107F60000446FB681A68BB6808331B68194610464C
:107F700000F030FA0346E41AFB6808331A68BB685D
:107F80001B681946104600F025FA03461C44FB689E
:107F90000C331A68BB6804331B681946104600F09E
:107FA00019FA02467B680833A21A1A60FB681A683D
:107FB000BB680C331B681946104600F00BFA0346E9
:107FC0005C42FB6804331A68BB6808331B681946B7
:107FD000104600F0FFF90346E41AFB6808331A68FC
:107FE000BB6804331B681946104600F0F3F90346DA
:107FF0001C44FB680C331A68BB681B6819461046A2
:1080000000F0E8F902467B680C3322441A6000BF96
:108010001437BD4690BD80B594B000AFF860B9602C
:108020007A6000233B6207F1200304330C22B96815
:10803000184624F08DF907F1400207F12003194694
:10804000F868FFF731FE07F130031946F868FFF7CB
:10805000F4FE07F1100207F1300107F14003184662
:10806000FFF722FE07F1100304330C22194678684B
:1080700024F06EF900BF5037BD4680BD80B582B098
:1080800000AF786039607B68A833102239681846E1
:1080900024F05EF900BF0837BD4680BD80B58CB0C6
:1080A00000AFF860B9607A6007F120031946B8683C
:1080B00000F0BEF9FB6803F1A80107F1100207F117
:1080C00020031846FFF7DDFE3B69002B33DB7B699D
:1080D00007EE903AF8EEE77A9FED347A67EE877A0A
:1080E0007B68C3ED007ABB6907EE903AF8EEE77A59
:1080F0007B6804339FED2D7A67EE877AC3ED007AB3
:10810000FB6907EE903AF8EEE77A7B6808339FED5B
:10811000277A67EE877AC3ED007A3B6907EE903ADB
:10812000F8EEE77A7B680C339FED207A67EE877A6A
:10813000C3ED007A36E07B695B4207EE903AF8EED9
:10814000E77A9FED1A7A67EE877A7B68C3ED007A4B
:10815000BB695B4207EE903AF8EEE77A7B6804333E
:108160009FED127A67EE877AC3ED007AFB695B4276
:1081700007EE903AF8EEE77A7B6808339FED0B7ACA
:1081800067EE877AC3ED007A3B695B4207EE903A6F
:10819000F8EEE77A7B680C339FED047A67EE877A16
:1081A000C3ED007A00BF3037BD4680BD000080308F
:1081B00080B588B000AF7860396007F10C031946CC
:1081C000786800F0E2FA0023FB612FE0FB699B0076
:1081D00007F120021344143BD3ED007A9FED177A88
:1081E00027EE877AFB699B0007F120021344143BBA
:1081F000D3ED007AF5EEC07AF1EE10FA02DBF7EE7D
:10820000007A01E0DFED0E7AF6EE006A77EEE67AAC
:1082100077EE277AFB699B003A681344FDEEE77A14
:1082200017EE902A1A60FB690133FB61FB69032B8F
:10823000CCDD00BF00BF2037BD4680BD0000804EB2
:108240000000000080B59AB000AFF860B96087ED1B
:10825000010A00237B6613E07B6EBA68134493F92E
:10826000003007EE903AF8EEE77A7B6E9B0007F15C
:1082700068021344283BC3ED007A7B6E01337B66B2
:108280007B6E082BE8DD07F1300207F14003114651
:108290001846FFF78DFF7B6B5B427B63BB6B5B42DA
:1082A000BB63FB6B5B42FB63D7ED017AF1EE677A50
:1082B0009FED287A27EE877ADFED276AC7EE267AC8
:1082C000F0EE006A87EEA67AB0EE470A25F0EAF8EB
:1082D000F0EE407A9FED217A67EE877AFDEEE77A3D
:1082E00017EE903A3B6100237B61D7ED017AF1EE06
:1082F000677A9FED187A27EE877ADFED176AC7EE67
:10830000267AF0EE006A87EEA67AB0EE470A25F0EC
:1083100001F9F0EE407A9FED117A67EE877AFDEE73
:10832000E77A17EE903ABB610023FB6107F1200268
:1083300007F1300107F110031846FFF7B5FC07F10C
:1083400020031946F868FFF799FE00BF6837BD465D
:1083500080BD00BFDB0F4940000034430000804E69
:1083600080B588B000AFF860B96087ED010A3A6067
:10837000FB68A83307F11402B9681846FFF74BFEF3
:108380007B6907EE903AB8EEE77AD7ED017A67EEAF
:10839000277A3B68C3ED007ABB6907EE903AB8EEE6
:1083A000E77A3B680433D7ED017A67EE277AC3EDAD
:1083B000007AFB6907EE903AB8EEE77A3B6808333B
:1083C000D7ED017A67EE277AC3ED007A00BF203738
:1083D000BD4680BD2DE9B00387B000AF786039603D
:1083E0007968C817884681463968C8170C4605461B
:1083F00004FB09F008FB05F10144A8FB0423194420
:108400000B46C7E90423C7E90423D7E904014FF069
:1084100000024FF00003820F42EA81028B171346DD
:10842000FB60FB6818461C37BD46BDE8B0037047CB
:1084300090B585B000AF786039600023FB607B6841
:108440001A687B681B6819461046FFF7C3FF03468E
:10845000C3F180447B6804331A687B6804331B686B
:1084600019461046FFF7B6FF0346E41A7B68083347
:108470001A687B6808331B6819461046FFF7AAFF85
:108480000346E31A184600F019F8F8603B68FA68EA
:108490001A603B6804337A6812681A603B680833D4
:1084A0007A6852681A603B680C337A6892681A607E
:1084B000002318461437BD4690BD000090B58BB020
:1084C00000AF78607B68002B01DC002380E0424B2A
:1084D000FB61424BBB614FF0C0437B6107F1080277
:1084E0003B1D1146184600F07BF8386100233B62C3
:1084F000BB68002B06DDBB68002B03F00103B8BF8F
:108500005B423B62BA683B6AD31ABB607B6803F18B
:108510004043FB607C687B68F9681846FFF75AFFA8
:1085200003465B10E31A7B623B69012B34DDFB6879
:108530005A107B69D31A1946F868FFF74BFF0346B8
:108540001946F868FFF746FF03465B10FB60F968C1
:10855000786AFFF73FFF03465B107A6AD31A7B62A3
:108560003B69032B18D1FB685A107B69D31A194653
:10857000F868FFF72FFF03461946F868FFF72AFF50
:1085800003465B10FB60F968786AFFF723FF034638
:108590005B107A6AD31A7B623B6A002B04D0B969FC
:1085A000786AFFF717FF7862BB68002B06DDBB68AF
:1085B0005B107A6A42FA03F37B6208E0BB68B3F1AE
:1085C000FF3F04D1F969786AFFF704FF78627B6A9C
:1085D00018462C37BD4690BD9A79825ACD3C412D24
:1085E00080B588B000AF78603960334BFB61334BA6
:1085F000BB61334B7B61334B3B61334BFB60334B94
:10860000BB607B681B68BA699A4209DA7B681B68A1
:108610005A107B681A603B684FF0FF321A602EE0F8
:108620007B681B68FA699A4226DD786800F050F88A
:1086300003461A463B681A607B681B68BA699A420F
:108640000ADC7B681B685A107B681A603B681B68F1
:108650005A1E3B681A6012E07B681B68FA699A42EE
:108660000DDD7B681B685A007B681A603B681B68DD
:108670005A1C3B681A6002E03B6800221A607B6863
:108680001B687A699A4204DC7B681B683A699A42E3
:1086900001DA03230CE07B681B68FA689A4204DC69
:1086A0007B681B68BA689A4201DA022300E0012362
:1086B00018462037BD4680BDFE855C2CFC0BB958A2
:1086C0009A99993966666646F6285C3F0AD7A340B0
:1086D00080B485B000AF78600023FB817B681B68A5
:1086E000002B01D100234AE07B681B681B0C1B0494
:1086F000002B08D1FB8910339BB2FB817B681B6880
:108700001A047B681A607B681B6803F07F43002BA8
:1087100008D1FB8908339BB2FB817B681B681A0276
:108720007B681A607B681B6803F07043002B08D1DC
:10873000FB8904339BB2FB817B681B681A017B6851
:108740001A607B681B6803F04043002B08D1FB894B
:1087500002339BB2FB817B681B689A007B681A60BE
:108760007B681B68002B08DAFB89013B9BB2FB810D
:108770007B681B685A087B681A60B7F90E30184688
:108780001437BD465DF8047B704790B58DB000AFDF
:10879000786039607B681B68FB627B685B68BB62E2
:1087A0007B689B687B627B68DB683B627B681B69DC
:1087B000FB617B685B69BB617B689B697B617B68F4
:1087C000DB693B617B681B6AFB60D7ED0B7AB7EE18
:1087D000007A37EE877AD7ED077A37EE277AD7ED2A
:1087E000037A37EE277AF1EE006AC7EE267A3B6805
:1087F000C3ED007AD7ED0B7AB7EE007A37EE877AC1
:10880000D7ED077A37EE677AD7ED037A37EE677AD6
:108810003B680433F1EE006AC7EE267AC3ED007AB6
:10882000B7EE007AD7ED0B7A37EE677AD7ED077A95
:1088300037EE277AD7ED037A37EE677A3B6808334D
:10884000F1EE006AC7EE267AC3ED007AB7EE007A41
:10885000D7ED0B7A37EE677AD7ED077A37EE677A7E
:10886000D7ED037A37EE277A3B680C33F1EE006AD6
:10887000C7EE267AC3ED007A3B68D3ED007AF5EEB9
:10888000C07AF1EE10FA03D53B684FF000021A608F
:108890003B680433D3ED007AF5EEC07AF1EE10FABE
:1088A00004D53B6804334FF000021A603B6808337C
:1088B000D3ED007AF5EEC07AF1EE10FA04D53B68FC
:1088C00008334FF000021A603B680C33D3ED007A96
:1088D000F5EEC07AF1EE10FA04D53B680C334FF098
:1088E00000021A603B68D3ED007AB0EE670A24F00C
:1088F0004BFEF0EE407A3B68C3ED007A3B680433F0
:10890000D3ED007A3B681C1DB0EE670A24F03CFEF4
:10891000F0EE407AC4ED007A3B680833D3ED007A7C
:108920003B6803F10804B0EE670A24F02DFEF0EE78
:10893000407AC4ED007A3B680C33D3ED007A3B6893
:1089400003F10C04B0EE670A24F01EFEF0EE407A4C
:10895000C4ED007A3B6893ED007A3B680433D3EDB5
:10896000007AB4EEE77AF1EE10FA51DB3B6893ED52
:10897000007A3B680833D3ED007AB4EEE77AF1EE83
:1089800010FA45DB3B6893ED007A3B680C33D3ED7E
:10899000007AB4EEE77AF1EE10FA39DB97ED067A59
:1089A000D7ED047A77EE676A3B68D3ED007AB1EED3
:1089B000007A27EE877A3B680433C6EE877AC3EDE8
:1089C000007A97ED057AD7ED097A77EE676A3B680A
:1089D000D3ED007AB1EE007A27EE877A3B68083350
:1089E000C6EE877AC3ED007A97ED0A7AD7ED087A5A
:1089F00077EE676A3B68D3ED007AB1EE007A27EE36
:108A0000877A3B680C33C6EE877AC3ED007A28E19B
:108A10003B68043393ED007A3B68D3ED007AB4EE03
:108A2000E77AF1EE10FA55DB3B68043393ED007AF8
:108A30003B680833D3ED007AB4EEE77AF1EE10FA32
:108A400048DB3B68043393ED007A3B680C33D3ED8D
:108A5000007AB4EEE77AF1EE10FA3BDB97ED067A96
:108A6000D7ED047A77EE676A3B680433D3ED007A7A
:108A7000B1EE007A27EE877AC6EE877A3B68C3EDBF
:108A8000007A97ED0A7AD7ED087A77EE276A3B6885
:108A90000433D3ED007AB1EE007A27EE877A3B6893
:108AA0000833C6EE877AC3ED007A97ED057AD7EDE5
:108AB000097A77EE276A3B680433D3ED007AB1EE8A
:108AC000007A27EE877A3B680C33C6EE877AC3EDCF
:108AD000007AC6E03B68083393ED007A3B68D3ED3B
:108AE000007AB4EEE77AF1EE10FA55DB3B68083312
:108AF00093ED007A3B680433D3ED007AB4EEE77A65
:108B0000F1EE10FA48DB3B68083393ED007A3B68DE
:108B10000C33D3ED007AB4EEE77AF1EE10FA3BDBDA
:108B200097ED057AD7ED097A77EE676A3B680833E7
:108B3000D3ED007AB1EE007A27EE877AC6EE877A17
:108B40003B68C3ED007A97ED0A7AD7ED087A77EEA5
:108B5000276A3B680833D3ED007AB1EE007A27EE3E
:108B6000877A3B680433C6EE877AC3ED007A97EDC7
:108B7000067AD7ED047A77EE276A3B680833D3ED9F
:108B8000007AB1EE007A27EE877A3B680C33C6EEA6
:108B9000877AC3ED007A64E03B680C3393ED007A8A
:108BA0003B68D3ED007AB4EEE77AF1EE10FA00DA22
:108BB00057E03B680C3393ED007A3B680433D3ED08
:108BC000007AB4EEE77AF1EE10FA00DA49E03B6899
:108BD0000C3393ED007A3B680833D3ED007AB4EEA2
:108BE000E77AF1EE10FA00DA3BE097ED0A7AD7ED7A
:108BF000087A77EE676A3B680C33D3ED007AB1EE02
:108C0000007A27EE877AC6EE877A3B68C3ED007A52
:108C100097ED057AD7ED097A77EE276A3B680C3332
:108C2000D3ED007AB1EE007A27EE877A3B68043301
:108C3000C6EE877AC3ED007A97ED067AD7ED047A0F
:108C400077EE276A3B680C33D3ED007AB1EE007AF9
:108C500027EE877A3B680833C6EE877AC3ED007A41
:108C6000FFE700BF3437BD4690BD2DE9F00F8AB055
:108C700000AF786139611346FB737B69DA173B609B
:108C80007A603B69DA179A469346D7E900010B46AA
:108C90000AFB03F2034603FB0BF313440246A2FB59
:108CA0000A894B449946C7E90889C7E90889F97BCD
:108CB000D7E90823C1F12006B1F1200022FA01F41E
:108CC00003FA06F644EA060402D443FA00F0044329
:108CD00043FA01F52346FB61FB6918462837BD4678
:108CE000BDE8F00F70472DE9B00387B000AF7860A2
:108CF00039607968C817884681463968C8170C46B4
:108D0000054604FB09F008FB05F10144A8FB042318
:108D100019440B46C7E90423C7E90423D7E9040132
:108D20004FF000024FF00003420F42EAC1024B171E
:108D30001346FB60FB6818461C37BD46BDE8B00310
:108D4000704790B583B000AF786039607B680433BA
:108D50001A687B6804331B6819461046FFF7C3FF87
:108D600004467B681A687B681B6819461046FFF743
:108D7000BAFF0346234403F140423B681A607B6814
:108D800004331A687B6808331B6819461046FFF7DE
:108D9000AAFF04467B680C331A687B681B68194677
:108DA0001046FFF7A0FF02463B680433A21A1A6080
:108DB0007B6804331A687B680C331B6819461046BD
:108DC000FFF791FF04467B6808331A687B681B68CD
:108DD00019461046FFF787FF02463B6808332244D6
:108DE0001A607B6804331A687B6808331B6819466D
:108DF0001046FFF778FF04467B680C331A687B68DF
:108E00001B6819461046FFF76EFF02463B680C339D
:108E100022441A607B6808331A687B6808331B6831
:108E200019461046FFF75FFF04467B681A687B68A7
:108E30001B6819461046FFF756FF0346E2183B68C9
:108E4000103302F140421A607B6808331A687B686D
:108E50000C331B6819461046FFF745FF04467B6834
:108E600004331A687B681B6819461046FFF73BFFFE
:108E700002463B681433A21A1A607B6804331A68EE
:108E80007B680C331B6819461046FFF72CFF04461D
:108E90007B6808331A687B681B6819461046FFF721
:108EA00022FF02463B681833A21A1A607B68083317
:108EB0001A687B680C331B6819461046FFF713FFCE
:108EC00004467B6804331A687B681B6819461046A1
:108ED000FFF709FF02463B681C3322441A607B6897
:108EE0000C331A687B680C331B6819461046FFF771
:108EF000FAFE04467B681A687B681B6819461046B0
:108F0000FFF7F1FE0346E2183B68203302F14042CE
:108F10001A6000BF0C37BD4690BD2DE9B00385B087
:108F200000AF786039607968C8178846814639682B
:108F3000C8170C46054604FB09F008FB05F101447F
:108F4000A8FB042319440B464FF000004FF000012A
:108F5000D00B40EA4340D9130346FB60FB68184638
:108F60001437BD46BDE8B003704780B58AB000AF86
:108F7000786045F68223BB614FF440437B614BF23E
:108F800072133B6145F6B903FB607B68002B01DC83
:108F900000237CE00023FB617B687B627A6A3B698B
:108FA0009A420DDD00BF7A6A3B699A4218DD7B6AFE
:108FB000DA0F13445B107B62FB69013BFB61F2E754
:108FC0007A6AFB689A420DDA00BF7A6AFB689A42B5
:108FD0000ADA7B6A5B007B62FB690133FB61F4E7C1
:108FE00000BF02E000BF00E000BF7B6A5B10BB6017
:108FF0007A69BB68D31A7B62796A786AFFF78DFF5A
:1090000003461946B868FFF788FF02467B699B1A3A
:109010001946786AFFF781FF7862796A786AFFF704
:109020007CFF03461946B868FFF777FF02467B6965
:109030009B1A1946786AFFF770FF7862FB6903F0A4
:109040000103002B09D0FB695B100133FB61B96997
:10905000786AFFF762FF386204E0FB695B10FB612E
:109060007B6A3B62FB69002B08DAFB69002BB8BF07
:109070005B423A6A42FA03F33B6207E0FB69002B6A
:1090800004DD3A6AFB6902FA03F33B623B6A184665
:109090002837BD4680BD80B584B000AF78607B685E
:1090A000002B03D10023FB60FB6828E00023BB609A
:1090B0007B68002B04DA7B685B427B600123BB602A
:1090C0007B68B3F1804F0ADBBB68002B03D04FF005
:1090D000FF33FB6001E00123FB60FB680FE0786871
:1090E000FFF743FFF860F968F868FFF716FFF860CC
:1090F000BB68002B02D0FB685B42FB60FB68184634
:109100001037BD4680BD000080B58AB000AF7860E2
:1091100039603B68002BB8BF5B423B627B68002B29
:10912000B8BF5B427B627A6A3B6A9342B8BF134620
:10913000FB610EE0FB69DA0F13445B10FB613B6AD5
:10914000DA0F13445B103B627B6ADA0F13445B1047
:109150007B62FB69B3F5005FECDC3A6A7B6A9A429A
:1091600009DB386AFFF797FF03461946786AFFF76D
:10917000D4FEB86108E0786AFFF78DFF0346194610
:10918000386AFFF7CAFEB861B969B869FFF7C5FE6A
:109190003861274BDB6839691846FFF7BEFEF86077
:1091A000234B9A68FB68134439691846FFF7B5FEEC
:1091B000F8601F4B5A68FB68134439691846FFF77B
:1091C000ACFEF8601A4B1A68FB681344B96918467C
:1091D000FFF7A3FE78613A6A7B6A9A4208DA154B78
:1091E0001B68DA0F13445B101A467B69D31A7B6144
:1091F0003B68002B0EDA7B68002B05DA0D4B1B68F1
:109200007A69D31A7B610BE00A4B1A687B69D31A1F
:109210007B6105E07B68002B02DA7B695B427B6146
:109220007B69BB60BB6818462837BD4680BD00BF60
:10923000C04E0020D04E002080B483B000AF034663
:109240003960FB80B7F906301B121BB2DAB23B68FB
:109250001A703B680133FA88D2B21A703B6818461C
:109260000C37BD465DF8047B704780B483B000AF17
:10927000786039607B681B16DAB23B681A707B68CD
:109280001A143B680133D2B21A707B681A123B6819
:109290000233D2B21A703B6803337A68D2B21A70C2
:1092A0003B6818460C37BD465DF8047B704780B4B8
:1092B00085B000AF78607B681B781A067B68013345
:1092C0001B781B041A437B6802331B781B02134371
:1092D0007A68033212781343FB60FB681846143730
:1092E000BD465DF8047B704780B483B000AF786002
:1092F0000B46FB701346BB70FB78032B18D17B68C1
:109300002522C3F88820BA787B68C3F884207B685C
:10931000012283F88C207B68012283F87D227B6800
:10932000FF2283F881227B68FF2283F885220CE0EC
:109330007B680022C3F888207B680022C3F8842061
:109340007B68002283F88C2000BF00BF0C37BD462D
:109350005DF8047B7047000080B586B002AF78608E
:109360007B68503324220021184623F019F87B68CB
:109370004D3303220021184623F012F87B680022A7
:10938000DA677B68012283F880207B68002283F8FB
:1093900081207B68D3F88430DAB207F108030193A7
:1093A00001230093002300217868FEF73CFBF8605E
:1093B000FB68002B01D0FB683CE03B7A482B02D0D5
:1093C0004FF0FF3336E07B681C4A5A677B681C4AC3
:1093D0009A677B68312283F882207B68802283F839
:1093E0004D207B68802283F84E207B68802283F8A2
:1093F0004F207B68D3F88430DAB27B6893F88230F0
:109400001946002300930B4601217868FEF7A8FB5C
:10941000F860FB68002B01D0FB680BE07B68012241
:1094200083F881207B68022283F88C20786800F022
:109430009CF9034618461037BD4680BD84FA0400E7
:109440007CFA040080B590B002AF78607B68D3F8F6
:10945000843087F82B307B684D337B6207F1100333
:10946000012240F285117868FDF7D4FF78637B6BA9
:10947000002B01D07B6B74E1002240F285117868EB
:10948000FDF76CFF78637B6B002B01D07B6B68E191
:1094900007F110030133012240F289117868FDF7CA
:1094A000B9FF78637B6B002B01D07B6B59E1002205
:1094B00040F289117868FDF751FF78637B6B002BD0
:1094C00001D07B6B4DE107F10F0301224FF4C07116
:1094D0007868FDF79FFF78637B6B002B01D07B6B77
:1094E0003FE100224FF4C0717868FDF737FF7863E1
:1094F0007B6B002B01D07B6B33E1312387F823306A
:1095000097F8233097F82B200021009100217868EC
:10951000FEF726FB78637B6B002B40F0E8807B68CE
:10952000D3F88830232B12D07B68D3F88830242BD3
:109530000DD097F82B20402300930C23002178684E
:10954000FEF70EFB78637B6B002B40F0D28097F820
:10955000233097F82B201021009100217868FEF726
:10956000FFFA78637B6B002B40F0C5800A2387F8F5
:10957000333022E043F6982011F084FF97F82B2037
:1095800007F114030193012300931023002178684D
:10959000FEF749FA78637B6B002B40F0AE803B7D91
:1095A00003F00103002B05D197F83330013B87F816
:1095B000333002E0002387F8333097F83330002B44
:1095C000D8D13B7D03F00103002B03D14FF0FF33D3
:1095D0007B639BE097F82B2007F11403019306238C
:1095E0000093112300217868FEF71DFA78637B6BE6
:1095F000002B40F084807B7D1B021AB23B7D1BB2A6
:1096000013433B84FB7D1B021AB2BB7D1BB2134389
:10961000FB837B7E1B021AB23B7E1BB21343BB83D0
:109620007B68D3F88830232B02D10723FB6201E04B
:109630000823FB62B7F920307A6A1278803203FB84
:1096400002F2FB6A42FA03F33B84B7F91E307A6AEE
:1096500001321278803203FB02F2FB6A42FA03F312
:10966000FB83B7F91C307A6A02321278803203FB2E
:1096700002F2FB6A42FA03F3BB834FF0FF337B63D2
:109680007B685B6FB3F90030B7F920209A4238DC71
:109690007B689B6FB3F90030B7F920209A4230DB2A
:1096A0007B685B6F0233B3F90030B7F91E209A4232
:1096B00029DC7B689B6F0233B3F90030B7F91E20B9
:1096C0009A4220DB7B685B6F0433B3F90030B7F953
:1096D0001C209A4219DC7B689B6F0433B3F900307D
:1096E000B7F91C209A4210DB00237B630EE000BF19
:1096F0000CE000BF0AE000BF08E000BF06E000BFCA
:1097000004E000BF02E000BF00E000BF7B68D3F8C8
:109710008830232B16D07B68D3F88830242B11D0C7
:109720007B68D3F88830252B0CD097F82B200023AA
:1097300000930C2300217868FEF712FA02467B6B37
:1097400013437B6397F8233097F82B200021009177
:1097500000217868FEF704FA02467B6B13437B63B3
:109760007B6B18463837BD4680BD80B584B000AFEE
:1097700078607B6893F88130002B01D100231DE0D5
:1097800000217868FEF724FAF86001217868FEF776
:109790001FFA0246FB681343FB60FB68002B01D0F5
:1097A000FB680BE07868FEF73FFA0246FB6813435C
:1097B000FB607B68002283F88120FB681846103725
:1097C000BD4680BD80B588B002AF78607B6893F8F5
:1097D0008130002B01D0002344E07B6893F8803077
:1097E000002B04D00323FB750A23BB7503E0102371
:1097F000FB750923BB757B68D3F88430DAB2BB7D77
:1098000043F05003DBB2F97D00930B4600217868EA
:10981000FEF7BAF838613B69002B01D03B6921E0C3
:109820000123FB737B68D3F88430DAB27B6893F84A
:109830008210FB7B00930B4601217868FEF735F917
:1098400038613B69002B01D03B690BE07868FEF77B
:10985000D4F902463B6913433B617B68012283F8DC
:1098600081203B6918461837BD4680BD80B483B05F
:1098700000AF78607B6893F88C30022B01D1012314
:1098800000E0002318460C37BD465DF8047B7047A6
:1098900080B5A2B000AFF860B9607A600023C7F865
:1098A00084302BE00023C7F880301EE0D7F88420F6
:1098B00013465B001A44D7F8803013441A46BB683D
:1098C0009918D7F8802013465B001A44D7F88430E3
:1098D000134491F9002007F188010B4403F8202C70
:1098E000D7F880300133C7F88030D7F88030022BAA
:1098F000DCDDD7F884300133C7F88430D7F8843002
:10990000022BCFDDFB68D3F88830252B04D1A24B86
:10991000BB6716237B6704E09F4BBB6716237B67FF
:1099200000BF0023C7F884302CE0FA68D7F88430F1
:1099300013444D331B7803F18002D7F884309B0029
:1099400007F188010B4443F8502CD7F884309B0072
:1099500007F18802134453F8502C7B6F02FA03F38B
:10996000B96F1846FEF736FD0246D7F884309B00E3
:1099700007F188010B4443F8502CD7F884300133A9
:10998000C7F88430D7F88430022BCEDD0023C7F827
:1099900084302FE0D7F884307A68134493F900308C
:1099A0001846D7F884107D4B83FB0132CB17D21AAF
:1099B00013465B001344CA1A930007F1880213444C
:1099C00053F8503C03FB00F2D7F884309B0007F1BA
:1099D00088010B4443F8742CD7F884309B0007F1BE
:1099E00088021344002243F8442CD7F88430013312
:1099F000C7F88430D7F88430082BCBDD0023C7F8B4
:109A000084305EE00023C7F8803051E0D7F884202E
:109A100013465B001A44D7F880301344FA681233B7
:109A20009B00134400229A600023FB6738E0D7F8BC
:109A3000842013465B001A44FB6F1A44FB68A23271
:109A400053F82200FA6F13465B001A44D7F88030AF
:109A500013449B0007F18802134453F8743C1946E1
:109A6000FEF7B8FCD7F8842013465B001A44D7F8F9
:109A700080301344FA6812339B0013449968D7F876
:109A8000842013465B001A44D7F8803013444218F0
:109A9000F96812339B000B449A60FB6F0133FB673C
:109AA000FB6F022BC3DDD7F880300133C7F880305D
:109AB000D7F88030022BA9DDD7F884300133C7F8FE
:109AC0008430D7F88430022B9CDD0023C7F8843023
:109AD00052E00023C7F8803045E00023FB673AE0FE
:109AE000D7F8842013465B001A44D7F8803013441B
:109AF0009B0007F18802134453F8440CD7F88420E4
:109B000013465B001A44FB6F134407F188021344A9
:109B100013F9203C1946FA6F13465B001A44D7F834
:109B200080301344FA6812339B0013449B6803FB94
:109B300001F1D7F8842013465B001A44D7F880302F
:109B4000134442189B0007F188010B4443F8442C4E
:109B5000FB6F0133FB67FB6F022BC1DDD7F8803051
:109B60000133C7F88030D7F88030022BB5DDD7F845
:109B700084300133C7F88430D7F88430022BA8DD55
:109B800007F144031946F86801F04AFC03461846F9
:109B90008837BD4680BD00BF9999990956555555DE
:109BA0002DE9B00F8BB000AF78613961FA60002306
:109BB0007B624CE04FF000024FF00003C7E9062340
:109BC00000233B622DE07A6A13465B001A443B6A2D
:109BD00013447A6912339B0013449B68DA17984642
:109BE00091463B6A5B003A691344B3F900301B04A9
:109BF000DA179A4693460AFB09F208FB0BF3134463
:109C0000A8FB0A452B441D46D7E9062311193960E4
:109C10006B417B60D7E90023C7E906233B6A013328
:109C20003B623B6A022BCEDDD7E906014FF0000212
:109C30004FF00003820F42EA81028B17796A890094
:109C4000F868014413460B607B6A01337B627B6AD0
:109C5000022BAFDD002318462C37BD46BDE8B00F00
:109C6000704780B584B000AF78600B46FB7000236E
:109C7000FB6007F10B03012268217868FDF7CAFB3E
:109C80000246FB681343FB60FB7A23F01F03DBB241
:109C9000FB72FA7AFB781343DBB2FB7207F10B031A
:109CA000012268217868FDF7E0FA0246FB68134359
:109CB000FB60FB6818461037BD4680BD80B584B098
:109CC00000AF786039600023FB603B68002B02D056
:109CD0003B6800221A8007F10B03012219217868E2
:109CE000FDF798FBF8603B68002B03D0FB7A1AB2B3
:109CF0003B681A8007F10B03012218217868FDF7F1
:109D000089FBF8603B68002B09D03B68B3F9002061
:109D1000FB7A1B021BB213431AB23B681A80FB6822
:109D200018461037BD4680BD80B584B000AF78605E
:109D300039600023FB603B68002B02D14FF0FF33FA
:109D400020E007F10803022270217868FDF762FB2A
:109D5000F860FB68002B09D07B684FF0FF32C3F836
:109D600098203B6800221A60FB680BE03B7A1B02DC
:109D70001A463B681A603B681B687A7A1A443B684B
:109D80001A60FB6818461037BD4680BD80B586B0A6
:109D900000AF78604FF48063FB600023FB75002305
:109DA0003B613EE07B681B7F23F04003DAB27B68B7
:109DB0001A777B681B7F03F07F03DAB27B681A7720
:109DC0007B681B7F1A4603217868FDF7C7FA0246B5
:109DD0003B6913433B611F217868FFF742FF02464E
:109DE0003B6913433B611E217868FFF73AFF024647
:109DF0003B6913433B617B68002283F89C2007F199
:109E00000C0319467868FFF78FFF02463B6913433E
:109E10003B613B69002B01D03B6922E0FB7D0133B4
:109E2000FB75FB68002B02D0FB7D052BBAD97B6844
:109E30001B7F43F04003DAB27B681A777B681B7F95
:109E400063F07F03DAB27B681A777B681B7F1A4660
:109E500003217868FDF782FA02463B6913433B61B0
:109E60003B6918461837BD4680BD80B588B000AF45
:109E7000F860B9607A600023BB6121E07A68BB6951
:109E8000D31A102B28BF1023FB82F98ABA68BB694A
:109E900013440A467221F868FDF7BCFAF861FB69C1
:109EA000002B09D0F868FFF771FFFB684FF0FF3215
:109EB000C3F89820FB6908E0FB8ABA691344BB61C8
:109EC000BA697B689A42D9D3FB6918462037BD46E8
:109ED00080BD80B586B000AFF860B9607A603B6045
:109EE0003B68002B02D03B6800221A6007F1100388
:109EF0001946F868FFF718FF78617B69002B05D0D9
:109F0000FB687A69C3F89820002329E03B69002B9D
:109F100001D1002324E03B69BA689A420FD2F86865
:109F2000FFF734FFFB684FF0FF32C3F898203B681F
:109F3000002B02D03B6801221A60002310E03B692D
:109F40001A467968F868FFF790FF78617B69002B03
:109F500005D0FB687A69C3F89820002300E03B69CC
:109F600018461837BD4680BD80B487B000AFF86092
:109F7000B9607A603B6002237B61FB681B781B023F
:109F80001AB2FB6801331B781BB213431BB29AB29F
:109F9000BB681A80BB681B881BB2002B14DA7B6974
:109FA00006337B613B68002B05D03B6802331A887F
:109FB000013292B21A803B68002B05D03B685433C3
:109FC0001A88013292B21A80BB681B8803F480435E
:109FD000002B20D07B6906337B613B68002B05D0CA
:109FE0003B6820331A88013292B21A807B690633AB
:109FF0007B613B68002B05D03B6808331A8801322F
:10A0000092B21A803B68002B05D03B6856331A8801
:10A01000013292B21A80BB681B8803F40053002BF4
:10A020000BD07B6906337B613B68002B05D03B6816
:10A030001C331A88013292B21A80BB681B8803F461
:10A040008053002B0BD07B6908337B613B68002B6E
:10A0500005D03B680A331A88013292B21A80BB6875
:10A060001B8803F40063002B0BD07B690C337B61EE
:10A070003B68002B05D03B681E331A88013292B230
:10A080001A80BB681B8803F48063002B0BD07B69AC
:10A090000E337B613B68002B05D03B6816331A8872
:10A0A000013292B21A80BB681B8803F40073002B44
:10A0B00002D07B6906337B61BB681B8803F4807325
:10A0C000002B0BD07B690E337B613B68002B05D0E6
:10A0D0003B6828331A88013292B21A80BB681B8809
:10A0E00003F02003002B0BD07B690C337B613B68B2
:10A0F000002B05D03B6804331A88013292B21A80D3
:10A10000BB681B8803F01003002B0BD07B69043362
:10A110007B613B68002B05D03B6824331A880132F1
:10A1200092B21A80BB681B8803F00803002B11D081
:10A13000FB6802331B781B021AB2FB6803331B78DF
:10A140001BB213431BB29AB27B681A807B6902333D
:10A150007B6102E07B6800221A807B681B8803F425
:10A160008043002B02D07B6902337B617B681B88B4
:10A1700003F40053002B02D07B6902337B617B68C0
:10A180001B8803F48053002B02D07B6902337B6170
:10A190007B681B8803F48063002B0BD07B69023340
:10A1A0007B613B68002B05D03B685C331A88013229
:10A1B00092B21A807B681B8803F08003002B0BD0BF
:10A1C0007B6906337B613B68002B05D03B685E33BF
:10A1D0001A88013292B21A807B6902337B617B69F3
:10A1E00018461C37BD465DF8047B704780B485B0C7
:10A1F00000AF03460A46FB801346BB800023FB8169
:10A200000023BB81FB88002B02D14FF0FF3363E0BA
:10A21000FB896FEA43436FEA5343FB81FB8943F4B5
:10A220008043FB81FB8943F40053FB81FB8943F4AA
:10A230008053FB81FB8943F40063FB81FB8943F47A
:10A240008063FB81FB8943F40073FB81FB8943F44A
:10A250008073FB81FB8943F04003FB81FB8943F062
:10A260002003FB81FB8943F01003FB81FB8943F052
:10A270000803FB81FA88FB89DB431340002B02D0E3
:10A280004FF0FF3328E0FB8803F00803002B22D0B7
:10A29000BB8943F48043BB81BB8943F40053BB813A
:10A2A000BB8943F48053BB81BB8943F48063BB818A
:10A2B000BB8943F08003BB81BB88002B02D14FF0E8
:10A2C000FF3309E0BA88BB89DB431340002B02D07F
:10A2D0004FF0FF3300E0002318461437BD465DF809
:10A2E000047B704780B588B000AFF860B9607A60D1
:10A2F0003B600023FB612AE0FB692C4A981807F1B8
:10A30000140207F116013B68FFF72EFE0346BB61FE
:10A31000BA68FB69D31ABA699A421DDCFB8ABA8A09
:10A3200011461846FFF762FF0346002B05D0F86878
:10A33000FFF72CFD4FF0FF3334E0FA69BB6913449B
:10A34000FB617B681B8801339AB27B681A80FA69CB
:10A35000BB689A42D0DB00E000BF3B68002B20D0F6
:10A360003B68123319883B681E331A883B681233E6
:10A370000A4492B21A803B68143319883B681E3332
:10A380001A883B6814330A4492B21A803B68063339
:10A3900019883B6816331A883B6806330A4492B220
:10A3A0001A80002318462037BD4680BD048900204E
:10A3B00080B586B000AFF860B9607A603B6000237A
:10A3C0007B617B6800221A80BB681B68B3F5806FD5
:10A3D00017DABB681B68C3F580631946BB681B6846
:10A3E000144A1A4407F11403F868FFF772FD024695
:10A3F000BB681B6813441A46BB681A607B69002B54
:10A400000BD1BB6819683B687A68F868FFF76AFF88
:10A410000346002B03D1002307E000BF00E000BF8C
:10A42000BB6800221A604FF0FF3318461837BD464C
:10A4300080BD00BF0489002080B586B000AFF86001
:10A44000B9607A603B6000233B61284B7B613B68CD
:10A450001B68032B44DD0023254A26492348FFF7C8
:10A4600083FD03463B613B681B683A699A4203DD02
:10A47000FB68D3F8983034E07B6902337B611E4B74
:10A48000B3F89A3003F00803002B02D07B69023343
:10A490007B617A691849F86800F0ADF803461A46FE
:10A4A0007B6913447B613B681A683B69D21A3B683D
:10A4B0001A603B681B68002B08D03B690B4A99184F
:10A4C0003B681B681A46094821F050FF0A4BB3F855
:10A4D0009A20BB681A80084BB3F89C207B681A80CE
:10A4E000002318461837BD4680BD00BF04890020F0
:10A4F000FC880020FA8800206088002080B483B0A7
:10A5000000AF786039603B681B781A063B680133FE
:10A510001B781B041A433B6802331B781B0213434E
:10A520003A68033212781A437B681A603B68043336
:10A530001B781A063B6805331B781B041A433B68DB
:10A5400006331B781B021A433B6807331B781946F6
:10A550007B6804330A431A603B6808331B781A0689
:10A560003B6809331B781B041A433B680A331B788A
:10A570001B021A433B680B331B7819467B68083370
:10A580000A431A6000BF0C37BD465DF8047B704774
:10A5900080B483B000AF786039603B681B781B02E1
:10A5A0001AB23B6801331B781BB213431AB27B68A3
:10A5B0001A803B6802331B781B0219B23B680333D5
:10A5C0001B781AB27B6802330A4312B21A803B68C6
:10A5D00004331B781B0219B23B6805331B781AB28F
:10A5E0007B6804330A4312B21A8000BF0C37BD46A1
:10A5F0005DF8047B704780B586B000AFF860B96045
:10A600007A607B687B61BB68B3F89A301BB2002B21
:10A610001ADABB682C3379681846FFF7B9FFBB68B4
:10A62000B3F92C30DA03BB685A63BB68B3F92E3038
:10A63000DA03BB689A63BB68B3F93030DA03BB68EE
:10A64000DA637B6806337B60BB68B3F89A3003F447
:10A650008043002B11D0BB68403379681846FFF760
:10A6600097FF7B6806337B60BB6846337968184682
:10A67000FFF78EFF7B6806337B60BB68B3F89A30C8
:10A6800003F40053002B18D0BB6874337968184664
:10A69000FFF77EFFBB6803F17401BB6858331A46AD
:10A6A000F868FFF77DFABB6894330622796818468C
:10A6B00021F04EFE7B6806337B60BB68B3F89A30AE
:10A6C00003F48053002B02D07B6808337B60BB68A7
:10A6D000B3F89A3003F40063002B07D0BB687968A5
:10A6E0001846FFF70BFF7B680C337B60BB68B3F841
:10A6F0009A3003F48063002B13D0BB680C33796865
:10A700001846FFF7FBFE7B680C331B781A067B6844
:10A710000D331B781B041A43BB689A617B680E33A8
:10A720007B60BB68B3F89A3003F01003002B15D0A0
:10A730007B681B781A067B6801331B781B041A435D
:10A740007B6802331B781B0213437A68033212784A
:10A750001A43BB681A677B6804337B60BB68B3F835
:10A760009A3003F48073002B13D0BB681C337968D4
:10A770001846FFF7C3FE7B680C331B781A067B680C
:10A780000D331B781B041A43BB689A627B680E3337
:10A790007B60BB68B3F89A3003F08003002B02D0D3
:10A7A0007B6806337B60BB68B3F89A3003F0200304
:10A7B000002B0FD0BB68643379681846FFF79EFE04
:10A7C000BB6888330C227968184621F0C1FD7B688C
:10A7D0000C337B60BB68B3F89C3003F48043002BE0
:10A7E0000FD07B681B781B021AB27B6801331B7881
:10A7F0001BB213431AB2BB68A3F87A207B680233FA
:10A800007B60BB68B3F89C3003F40053002B0FD07F
:10A810007B681B781B021AB27B6801331B781BB262
:10A8200013431AB2BB68A3F87C207B6802337B60B9
:10A83000BB68B3F89C3003F48053002B0FD07B68C7
:10A840001B781B021AB27B6801331B781BB21343BF
:10A850001AB2BB68A3F87E207B6802337B60BB68BA
:10A86000B3F89C3003F48063002B0FD07B681B7817
:10A870001B021AB27B6801331B781BB213431AB256
:10A88000BB68A3F886207B6802337B60BB68B3F8A3
:10A890009C3003F08003002B25D07B681B781B02C3
:10A8A0001AB27B6801331B781BB213431BB29AB2F6
:10A8B000BB68A3F884207B6802331B781A067B6888
:10A8C00003331B781B041A437B6804331B781B0279
:10A8D00013437A68053212781A43BB68C3F88020A4
:10A8E0007B6806337B607B681B781B021AB27B682F
:10A8F00001331B781BB213437B827B6802337B607E
:10A90000BB680122C3F8A0207A687B69D31A184675
:10A910001837BD4680BD000080B582B000AF7860BA
:10A920007B68002B02D14FF0FF3305E00C22044975
:10A93000786821F00DFD002318460837BD4680BD1C
:10A940009488002080B483B000AF78607B68002BCF
:10A9500002D14FF0FF3311E00B4BB3F940207B687D
:10A960001A807B680233084AB2F942201A807B6859
:10A970000433054AB2F944201A80002318460C37E4
:10A98000BD465DF8047B70476088002080B582B0CA
:10A9900000AF78607B68002B02D14FF0FF3305E0F9
:10A9A00006220449786821F0D3FC002318460837B2
:10A9B000BD4680BDA688002080B485B000AFF86099
:10A9C000B9607A60FB68002B02D14FF0FF3327E0BB
:10A9D000BB68002B02D14FF0FF3321E07B68002BD6
:10A9E00002D14FF0FF331BE0BB681A687B681B681D
:10A9F000D21AFB681A60BB68043319687B68043399
:10AA00001A68FB6804338A1A1A60BB68083319682D
:10AA10007B6808331A68FB6808338A1A1A600023B7
:10AA200018461437BD465DF8047B704780B582B088
:10AA300000AF78607B68002B02D14FF0FF3305E058
:10AA40000C220449786821F083FC0023184608375B
:10AA5000BD4680BD6088002080B582B000AF7860C0
:10AA60007B68002B02D14FF0FF3305E00C22044934
:10AA7000786821F06DFC002318460837BD4680BD7C
:10AA80006C88002080B582B000AF78607B68002BB6
:10AA900002D14FF0FF3305E00C220449786821F021
:10AAA00057FC002318460837BD4680BD7C8800202F
:10AAB00080B582B000AF78607B68002B02D14FF088
:10AAC000FF3305E00C220449786821F041FC0023A3
:10AAD00018460837BD4680BDB888002080B582B0D2
:10AAE00000AF78607B68002B02D14FF0FF3305E0A8
:10AAF0000C220449786821F02BFC00231846083703
:10AB0000BD4680BDC488002080B483B000AF7860AB
:10AB10007B68002B02D14FF0FF3305E0054BB3F803
:10AB200084207B681A80002318460C37BD465DF8E8
:10AB3000047B70476088002080B483B000AF7860E9
:10AB40007B68002B02D14FF0FF3305E0054BD3F8B3
:10AB500080207B681A60002318460C37BD465DF8DC
:10AB6000047B70476088002080B483B000AF7860B9
:10AB70007B68002B02D14FF0FF3306E0064BB3F9A0
:10AB800086309AB27B681A80002318460C37BD467F
:10AB90005DF8047B704700BF6088002080B400AF80
:10ABA000034BB3F97A301846BD465DF8047B704715
:10ABB0006088002080B400AF034BB3F97C301846A6
:10ABC000BD465DF8047B70476088002080B400AF0C
:10ABD000034BB3F97E301846BD465DF8047B7047E1
:10ABE0006088002080B400AF034B9B6A1846BD46C6
:10ABF0005DF8047B704700BF6088002080B400AF20
:10AC0000034B9B691846BD465DF8047B704700BF47
:10AC10006088002080B584B000AFF860B9607A60C9
:10AC20007B689AB29023B968F86800F04AFF03463F
:10AC300018461037BD4680BD80B483B000AF786041
:10AC400039603B684FF480521A8000BF0C37BD4614
:10AC50005DF8047B704780B584B000AF78603960E0
:10AC60003B681B12DBB23B723B68DBB27B7207F1C5
:10AC70000803022240217868FCF765FDF860FB6854
:10AC800018461037BD4680BD80B584B000AF7860EF
:10AC900039603B681B12DAB2084B1A703B68DAB2B3
:10ACA000064B5A70054B022242217868FCF74BFD97
:10ACB000F860FB6818461037BD4680BD048D002043
:10ACC00080B584B000AF78600023BB6007F1080353
:10ACD000022240217868FCF736FDF86007F108038E
:10ACE000022242217868FCF72EFD0246FB681344DD
:10ACF000FB6007F1080302224C217868FCF723FD72
:10AD00000246FB681344FB6007F1080302224E2150
:10AD10007868FCF718FD0246FB681344FB6007F1F6
:10AD2000080302228A217868FCF70DFD0246FB68C1
:10AD30001344FB60FB68002B01D0FB6800E000239C
:10AD400018461037BD4680BD80B584B000AF78602E
:10AD5000396000233B813B681BB207F108021146B2
:10AD60001846FEF769FA034602224C217868FCF780
:10AD7000EAFCF860FB68002B01D0FB6800E00023D0
:10AD800018461037BD4680BD80B584B000AF7860EE
:10AD90000B467B8000233B81B7F9023007F10802A4
:10ADA00011461846FEF748FA034602224FF4FF7197
:10ADB0007868FCF7C8FCF860FB68002B01D0FB68E2
:10ADC00000E0002318461037BD4680BD80B584B032
:10ADD00000AF78600B467B8000233B81B7F90230DF
:10ADE00007F1080211461846FEF726FA034602222A
:10ADF0008A217868FCF7A7FCF860FB68002B01D07B
:10AE0000FB6800E0002318461037BD4680BD80B5C2
:10AE100084B000AF78600B467B807B881B0A9BB2B6
:10AE2000DBB23B727B88DBB27B7207F10803022244
:10AE30004E217868FCF787FCF860FB6818461037ED
:10AE4000BD4680BD90B589B000AFF860B9601346CB
:10AE5000FB800023BB820023FB61BB680C2B3ED828
:10AE600001A252F823F000BF9DAE0200A3AE020083
:10AE7000DFAE0200A9AE0200AFAE0200B5AE020026
:10AE8000BBAE0200C1AE0200C7AE0200CDAE0200F2
:10AE9000D3AE0200D9AE0200DFAE0200BE23FB61DA
:10AEA0001DE0BA23FB611AE0B623FB6117E0B22371
:10AEB000FB6114E0AC23FB6111E0A823FB610EE011
:10AEC000A023FB610BE0A423FB6108E0BC23FB6132
:10AED00005E0B823FB6102E0B423FB6100BFFB691E
:10AEE0009CB207F11402B7F9063011461846FEF776
:10AEF000A3F9034602222146F868FCF724FCB86156
:10AF0000BB69002B01D0BB6900E000231846243741
:10AF1000BD4690BD80B588B000AFF860B9601346FB
:10AF2000FB800023BB610023BB8207F118030422CE
:10AF30004FF4D871F868FCF706FCF861BB6807F1BC
:10AF4000180211461846FEF790F9034604224FF402
:10AF50009E71F868FCF7F7FB0246FB691344FB613E
:10AF600007F11402B7F9063011461846FEF764F9E6
:10AF7000034602224FF4AF71F868FCF7E4FB024687
:10AF8000FB691344FB61FB69002B01D0FB6900E006
:10AF9000002318462037BD4680BD80B584B000AF81
:10AFA000786039600023BB603B681B6807F10802CA
:10AFB00011461846FEF759F90346042240F2E461AF
:10AFC0007868FCF7C0FBF8603B6804331B6807F146
:10AFD000080211461846FEF748F9034604224FF4CA
:10AFE000DD617868FCF7AFFB0246FB681344FB6049
:10AFF0003B6808331B6807F1080211461846FEF744
:10B0000034F90346042240F2EC617868FCF79BFBBC
:10B010000246FB681344FB60FB68002B01D0FB6811
:10B0200000E0002318461037BD4680BD80B584B0CF
:10B0300000AF786039600023BB603B681B6807F194
:10B04000080211461846FEF710F90346042240F69E
:10B05000B4017868FCF777FBF8603B6804331B6841
:10B0600007F1080211461846FEF7FFF803460422CE
:10B0700040F6B8017868FCF766FB0246FB681344AB
:10B08000FB603B6808331B6807F10802114618464D
:10B09000FEF7EBF80346042240F6BC017868FCF7A3
:10B0A00052FB0246FB681344FB60FB68002B01D097
:10B0B000FB6800E0002318461037BD4680BD80B510
:10B0C00084B000AF786039600023BB603B681B68C8
:10B0D00007F1080211461846FEF7C7F80346042296
:10B0E00040F2E4717868FCF72EFBF8603B680433AB
:10B0F0001B6807F1080211461846FEF7B6F803462A
:10B1000004224FF4FD617868FCF71DFB0246FB68E2
:10B110001344FB603B6808331B6807F108021146C3
:10B120001846FEF7A2F80346042240F2EC71786854
:10B13000FCF709FB0246FB681344FB60FB68002B2D
:10B1400001D0FB6800E0002318461037BD4680BDE3
:10B1500090B585B000AF786039600023BB6007F11F
:10B160000803042240F2E4617868FCF707FAF8600B
:10B1700007F108031846FEF79AF802463B681A6082
:10B1800007F1080304224FF4DD617868FCF7F6F953
:10B190000246FB681344FB603B681C1D07F1080373
:10B1A0001846FEF784F80346236007F108030422DB
:10B1B00040F2EC617868FCF7E1F90246FB68134461
:10B1C000FB603B6803F1080407F108031846FEF72B
:10B1D0006EF803462360FB68002B01D0FB6800E09B
:10B1E000002318461437BD4690BD90B585B000AF1A
:10B1F000786039600023BB6007F10803042240F641
:10B20000B4017868FCF7BAF9F86007F1080318464A
:10B21000FEF74DF802463B681A6007F10803042266
:10B2200040F6B8017868FCF7A9F90246FB681344B8
:10B23000FB603B681C1D07F108031846FEF737F852
:10B240000346236007F10803042240F6BC01786836
:10B25000FCF794F90246FB681344FB603B6803F17A
:10B26000080407F108031846FEF721F80346236097
:10B27000FB68002B01D0FB6800E000231846143760
:10B28000BD4690BD90B585B000AF786039600023B1
:10B29000BB6007F10803042240F2E4717868FCF710
:10B2A0006DF9F86007F108031846FEF700F802464A
:10B2B0003B681A6007F1080304224FF4FD617868C7
:10B2C000FCF75CF90246FB681344FB603B681C1DFD
:10B2D00007F108031846FDF7EAFF0346236007F16C
:10B2E0000803042240F2EC717868FCF747F9024643
:10B2F000FB681344FB603B6803F1080407F1080393
:10B300001846FDF7D4FF03462360FB68002B01D0ED
:10B31000FB6800E0002318461437BD4690BD80B599
:10B3200084B000AF7860396007F1080319463868C7
:10B33000FDF79BFF034604224FF498717868FCF7F1
:10B3400002FAF860FB6818461037BD4680BD80B52C
:10B3500084B000AF786039600023BB6007F1080358
:10B3600019463868FDF781FF034604224FF48671C1
:10B370007868FCF7E8F9F860FB68002B01D0FB68FF
:10B3800000E0002318461037BD4680BD80B584B06C
:10B3900000AF786039600023BB603B681B6807F131
:10B3A000080211461846FDF760FF034604224FF4D9
:10B3B000B6617868FCF7C7F9F8603B6804331B682E
:10B3C00007F1080211461846FDF74FFF0346042215
:10B3D0004FF4B8617868FCF7B6F90246FB6813438E
:10B3E000FB603B6808331B681BB207F1080211467B
:10B3F0001846FDF721FF0346022240F2E451786827
:10B40000FCF7A1F90246FB681343FB60FB68002BC5
:10B4100001D0FB6800E0002318461037BD4680BD10
:10B4200080B584B000AF786039600023BB603B68B2
:10B430001B6807F1080211461846FDF716FF034680
:10B4400004224FF4B8717868FCF77DF9F8603B6826
:10B4500004331B6807F1080211461846FDF705FF83
:10B46000034604224FF4BA717868FCF76CF902467F
:10B47000FB681344FB603B6808331B6807F1080254
:10B4800011461846FDF7F1FE034604224FF4BC7145
:10B490007868FCF758F90246FB681344FB603B6888
:10B4A0000C331B6807F1080211461846FDF7DDFE54
:10B4B000034604224FF4BE717868FCF744F9024653
:10B4C000FB681344FB603B6810331B6807F10802FC
:10B4D00011461846FDF7C9FE034604224FF4C07119
:10B4E0007868FCF730F90246FB681344FB603B6860
:10B4F00014331B6807F1080211461846FDF7B5FE24
:10B50000034604224FF4C2717868FCF71CF9024626
:10B51000FB681344FB603B6818331B6807F10802A3
:10B5200011461846FDF7A1FE034604224FF4C471EC
:10B530007868FCF708F90246FB681344FB603B6837
:10B540001C331B6807F1080211461846FDF78DFEF3
:10B55000034604224FF4C6717868FCF7F4F80246FB
:10B56000FB681344FB603B6820331B6807F108024B
:10B5700011461846FDF779FE034604224FF4C871C0
:10B580007868FCF7E0F80246FB681344FB60FB6850
:10B59000002B01D0FB6800E0002318461037BD46A1
:10B5A00080BD80B584B000AF786039600023BB6097
:10B5B00007F1080304224FF458717868FBF7DEFFA7
:10B5C000F860FB68002B01D0FB680DE03B7A1B02A2
:10B5D0007A7A13441B02BA7A13441B02FA7A134490
:10B5E0001A463B681A60002318461037BD4680BDD6
:10B5F00080B586B000AF78600B467B80B7F902302B
:10B60000023B1E2B54D801A252F823F089B6020047
:10B61000B1B6020091B60200B1B60200B1B60200A6
:10B62000B1B6020099B60200B1B60200B1B602008E
:10B63000B1B60200B1B60200B1B60200B1B6020066
:10B64000B1B60200A1B60200B1B60200B1B6020066
:10B65000B1B60200B1B60200B1B60200B1B6020046
:10B66000B1B60200B1B60200B1B60200B1B6020036
:10B67000B1B60200B1B60200B1B60200B1B6020026
:10B68000B1B60200A9B602004FF000737B6112E070
:10B690004FF080637B610EE04FF000637B610AE056
:10B6A0004FF080537B6106E04FF000537B6102E076
:10B6B0004FF0FF3313E007F10C0319467869FDF7EB
:10B6C000D4FD034604224FF4F0717868FCF73BF890
:10B6D00038613B69002B01D03B6900E0002318462C
:10B6E0001837BD4680BD00BF80B586B000AF78601A
:10B6F0000B467B80B7F90230023B1E2B54D801A2C7
:10B7000052F823F081B70200A9B7020089B70200FE
:10B71000A9B70200A9B70200A9B7020091B70200B9
:10B72000A9B70200A9B70200A9B70200A9B7020091
:10B73000A9B70200A9B70200A9B7020099B7020091
:10B74000A9B70200A9B70200A9B70200A9B7020071
:10B75000A9B70200A9B70200A9B70200A9B7020061
:10B76000A9B70200A9B70200A9B70200A9B7020051
:10B77000A9B70200A9B70200A9B70200A1B7020049
:10B780004FF400237B6112E04FF480237B610EE0D5
:10B790004FF400337B610AE04FF480337B6106E0B5
:10B7A0004FF400437B6102E04FF0FF3313E007F1F9
:10B7B0000C0319467869FDF758FD0346042240F250
:10B7C000F4417868FBF7BFFF38613B69002B01D07B
:10B7D0003B6900E0002318461837BD4680BD00BF16
:10B7E00080B586B000AF78600B467B800023FB609D
:10B7F000B7F90230B3F5617F1DD0B3F5617F1DDC71
:10B80000B3F5E17F14D0B3F5E17F17DCE12B0CD069
:10B81000E12B13DC382B02D0702B03D00EE0002379
:10B82000FB820EE00123FB820BE00323FB8208E096
:10B830000723FB8205E00F23FB8202E04FF0FF337A
:10B8400015E007F10C02B7F9163011461846FDF75E
:10B85000F3FC0346022240F20A317868FBF773FFDB
:10B8600038613B69002B01D03B6900E0002318469A
:10B870001837BD4680BD80B586B000AF78600B46F6
:10B880007B800023FB60B7F90230B3F5617F1DD0E8
:10B89000B3F5617F1DDCB3F5E17F14D0B3F5E17F33
:10B8A00017DCE12B0CD0E12B13DC382B02D0702BF2
:10B8B00003D00EE00023FB820EE00123FB820BE0AD
:10B8C0000323FB8208E00723FB8205E00F23FB82B2
:10B8D00002E04FF0FF3315E007F10C02B7F9163024
:10B8E00011461846FDF7A8FC034602224FF44271A8
:10B8F0007868FBF728FF38613B69002B01D03B6972
:10B9000000E0002318461837BD4680BD80B584B0DE
:10B9100000AF786039600023BB603B681B6807F1AB
:10B92000080211461846FDF7A0FC034604224FF416
:10B9300050617868FBF707FFF8603B6804331B68C9
:10B9400007F1080211461846FDF78FFC0346042252
:10B9500040F604517868FBF7F6FE0246FB68134494
:10B96000FB603B6808331B6807F108021146184664
:10B97000FDF77BFC0346042240F608517868FBF78C
:10B98000E2FE0246FB681344FB603B680C331B6815
:10B9900007F1080211461846FDF767FC034604222A
:10B9A00040F60C517868FBF7CEFE0246FB68134464
:10B9B000FB603B6810331B6807F10802114618460C
:10B9C000FDF753FC034604224FF451617868FBF7FE
:10B9D000BAFE0246FB681344FB603B6814331B68E5
:10B9E00007F1080211461846FDF73FFC0346042202
:10B9F00040F614517868FBF7A6FE0246FB68134434
:10BA0000FB603B6818331B6807F1080211461846B3
:10BA1000FDF72BFC0346042240F618517868FBF72B
:10BA200092FE0246FB681344FB603B681C331B68B4
:10BA300007F1080211461846FDF717FC03460422D9
:10BA400040F61C517868FBF77EFE0246FB68134403
:10BA5000FB603B6820331B6807F10802114618465B
:10BA6000FDF703FC034604224FF452617868FBF7AC
:10BA70006AFE0246FB681344FB60FB68002B01D0A2
:10BA8000FB6800E0002318461037BD4680BD80B536
:10BA900084B000AF786039600023BB6007F1080311
:10BAA00019463868FDF7E1FB034604224FF488711C
:10BAB0007868FBF748FEF860FB6818461037BD460B
:10BAC00080BD80B58EB000AFF860B96011461A46EF
:10BAD0000B46FB801346BB8000237B62FB6893F818
